{
  "_format": "hh-sol-artifact-1",
  "contractName": "ERC721LazyMint",
  "sourceName": "contracts/ERC721LazyMint.sol",
  "abi": [
    {
      "inputs": [
        {
          "internalType": "string",
          "name": "name",
          "type": "string"
        },
        {
          "internalType": "string",
          "name": "symbol",
          "type": "string"
        }
      ],
      "stateMutability": "nonpayable",
      "type": "constructor"
    },
    {
      "anonymous": false,
      "inputs": [
        {
          "indexed": true,
          "internalType": "address",
          "name": "owner",
          "type": "address"
        },
        {
          "indexed": true,
          "internalType": "address",
          "name": "approved",
          "type": "address"
        },
        {
          "indexed": true,
          "internalType": "uint256",
          "name": "tokenId",
          "type": "uint256"
        }
      ],
      "name": "Approval",
      "type": "event"
    },
    {
      "anonymous": false,
      "inputs": [
        {
          "indexed": true,
          "internalType": "address",
          "name": "owner",
          "type": "address"
        },
        {
          "indexed": true,
          "internalType": "address",
          "name": "operator",
          "type": "address"
        },
        {
          "indexed": false,
          "internalType": "bool",
          "name": "approved",
          "type": "bool"
        }
      ],
      "name": "ApprovalForAll",
      "type": "event"
    },
    {
      "anonymous": false,
      "inputs": [
        {
          "indexed": true,
          "internalType": "bytes32",
          "name": "role",
          "type": "bytes32"
        },
        {
          "indexed": true,
          "internalType": "bytes32",
          "name": "previousAdminRole",
          "type": "bytes32"
        },
        {
          "indexed": true,
          "internalType": "bytes32",
          "name": "newAdminRole",
          "type": "bytes32"
        }
      ],
      "name": "RoleAdminChanged",
      "type": "event"
    },
    {
      "anonymous": false,
      "inputs": [
        {
          "indexed": true,
          "internalType": "bytes32",
          "name": "role",
          "type": "bytes32"
        },
        {
          "indexed": true,
          "internalType": "address",
          "name": "account",
          "type": "address"
        },
        {
          "indexed": true,
          "internalType": "address",
          "name": "sender",
          "type": "address"
        }
      ],
      "name": "RoleGranted",
      "type": "event"
    },
    {
      "anonymous": false,
      "inputs": [
        {
          "indexed": true,
          "internalType": "bytes32",
          "name": "role",
          "type": "bytes32"
        },
        {
          "indexed": true,
          "internalType": "address",
          "name": "account",
          "type": "address"
        },
        {
          "indexed": true,
          "internalType": "address",
          "name": "sender",
          "type": "address"
        }
      ],
      "name": "RoleRevoked",
      "type": "event"
    },
    {
      "anonymous": false,
      "inputs": [
        {
          "indexed": true,
          "internalType": "address",
          "name": "from",
          "type": "address"
        },
        {
          "indexed": true,
          "internalType": "address",
          "name": "to",
          "type": "address"
        },
        {
          "indexed": true,
          "internalType": "uint256",
          "name": "tokenId",
          "type": "uint256"
        }
      ],
      "name": "Transfer",
      "type": "event"
    },
    {
      "inputs": [],
      "name": "DEFAULT_ADMIN_ROLE",
      "outputs": [
        {
          "internalType": "bytes32",
          "name": "",
          "type": "bytes32"
        }
      ],
      "stateMutability": "view",
      "type": "function"
    },
    {
      "inputs": [],
      "name": "MINTER_ROLE",
      "outputs": [
        {
          "internalType": "bytes32",
          "name": "",
          "type": "bytes32"
        }
      ],
      "stateMutability": "view",
      "type": "function"
    },
    {
      "inputs": [
        {
          "internalType": "address",
          "name": "to",
          "type": "address"
        },
        {
          "internalType": "uint256",
          "name": "tokenId",
          "type": "uint256"
        }
      ],
      "name": "approve",
      "outputs": [],
      "stateMutability": "nonpayable",
      "type": "function"
    },
    {
      "inputs": [
        {
          "internalType": "address",
          "name": "owner",
          "type": "address"
        }
      ],
      "name": "balanceOf",
      "outputs": [
        {
          "internalType": "uint256",
          "name": "",
          "type": "uint256"
        }
      ],
      "stateMutability": "view",
      "type": "function"
    },
    {
      "inputs": [
        {
          "internalType": "uint256",
          "name": "tokenId",
          "type": "uint256"
        }
      ],
      "name": "getApproved",
      "outputs": [
        {
          "internalType": "address",
          "name": "",
          "type": "address"
        }
      ],
      "stateMutability": "view",
      "type": "function"
    },
    {
      "inputs": [
        {
          "internalType": "bytes32",
          "name": "role",
          "type": "bytes32"
        }
      ],
      "name": "getRoleAdmin",
      "outputs": [
        {
          "internalType": "bytes32",
          "name": "",
          "type": "bytes32"
        }
      ],
      "stateMutability": "view",
      "type": "function"
    },
    {
      "inputs": [
        {
          "internalType": "bytes32",
          "name": "role",
          "type": "bytes32"
        },
        {
          "internalType": "address",
          "name": "account",
          "type": "address"
        }
      ],
      "name": "grantRole",
      "outputs": [],
      "stateMutability": "nonpayable",
      "type": "function"
    },
    {
      "inputs": [
        {
          "internalType": "bytes32",
          "name": "role",
          "type": "bytes32"
        },
        {
          "internalType": "address",
          "name": "account",
          "type": "address"
        }
      ],
      "name": "hasRole",
      "outputs": [
        {
          "internalType": "bool",
          "name": "",
          "type": "bool"
        }
      ],
      "stateMutability": "view",
      "type": "function"
    },
    {
      "inputs": [
        {
          "internalType": "address",
          "name": "owner",
          "type": "address"
        },
        {
          "internalType": "address",
          "name": "operator",
          "type": "address"
        }
      ],
      "name": "isApprovedForAll",
      "outputs": [
        {
          "internalType": "bool",
          "name": "",
          "type": "bool"
        }
      ],
      "stateMutability": "view",
      "type": "function"
    },
    {
      "inputs": [],
      "name": "name",
      "outputs": [
        {
          "internalType": "string",
          "name": "",
          "type": "string"
        }
      ],
      "stateMutability": "view",
      "type": "function"
    },
    {
      "inputs": [
        {
          "internalType": "uint256",
          "name": "tokenId",
          "type": "uint256"
        }
      ],
      "name": "ownerOf",
      "outputs": [
        {
          "internalType": "address",
          "name": "",
          "type": "address"
        }
      ],
      "stateMutability": "view",
      "type": "function"
    },
    {
      "inputs": [
        {
          "internalType": "address",
          "name": "account",
          "type": "address"
        },
        {
          "internalType": "uint256",
          "name": "tokenId",
          "type": "uint256"
        },
        {
          "internalType": "bytes",
          "name": "signature",
          "type": "bytes"
        }
      ],
      "name": "redeem",
      "outputs": [],
      "stateMutability": "nonpayable",
      "type": "function"
    },
    {
      "inputs": [
        {
          "internalType": "bytes32",
          "name": "role",
          "type": "bytes32"
        },
        {
          "internalType": "address",
          "name": "account",
          "type": "address"
        }
      ],
      "name": "renounceRole",
      "outputs": [],
      "stateMutability": "nonpayable",
      "type": "function"
    },
    {
      "inputs": [
        {
          "internalType": "bytes32",
          "name": "role",
          "type": "bytes32"
        },
        {
          "internalType": "address",
          "name": "account",
          "type": "address"
        }
      ],
      "name": "revokeRole",
      "outputs": [],
      "stateMutability": "nonpayable",
      "type": "function"
    },
    {
      "inputs": [
        {
          "internalType": "address",
          "name": "from",
          "type": "address"
        },
        {
          "internalType": "address",
          "name": "to",
          "type": "address"
        },
        {
          "internalType": "uint256",
          "name": "tokenId",
          "type": "uint256"
        }
      ],
      "name": "safeTransferFrom",
      "outputs": [],
      "stateMutability": "nonpayable",
      "type": "function"
    },
    {
      "inputs": [
        {
          "internalType": "address",
          "name": "from",
          "type": "address"
        },
        {
          "internalType": "address",
          "name": "to",
          "type": "address"
        },
        {
          "internalType": "uint256",
          "name": "tokenId",
          "type": "uint256"
        },
        {
          "internalType": "bytes",
          "name": "_data",
          "type": "bytes"
        }
      ],
      "name": "safeTransferFrom",
      "outputs": [],
      "stateMutability": "nonpayable",
      "type": "function"
    },
    {
      "inputs": [
        {
          "internalType": "address",
          "name": "operator",
          "type": "address"
        },
        {
          "internalType": "bool",
          "name": "approved",
          "type": "bool"
        }
      ],
      "name": "setApprovalForAll",
      "outputs": [],
      "stateMutability": "nonpayable",
      "type": "function"
    },
    {
      "inputs": [
        {
          "internalType": "bytes4",
          "name": "interfaceId",
          "type": "bytes4"
        }
      ],
      "name": "supportsInterface",
      "outputs": [
        {
          "internalType": "bool",
          "name": "",
          "type": "bool"
        }
      ],
      "stateMutability": "view",
      "type": "function"
    },
    {
      "inputs": [],
      "name": "symbol",
      "outputs": [
        {
          "internalType": "string",
          "name": "",
          "type": "string"
        }
      ],
      "stateMutability": "view",
      "type": "function"
    },
    {
      "inputs": [
        {
          "internalType": "uint256",
          "name": "tokenId",
          "type": "uint256"
        }
      ],
      "name": "tokenURI",
      "outputs": [
        {
          "internalType": "string",
          "name": "",
          "type": "string"
        }
      ],
      "stateMutability": "view",
      "type": "function"
    },
    {
      "inputs": [
        {
          "internalType": "address",
          "name": "from",
          "type": "address"
        },
        {
          "internalType": "address",
          "name": "to",
          "type": "address"
        },
        {
          "internalType": "uint256",
          "name": "tokenId",
          "type": "uint256"
        }
      ],
      "name": "transferFrom",
      "outputs": [],
      "stateMutability": "nonpayable",
      "type": "function"
    }
  ],
  "bytecode": "0x60806040523480156200001157600080fd5b506040516200437538038062004375833981810160405281019062000037919062000336565b818181600090805190602001906200005192919062000214565b5080600190805190602001906200006a92919062000214565b505050620000916000801b620000856200009960201b60201c565b620000a160201b60201c565b505062000519565b600033905090565b620000b38282620000b760201b60201c565b5050565b620000c98282620001a960201b60201c565b620001a55760016006600084815260200190815260200160002060000160008373ffffffffffffffffffffffffffffffffffffffff1673ffffffffffffffffffffffffffffffffffffffff16815260200190815260200160002060006101000a81548160ff0219169083151502179055506200014a6200009960201b60201c565b73ffffffffffffffffffffffffffffffffffffffff168173ffffffffffffffffffffffffffffffffffffffff16837f2f8788117e7eff1d82e926ec794901d17c78024a50270940304540a733656f0d60405160405180910390a45b5050565b60006006600084815260200190815260200160002060000160008373ffffffffffffffffffffffffffffffffffffffff1673ffffffffffffffffffffffffffffffffffffffff16815260200190815260200160002060009054906101000a900460ff16905092915050565b82805462000222906200043e565b90600052602060002090601f01602090048101928262000246576000855562000292565b82601f106200026157805160ff191683800117855562000292565b8280016001018555821562000292579182015b828111156200029157825182559160200191906001019062000274565b5b509050620002a19190620002a5565b5090565b5b80821115620002c0576000816000905550600101620002a6565b5090565b6000620002db620002d584620003d2565b620003a9565b905082815260208101848484011115620002f457600080fd5b6200030184828562000408565b509392505050565b600082601f8301126200031b57600080fd5b81516200032d848260208601620002c4565b91505092915050565b600080604083850312156200034a57600080fd5b600083015167ffffffffffffffff8111156200036557600080fd5b620003738582860162000309565b925050602083015167ffffffffffffffff8111156200039157600080fd5b6200039f8582860162000309565b9150509250929050565b6000620003b5620003c8565b9050620003c3828262000474565b919050565b6000604051905090565b600067ffffffffffffffff821115620003f057620003ef620004d9565b5b620003fb8262000508565b9050602081019050919050565b60005b83811015620004285780820151818401526020810190506200040b565b8381111562000438576000848401525b50505050565b600060028204905060018216806200045757607f821691505b602082108114156200046e576200046d620004aa565b5b50919050565b6200047f8262000508565b810181811067ffffffffffffffff82111715620004a157620004a0620004d9565b5b80604052505050565b7f4e487b7100000000000000000000000000000000000000000000000000000000600052602260045260246000fd5b7f4e487b7100000000000000000000000000000000000000000000000000000000600052604160045260246000fd5b6000601f19601f8301169050919050565b613e4c80620005296000396000f3fe608060405234801561001057600080fd5b50600436106101375760003560e01c80636352211e116100b8578063a22cb4651161007c578063a22cb4651461035e578063b88d4fde1461037a578063c87b56dd14610396578063d5391393146103c6578063d547741f146103e4578063e985e9c51461040057610137565b80636352211e1461029257806370a08231146102c257806391d14854146102f257806395d89b4114610322578063a217fddf1461034057610137565b806323b872dd116100ff57806323b872dd146101f2578063248a9ca31461020e5780632f2ff15d1461023e57806336568abe1461025a57806342842e0e1461027657610137565b806301ffc9a71461013c57806306fdde031461016c578063081812fc1461018a578063095ea7b3146101ba57806310badf4e146101d6575b600080fd5b610156600480360381019061015191906129be565b610430565b6040516101639190612fcb565b60405180910390f35b610174610442565b6040516101819190613046565b60405180910390f35b6101a4600480360381019061019f9190612a10565b6104d4565b6040516101b19190612f64565b60405180910390f35b6101d460048036038101906101cf91906128b1565b610559565b005b6101f060048036038101906101eb91906128ed565b610671565b005b61020c600480360381019061020791906127ab565b610717565b005b61022860048036038101906102239190612959565b610777565b6040516102359190612fe6565b60405180910390f35b61025860048036038101906102539190612982565b610797565b005b610274600480360381019061026f9190612982565b6107c0565b005b610290600480360381019061028b91906127ab565b610843565b005b6102ac60048036038101906102a79190612a10565b610863565b6040516102b99190612f64565b60405180910390f35b6102dc60048036038101906102d79190612746565b610915565b6040516102e99190613308565b60405180910390f35b61030c60048036038101906103079190612982565b6109cd565b6040516103199190612fcb565b60405180910390f35b61032a610a38565b6040516103379190613046565b60405180910390f35b610348610aca565b6040516103559190612fe6565b60405180910390f35b61037860048036038101906103739190612875565b610ad1565b005b610394600480360381019061038f91906127fa565b610ae7565b005b6103b060048036038101906103ab9190612a10565b610b49565b6040516103bd9190613046565b60405180910390f35b6103ce610bf0565b6040516103db9190612fe6565b60405180910390f35b6103fe60048036038101906103f99190612982565b610c14565b005b61041a6004803603810190610415919061276f565b610c3d565b6040516104279190612fcb565b60405180910390f35b600061043b82610cd1565b9050919050565b606060008054610451906135c8565b80601f016020809104026020016040519081016040528092919081815260200182805461047d906135c8565b80156104ca5780601f1061049f576101008083540402835291602001916104ca565b820191906000526020600020905b8154815290600101906020018083116104ad57829003601f168201915b5050505050905090565b60006104df82610d4b565b61051e576040517f08c379a000000000000000000000000000000000000000000000000000000000815260040161051590613268565b60405180910390fd5b6004600083815260200190815260200160002060009054906101000a900473ffffffffffffffffffffffffffffffffffffffff169050919050565b600061056482610863565b90508073ffffffffffffffffffffffffffffffffffffffff168373ffffffffffffffffffffffffffffffffffffffff1614156105d5576040517f08c379a00000000000000000000000000000000000000000000000000000000081526004016105cc906132a8565b60405180910390fd5b8073ffffffffffffffffffffffffffffffffffffffff166105f4610db7565b73ffffffffffffffffffffffffffffffffffffffff16148061062357506106228161061d610db7565b610c3d565b5b610662576040517f08c379a0000000000000000000000000000000000000000000000000000000008152600401610659906131c8565b60405180910390fd5b61066c8383610dbf565b505050565b6106c861067e8585610e78565b83838080601f016020809104026020016040519081016040528093929190818152602001838380828437600081840152601f19601f82011690508083019250505050505050610eb3565b610707576040517f08c379a00000000000000000000000000000000000000000000000000000000081526004016106fe90613168565b60405180910390fd5b6107118484610ef0565b50505050565b610728610722610db7565b82610f0e565b610767576040517f08c379a000000000000000000000000000000000000000000000000000000000815260040161075e906132c8565b60405180910390fd5b610772838383610fec565b505050565b600060066000838152602001908152602001600020600101549050919050565b6107a082610777565b6107b1816107ac610db7565b611253565b6107bb83836112f0565b505050565b6107c8610db7565b73ffffffffffffffffffffffffffffffffffffffff168173ffffffffffffffffffffffffffffffffffffffff1614610835576040517f08c379a000000000000000000000000000000000000000000000000000000000815260040161082c906132e8565b60405180910390fd5b61083f82826113d1565b5050565b61085e83838360405180602001604052806000815250610ae7565b505050565b6000806002600084815260200190815260200160002060009054906101000a900473ffffffffffffffffffffffffffffffffffffffff169050600073ffffffffffffffffffffffffffffffffffffffff168173ffffffffffffffffffffffffffffffffffffffff16141561090c576040517f08c379a000000000000000000000000000000000000000000000000000000000815260040161090390613208565b60405180910390fd5b80915050919050565b60008073ffffffffffffffffffffffffffffffffffffffff168273ffffffffffffffffffffffffffffffffffffffff161415610986576040517f08c379a000000000000000000000000000000000000000000000000000000000815260040161097d906131e8565b60405180910390fd5b600360008373ffffffffffffffffffffffffffffffffffffffff1673ffffffffffffffffffffffffffffffffffffffff168152602001908152602001600020549050919050565b60006006600084815260200190815260200160002060000160008373ffffffffffffffffffffffffffffffffffffffff1673ffffffffffffffffffffffffffffffffffffffff16815260200190815260200160002060009054906101000a900460ff16905092915050565b606060018054610a47906135c8565b80601f0160208091040260200160405190810160405280929190818152602001828054610a73906135c8565b8015610ac05780601f10610a9557610100808354040283529160200191610ac0565b820191906000526020600020905b815481529060010190602001808311610aa357829003601f168201915b5050505050905090565b6000801b81565b610ae3610adc610db7565b83836114b3565b5050565b610af8610af2610db7565b83610f0e565b610b37576040517f08c379a0000000000000000000000000000000000000000000000000000000008152600401610b2e906132c8565b60405180910390fd5b610b4384848484611620565b50505050565b6060610b5482610d4b565b610b93576040517f08c379a0000000000000000000000000000000000000000000000000000000008152600401610b8a90613288565b60405180910390fd5b6000610b9d61167c565b90506000815111610bbd5760405180602001604052806000815250610be8565b80610bc784611693565b604051602001610bd8929190612eb4565b6040516020818303038152906040525b915050919050565b7f9f2df0fed2c77648de5860a4cc508cd0818c85b8b8a1ab4ceeef8d981c8956a681565b610c1d82610777565b610c2e81610c29610db7565b611253565b610c3883836113d1565b505050565b6000600560008473ffffffffffffffffffffffffffffffffffffffff1673ffffffffffffffffffffffffffffffffffffffff16815260200190815260200160002060008373ffffffffffffffffffffffffffffffffffffffff1673ffffffffffffffffffffffffffffffffffffffff16815260200190815260200160002060009054906101000a900460ff16905092915050565b60007f7965db0b000000000000000000000000000000000000000000000000000000007bffffffffffffffffffffffffffffffffffffffffffffffffffffffff1916827bffffffffffffffffffffffffffffffffffffffffffffffffffffffff19161480610d445750610d4382611840565b5b9050919050565b60008073ffffffffffffffffffffffffffffffffffffffff166002600084815260200190815260200160002060009054906101000a900473ffffffffffffffffffffffffffffffffffffffff1673ffffffffffffffffffffffffffffffffffffffff1614159050919050565b600033905090565b816004600083815260200190815260200160002060006101000a81548173ffffffffffffffffffffffffffffffffffffffff021916908373ffffffffffffffffffffffffffffffffffffffff160217905550808273ffffffffffffffffffffffffffffffffffffffff16610e3283610863565b73ffffffffffffffffffffffffffffffffffffffff167f8c5be1e5ebec7d5bd14f71427d1e84f3dd0314c0f7b2291e5b200ac8c7c3b92560405160405180910390a45050565b6000610eab8284604051602001610e90929190612f38565b60405160208183030381529060405280519060200120611922565b905092915050565b6000610ee87f9f2df0fed2c77648de5860a4cc508cd0818c85b8b8a1ab4ceeef8d981c8956a6610ee38585611952565b6109cd565b905092915050565b610f0a828260405180602001604052806000815250611979565b5050565b6000610f1982610d4b565b610f58576040517f08c379a0000000000000000000000000000000000000000000000000000000008152600401610f4f906131a8565b60405180910390fd5b6000610f6383610863565b90508073ffffffffffffffffffffffffffffffffffffffff168473ffffffffffffffffffffffffffffffffffffffff161480610fd257508373ffffffffffffffffffffffffffffffffffffffff16610fba846104d4565b73ffffffffffffffffffffffffffffffffffffffff16145b80610fe35750610fe28185610c3d565b5b91505092915050565b8273ffffffffffffffffffffffffffffffffffffffff1661100c82610863565b73ffffffffffffffffffffffffffffffffffffffff1614611062576040517f08c379a0000000000000000000000000000000000000000000000000000000008152600401611059906130e8565b60405180910390fd5b600073ffffffffffffffffffffffffffffffffffffffff168273ffffffffffffffffffffffffffffffffffffffff1614156110d2576040517f08c379a00000000000000000000000000000000000000000000000000000000081526004016110c990613128565b60405180910390fd5b6110dd8383836119d4565b6110e8600082610dbf565b6001600360008573ffffffffffffffffffffffffffffffffffffffff1673ffffffffffffffffffffffffffffffffffffffff1681526020019081526020016000206000828254611138919061349d565b925050819055506001600360008473ffffffffffffffffffffffffffffffffffffffff1673ffffffffffffffffffffffffffffffffffffffff168152602001908152602001600020600082825461118f91906133bc565b92505081905550816002600083815260200190815260200160002060006101000a81548173ffffffffffffffffffffffffffffffffffffffff021916908373ffffffffffffffffffffffffffffffffffffffff160217905550808273ffffffffffffffffffffffffffffffffffffffff168473ffffffffffffffffffffffffffffffffffffffff167fddf252ad1be2c89b69c2b068fc378daa952ba7f163c4a11628f55a4df523b3ef60405160405180910390a461124e8383836119d9565b505050565b61125d82826109cd565b6112ec576112828173ffffffffffffffffffffffffffffffffffffffff1660146119de565b6112908360001c60206119de565b6040516020016112a1929190612efe565b6040516020818303038152906040526040517f08c379a00000000000000000000000000000000000000000000000000000000081526004016112e39190613046565b60405180910390fd5b5050565b6112fa82826109cd565b6113cd5760016006600084815260200190815260200160002060000160008373ffffffffffffffffffffffffffffffffffffffff1673ffffffffffffffffffffffffffffffffffffffff16815260200190815260200160002060006101000a81548160ff021916908315150217905550611372610db7565b73ffffffffffffffffffffffffffffffffffffffff168173ffffffffffffffffffffffffffffffffffffffff16837f2f8788117e7eff1d82e926ec794901d17c78024a50270940304540a733656f0d60405160405180910390a45b5050565b6113db82826109cd565b156114af5760006006600084815260200190815260200160002060000160008373ffffffffffffffffffffffffffffffffffffffff1673ffffffffffffffffffffffffffffffffffffffff16815260200190815260200160002060006101000a81548160ff021916908315150217905550611454610db7565b73ffffffffffffffffffffffffffffffffffffffff168173ffffffffffffffffffffffffffffffffffffffff16837ff6391f5c32d9c69d2a47ea670b442974b53935d1edc7fd64eb21e047a839171b60405160405180910390a45b5050565b8173ffffffffffffffffffffffffffffffffffffffff168373ffffffffffffffffffffffffffffffffffffffff161415611522576040517f08c379a000000000000000000000000000000000000000000000000000000000815260040161151990613148565b60405180910390fd5b80600560008573ffffffffffffffffffffffffffffffffffffffff1673ffffffffffffffffffffffffffffffffffffffff16815260200190815260200160002060008473ffffffffffffffffffffffffffffffffffffffff1673ffffffffffffffffffffffffffffffffffffffff16815260200190815260200160002060006101000a81548160ff0219169083151502179055508173ffffffffffffffffffffffffffffffffffffffff168373ffffffffffffffffffffffffffffffffffffffff167f17307eab39ab6107e8899845ad3d59bd9653f200f220920489ca2b5937696c31836040516116139190612fcb565b60405180910390a3505050565b61162b848484610fec565b61163784848484611cd8565b611676576040517f08c379a000000000000000000000000000000000000000000000000000000000815260040161166d906130c8565b60405180910390fd5b50505050565b606060405180602001604052806000815250905090565b606060008214156116db576040518060400160405280600181526020017f3000000000000000000000000000000000000000000000000000000000000000815250905061183b565b600082905060005b6000821461170d5780806116f69061362b565b915050600a826117069190613412565b91506116e3565b60008167ffffffffffffffff81111561174f577f4e487b7100000000000000000000000000000000000000000000000000000000600052604160045260246000fd5b6040519080825280601f01601f1916602001820160405280156117815781602001600182028036833780820191505090505b5090505b600085146118345760018261179a919061349d565b9150600a856117a991906136ac565b60306117b591906133bc565b60f81b8183815181106117f1577f4e487b7100000000000000000000000000000000000000000000000000000000600052603260045260246000fd5b60200101907effffffffffffffffffffffffffffffffffffffffffffffffffffffffffffff1916908160001a905350600a8561182d9190613412565b9450611785565b8093505050505b919050565b60007f80ac58cd000000000000000000000000000000000000000000000000000000007bffffffffffffffffffffffffffffffffffffffffffffffffffffffff1916827bffffffffffffffffffffffffffffffffffffffffffffffffffffffff1916148061190b57507f5b5e139f000000000000000000000000000000000000000000000000000000007bffffffffffffffffffffffffffffffffffffffffffffffffffffffff1916827bffffffffffffffffffffffffffffffffffffffffffffffffffffffff1916145b8061191b575061191a82611e6f565b5b9050919050565b6000816040516020016119359190612ed8565b604051602081830303815290604052805190602001209050919050565b60008060006119618585611ed9565b9150915061196e81611f5c565b819250505092915050565b61198383836122ad565b6119906000848484611cd8565b6119cf576040517f08c379a00000000000000000000000000000000000000000000000000000000081526004016119c6906130c8565b60405180910390fd5b505050565b505050565b505050565b6060600060028360026119f19190613443565b6119fb91906133bc565b67ffffffffffffffff811115611a3a577f4e487b7100000000000000000000000000000000000000000000000000000000600052604160045260246000fd5b6040519080825280601f01601f191660200182016040528015611a6c5781602001600182028036833780820191505090505b5090507f300000000000000000000000000000000000000000000000000000000000000081600081518110611aca577f4e487b7100000000000000000000000000000000000000000000000000000000600052603260045260246000fd5b60200101907effffffffffffffffffffffffffffffffffffffffffffffffffffffffffffff1916908160001a9053507f780000000000000000000000000000000000000000000000000000000000000081600181518110611b54577f4e487b7100000000000000000000000000000000000000000000000000000000600052603260045260246000fd5b60200101907effffffffffffffffffffffffffffffffffffffffffffffffffffffffffffff1916908160001a90535060006001846002611b949190613443565b611b9e91906133bc565b90505b6001811115611c8a577f3031323334353637383961626364656600000000000000000000000000000000600f861660108110611c06577f4e487b7100000000000000000000000000000000000000000000000000000000600052603260045260246000fd5b1a60f81b828281518110611c43577f4e487b7100000000000000000000000000000000000000000000000000000000600052603260045260246000fd5b60200101907effffffffffffffffffffffffffffffffffffffffffffffffffffffffffffff1916908160001a905350600485901c945080611c839061359e565b9050611ba1565b5060008414611cce576040517f08c379a0000000000000000000000000000000000000000000000000000000008152600401611cc590613088565b60405180910390fd5b8091505092915050565b6000611cf98473ffffffffffffffffffffffffffffffffffffffff16612487565b15611e62578373ffffffffffffffffffffffffffffffffffffffff1663150b7a02611d22610db7565b8786866040518563ffffffff1660e01b8152600401611d449493929190612f7f565b602060405180830381600087803b158015611d5e57600080fd5b505af1925050508015611d8f57506040513d601f19601f82011682018060405250810190611d8c91906129e7565b60015b611e12573d8060008114611dbf576040519150601f19603f3d011682016040523d82523d6000602084013e611dc4565b606091505b50600081511415611e0a576040517f08c379a0000000000000000000000000000000000000000000000000000000008152600401611e01906130c8565b60405180910390fd5b805181602001fd5b63150b7a0260e01b7bffffffffffffffffffffffffffffffffffffffffffffffffffffffff1916817bffffffffffffffffffffffffffffffffffffffffffffffffffffffff191614915050611e67565b600190505b949350505050565b60007f01ffc9a7000000000000000000000000000000000000000000000000000000007bffffffffffffffffffffffffffffffffffffffffffffffffffffffff1916827bffffffffffffffffffffffffffffffffffffffffffffffffffffffff1916149050919050565b600080604183511415611f1b5760008060006020860151925060408601519150606086015160001a9050611f0f878285856124aa565b94509450505050611f55565b604083511415611f4c576000806020850151915060408501519050611f418683836125b7565b935093505050611f55565b60006002915091505b9250929050565b60006004811115611f96577f4e487b7100000000000000000000000000000000000000000000000000000000600052602160045260246000fd5b816004811115611fcf577f4e487b7100000000000000000000000000000000000000000000000000000000600052602160045260246000fd5b1415611fda576122aa565b60016004811115612014577f4e487b7100000000000000000000000000000000000000000000000000000000600052602160045260246000fd5b81600481111561204d577f4e487b7100000000000000000000000000000000000000000000000000000000600052602160045260246000fd5b141561208e576040517f08c379a000000000000000000000000000000000000000000000000000000000815260040161208590613068565b60405180910390fd5b600260048111156120c8577f4e487b7100000000000000000000000000000000000000000000000000000000600052602160045260246000fd5b816004811115612101577f4e487b7100000000000000000000000000000000000000000000000000000000600052602160045260246000fd5b1415612142576040517f08c379a0000000000000000000000000000000000000000000000000000000008152600401612139906130a8565b60405180910390fd5b6003600481111561217c577f4e487b7100000000000000000000000000000000000000000000000000000000600052602160045260246000fd5b8160048111156121b5577f4e487b7100000000000000000000000000000000000000000000000000000000600052602160045260246000fd5b14156121f6576040517f08c379a00000000000000000000000000000000000000000000000000000000081526004016121ed90613188565b60405180910390fd5b60048081111561222f577f4e487b7100000000000000000000000000000000000000000000000000000000600052602160045260246000fd5b816004811115612268577f4e487b7100000000000000000000000000000000000000000000000000000000600052602160045260246000fd5b14156122a9576040517f08c379a00000000000000000000000000000000000000000000000000000000081526004016122a090613228565b60405180910390fd5b5b50565b600073ffffffffffffffffffffffffffffffffffffffff168273ffffffffffffffffffffffffffffffffffffffff16141561231d576040517f08c379a000000000000000000000000000000000000000000000000000000000815260040161231490613248565b60405180910390fd5b61232681610d4b565b15612366576040517f08c379a000000000000000000000000000000000000000000000000000000000815260040161235d90613108565b60405180910390fd5b612372600083836119d4565b6001600360008473ffffffffffffffffffffffffffffffffffffffff1673ffffffffffffffffffffffffffffffffffffffff16815260200190815260200160002060008282546123c291906133bc565b92505081905550816002600083815260200190815260200160002060006101000a81548173ffffffffffffffffffffffffffffffffffffffff021916908373ffffffffffffffffffffffffffffffffffffffff160217905550808273ffffffffffffffffffffffffffffffffffffffff16600073ffffffffffffffffffffffffffffffffffffffff167fddf252ad1be2c89b69c2b068fc378daa952ba7f163c4a11628f55a4df523b3ef60405160405180910390a4612483600083836119d9565b5050565b6000808273ffffffffffffffffffffffffffffffffffffffff163b119050919050565b6000807f7fffffffffffffffffffffffffffffff5d576e7357a4501ddfe92f46681b20a08360001c11156124e55760006003915091506125ae565b601b8560ff16141580156124fd5750601c8560ff1614155b1561250f5760006004915091506125ae565b6000600187878787604051600081526020016040526040516125349493929190613001565b6020604051602081039080840390855afa158015612556573d6000803e3d6000fd5b505050602060405103519050600073ffffffffffffffffffffffffffffffffffffffff168173ffffffffffffffffffffffffffffffffffffffff1614156125a5576000600192509250506125ae565b80600092509250505b94509492505050565b60008060007f7fffffffffffffffffffffffffffffffffffffffffffffffffffffffffffffff60001b841690506000601b60ff8660001c901c6125fa91906133bc565b9050612608878288856124aa565b935093505050935093915050565b600061262961262484613348565b613323565b90508281526020810184848401111561264157600080fd5b61264c84828561355c565b509392505050565b60008135905061266381613da3565b92915050565b60008135905061267881613dba565b92915050565b60008135905061268d81613dd1565b92915050565b6000813590506126a281613de8565b92915050565b6000815190506126b781613de8565b92915050565b60008083601f8401126126cf57600080fd5b8235905067ffffffffffffffff8111156126e857600080fd5b60208301915083600182028301111561270057600080fd5b9250929050565b600082601f83011261271857600080fd5b8135612728848260208601612616565b91505092915050565b60008135905061274081613dff565b92915050565b60006020828403121561275857600080fd5b600061276684828501612654565b91505092915050565b6000806040838503121561278257600080fd5b600061279085828601612654565b92505060206127a185828601612654565b9150509250929050565b6000806000606084860312156127c057600080fd5b60006127ce86828701612654565b93505060206127df86828701612654565b92505060406127f086828701612731565b9150509250925092565b6000806000806080858703121561281057600080fd5b600061281e87828801612654565b945050602061282f87828801612654565b935050604061284087828801612731565b925050606085013567ffffffffffffffff81111561285d57600080fd5b61286987828801612707565b91505092959194509250565b6000806040838503121561288857600080fd5b600061289685828601612654565b92505060206128a785828601612669565b9150509250929050565b600080604083850312156128c457600080fd5b60006128d285828601612654565b92505060206128e385828601612731565b9150509250929050565b6000806000806060858703121561290357600080fd5b600061291187828801612654565b945050602061292287828801612731565b935050604085013567ffffffffffffffff81111561293f57600080fd5b61294b878288016126bd565b925092505092959194509250565b60006020828403121561296b57600080fd5b60006129798482850161267e565b91505092915050565b6000806040838503121561299557600080fd5b60006129a38582860161267e565b92505060206129b485828601612654565b9150509250929050565b6000602082840312156129d057600080fd5b60006129de84828501612693565b91505092915050565b6000602082840312156129f957600080fd5b6000612a07848285016126a8565b91505092915050565b600060208284031215612a2257600080fd5b6000612a3084828501612731565b91505092915050565b612a42816134d1565b82525050565b612a59612a54826134d1565b613674565b82525050565b612a68816134e3565b82525050565b612a77816134ef565b82525050565b612a8e612a89826134ef565b613686565b82525050565b6000612a9f82613379565b612aa9818561338f565b9350612ab981856020860161356b565b612ac281613799565b840191505092915050565b6000612ad882613384565b612ae281856133a0565b9350612af281856020860161356b565b612afb81613799565b840191505092915050565b6000612b1182613384565b612b1b81856133b1565b9350612b2b81856020860161356b565b80840191505092915050565b6000612b446018836133a0565b9150612b4f826137b7565b602082019050919050565b6000612b676020836133a0565b9150612b72826137e0565b602082019050919050565b6000612b8a601f836133a0565b9150612b9582613809565b602082019050919050565b6000612bad601c836133b1565b9150612bb882613832565b601c82019050919050565b6000612bd06032836133a0565b9150612bdb8261385b565b604082019050919050565b6000612bf36025836133a0565b9150612bfe826138aa565b604082019050919050565b6000612c16601c836133a0565b9150612c21826138f9565b602082019050919050565b6000612c396024836133a0565b9150612c4482613922565b604082019050919050565b6000612c5c6019836133a0565b9150612c6782613971565b602082019050919050565b6000612c7f6011836133a0565b9150612c8a8261399a565b602082019050919050565b6000612ca26022836133a0565b9150612cad826139c3565b604082019050919050565b6000612cc5602c836133a0565b9150612cd082613a12565b604082019050919050565b6000612ce86038836133a0565b9150612cf382613a61565b604082019050919050565b6000612d0b602a836133a0565b9150612d1682613ab0565b604082019050919050565b6000612d2e6029836133a0565b9150612d3982613aff565b604082019050919050565b6000612d516022836133a0565b9150612d5c82613b4e565b604082019050919050565b6000612d746020836133a0565b9150612d7f82613b9d565b602082019050919050565b6000612d97602c836133a0565b9150612da282613bc6565b604082019050919050565b6000612dba602f836133a0565b9150612dc582613c15565b604082019050919050565b6000612ddd6021836133a0565b9150612de882613c64565b604082019050919050565b6000612e006031836133a0565b9150612e0b82613cb3565b604082019050919050565b6000612e236017836133b1565b9150612e2e82613d02565b601782019050919050565b6000612e466011836133b1565b9150612e5182613d2b565b601182019050919050565b6000612e69602f836133a0565b9150612e7482613d54565b604082019050919050565b612e8881613545565b82525050565b612e9f612e9a82613545565b6136a2565b82525050565b612eae8161354f565b82525050565b6000612ec08285612b06565b9150612ecc8284612b06565b91508190509392505050565b6000612ee382612ba0565b9150612eef8284612a7d565b60208201915081905092915050565b6000612f0982612e16565b9150612f158285612b06565b9150612f2082612e39565b9150612f2c8284612b06565b91508190509392505050565b6000612f448285612e8e565b602082019150612f548284612a48565b6014820191508190509392505050565b6000602082019050612f796000830184612a39565b92915050565b6000608082019050612f946000830187612a39565b612fa16020830186612a39565b612fae6040830185612e7f565b8181036060830152612fc08184612a94565b905095945050505050565b6000602082019050612fe06000830184612a5f565b92915050565b6000602082019050612ffb6000830184612a6e565b92915050565b60006080820190506130166000830187612a6e565b6130236020830186612ea5565b6130306040830185612a6e565b61303d6060830184612a6e565b95945050505050565b600060208201905081810360008301526130608184612acd565b905092915050565b6000602082019050818103600083015261308181612b37565b9050919050565b600060208201905081810360008301526130a181612b5a565b9050919050565b600060208201905081810360008301526130c181612b7d565b9050919050565b600060208201905081810360008301526130e181612bc3565b9050919050565b6000602082019050818103600083015261310181612be6565b9050919050565b6000602082019050818103600083015261312181612c09565b9050919050565b6000602082019050818103600083015261314181612c2c565b9050919050565b6000602082019050818103600083015261316181612c4f565b9050919050565b6000602082019050818103600083015261318181612c72565b9050919050565b600060208201905081810360008301526131a181612c95565b9050919050565b600060208201905081810360008301526131c181612cb8565b9050919050565b600060208201905081810360008301526131e181612cdb565b9050919050565b6000602082019050818103600083015261320181612cfe565b9050919050565b6000602082019050818103600083015261322181612d21565b9050919050565b6000602082019050818103600083015261324181612d44565b9050919050565b6000602082019050818103600083015261326181612d67565b9050919050565b6000602082019050818103600083015261328181612d8a565b9050919050565b600060208201905081810360008301526132a181612dad565b9050919050565b600060208201905081810360008301526132c181612dd0565b9050919050565b600060208201905081810360008301526132e181612df3565b9050919050565b6000602082019050818103600083015261330181612e5c565b9050919050565b600060208201905061331d6000830184612e7f565b92915050565b600061332d61333e565b905061333982826135fa565b919050565b6000604051905090565b600067ffffffffffffffff8211156133635761336261376a565b5b61336c82613799565b9050602081019050919050565b600081519050919050565b600081519050919050565b600082825260208201905092915050565b600082825260208201905092915050565b600081905092915050565b60006133c782613545565b91506133d283613545565b9250827fffffffffffffffffffffffffffffffffffffffffffffffffffffffffffffffff03821115613407576134066136dd565b5b828201905092915050565b600061341d82613545565b915061342883613545565b9250826134385761343761370c565b5b828204905092915050565b600061344e82613545565b915061345983613545565b9250817fffffffffffffffffffffffffffffffffffffffffffffffffffffffffffffffff0483118215151615613492576134916136dd565b5b828202905092915050565b60006134a882613545565b91506134b383613545565b9250828210156134c6576134c56136dd565b5b828203905092915050565b60006134dc82613525565b9050919050565b60008115159050919050565b6000819050919050565b60007fffffffff0000000000000000000000000000000000000000000000000000000082169050919050565b600073ffffffffffffffffffffffffffffffffffffffff82169050919050565b6000819050919050565b600060ff82169050919050565b82818337600083830152505050565b60005b8381101561358957808201518184015260208101905061356e565b83811115613598576000848401525b50505050565b60006135a982613545565b915060008214156135bd576135bc6136dd565b5b600182039050919050565b600060028204905060018216806135e057607f821691505b602082108114156135f4576135f361373b565b5b50919050565b61360382613799565b810181811067ffffffffffffffff821117156136225761362161376a565b5b80604052505050565b600061363682613545565b91507fffffffffffffffffffffffffffffffffffffffffffffffffffffffffffffffff821415613669576136686136dd565b5b600182019050919050565b600061367f82613690565b9050919050565b6000819050919050565b600061369b826137aa565b9050919050565b6000819050919050565b60006136b782613545565b91506136c283613545565b9250826136d2576136d161370c565b5b828206905092915050565b7f4e487b7100000000000000000000000000000000000000000000000000000000600052601160045260246000fd5b7f4e487b7100000000000000000000000000000000000000000000000000000000600052601260045260246000fd5b7f4e487b7100000000000000000000000000000000000000000000000000000000600052602260045260246000fd5b7f4e487b7100000000000000000000000000000000000000000000000000000000600052604160045260246000fd5b6000601f19601f8301169050919050565b60008160601b9050919050565b7f45434453413a20696e76616c6964207369676e61747572650000000000000000600082015250565b7f537472696e67733a20686578206c656e67746820696e73756666696369656e74600082015250565b7f45434453413a20696e76616c6964207369676e6174757265206c656e67746800600082015250565b7f19457468657265756d205369676e6564204d6573736167653a0a333200000000600082015250565b7f4552433732313a207472616e7366657220746f206e6f6e20455243373231526560008201527f63656976657220696d706c656d656e7465720000000000000000000000000000602082015250565b7f4552433732313a207472616e736665722066726f6d20696e636f72726563742060008201527f6f776e6572000000000000000000000000000000000000000000000000000000602082015250565b7f4552433732313a20746f6b656e20616c7265616479206d696e74656400000000600082015250565b7f4552433732313a207472616e7366657220746f20746865207a65726f2061646460008201527f7265737300000000000000000000000000000000000000000000000000000000602082015250565b7f4552433732313a20617070726f766520746f2063616c6c657200000000000000600082015250565b7f496e76616c6964207369676e6174757265000000000000000000000000000000600082015250565b7f45434453413a20696e76616c6964207369676e6174757265202773272076616c60008201527f7565000000000000000000000000000000000000000000000000000000000000602082015250565b7f4552433732313a206f70657261746f7220717565727920666f72206e6f6e657860008201527f697374656e7420746f6b656e0000000000000000000000000000000000000000602082015250565b7f4552433732313a20617070726f76652063616c6c6572206973206e6f74206f7760008201527f6e6572206e6f7220617070726f76656420666f7220616c6c0000000000000000602082015250565b7f4552433732313a2062616c616e636520717565727920666f7220746865207a6560008201527f726f206164647265737300000000000000000000000000000000000000000000602082015250565b7f4552433732313a206f776e657220717565727920666f72206e6f6e657869737460008201527f656e7420746f6b656e0000000000000000000000000000000000000000000000602082015250565b7f45434453413a20696e76616c6964207369676e6174757265202776272076616c60008201527f7565000000000000000000000000000000000000000000000000000000000000602082015250565b7f4552433732313a206d696e7420746f20746865207a65726f2061646472657373600082015250565b7f4552433732313a20617070726f76656420717565727920666f72206e6f6e657860008201527f697374656e7420746f6b656e0000000000000000000000000000000000000000602082015250565b7f4552433732314d657461646174613a2055524920717565727920666f72206e6f60008201527f6e6578697374656e7420746f6b656e0000000000000000000000000000000000602082015250565b7f4552433732313a20617070726f76616c20746f2063757272656e74206f776e6560008201527f7200000000000000000000000000000000000000000000000000000000000000602082015250565b7f4552433732313a207472616e736665722063616c6c6572206973206e6f74206f60008201527f776e6572206e6f7220617070726f766564000000000000000000000000000000602082015250565b7f416363657373436f6e74726f6c3a206163636f756e7420000000000000000000600082015250565b7f206973206d697373696e6720726f6c6520000000000000000000000000000000600082015250565b7f416363657373436f6e74726f6c3a2063616e206f6e6c792072656e6f756e636560008201527f20726f6c657320666f722073656c660000000000000000000000000000000000602082015250565b613dac816134d1565b8114613db757600080fd5b50565b613dc3816134e3565b8114613dce57600080fd5b50565b613dda816134ef565b8114613de557600080fd5b50565b613df1816134f9565b8114613dfc57600080fd5b50565b613e0881613545565b8114613e1357600080fd5b5056fea264697066735822122006ea5856d9234c4b4c9d1c95092170e1a96c09bafb89e6d35e716611295b2b7b64736f6c63430008040033",
  "linkReferences": {},
  "deployedLinkReferences": {}
}