{
  "_format": "hh-sol-artifact-1",
  "contractName": "ERC721LazyMintWith712",
  "sourceName": "contracts/ERC721LazyMintWith712.sol",
  "abi": [
    {
      "inputs": [
        {
          "internalType": "string",
          "name": "name",
          "type": "string"
        },
        {
          "internalType": "string",
          "name": "symbol",
          "type": "string"
        }
      ],
      "stateMutability": "nonpayable",
      "type": "constructor"
    },
    {
      "anonymous": false,
      "inputs": [
        {
          "indexed": true,
          "internalType": "address",
          "name": "owner",
          "type": "address"
        },
        {
          "indexed": true,
          "internalType": "address",
          "name": "approved",
          "type": "address"
        },
        {
          "indexed": true,
          "internalType": "uint256",
          "name": "tokenId",
          "type": "uint256"
        }
      ],
      "name": "Approval",
      "type": "event"
    },
    {
      "anonymous": false,
      "inputs": [
        {
          "indexed": true,
          "internalType": "address",
          "name": "owner",
          "type": "address"
        },
        {
          "indexed": true,
          "internalType": "address",
          "name": "operator",
          "type": "address"
        },
        {
          "indexed": false,
          "internalType": "bool",
          "name": "approved",
          "type": "bool"
        }
      ],
      "name": "ApprovalForAll",
      "type": "event"
    },
    {
      "anonymous": false,
      "inputs": [
        {
          "indexed": true,
          "internalType": "bytes32",
          "name": "role",
          "type": "bytes32"
        },
        {
          "indexed": true,
          "internalType": "bytes32",
          "name": "previousAdminRole",
          "type": "bytes32"
        },
        {
          "indexed": true,
          "internalType": "bytes32",
          "name": "newAdminRole",
          "type": "bytes32"
        }
      ],
      "name": "RoleAdminChanged",
      "type": "event"
    },
    {
      "anonymous": false,
      "inputs": [
        {
          "indexed": true,
          "internalType": "bytes32",
          "name": "role",
          "type": "bytes32"
        },
        {
          "indexed": true,
          "internalType": "address",
          "name": "account",
          "type": "address"
        },
        {
          "indexed": true,
          "internalType": "address",
          "name": "sender",
          "type": "address"
        }
      ],
      "name": "RoleGranted",
      "type": "event"
    },
    {
      "anonymous": false,
      "inputs": [
        {
          "indexed": true,
          "internalType": "bytes32",
          "name": "role",
          "type": "bytes32"
        },
        {
          "indexed": true,
          "internalType": "address",
          "name": "account",
          "type": "address"
        },
        {
          "indexed": true,
          "internalType": "address",
          "name": "sender",
          "type": "address"
        }
      ],
      "name": "RoleRevoked",
      "type": "event"
    },
    {
      "anonymous": false,
      "inputs": [
        {
          "indexed": true,
          "internalType": "address",
          "name": "from",
          "type": "address"
        },
        {
          "indexed": true,
          "internalType": "address",
          "name": "to",
          "type": "address"
        },
        {
          "indexed": true,
          "internalType": "uint256",
          "name": "tokenId",
          "type": "uint256"
        }
      ],
      "name": "Transfer",
      "type": "event"
    },
    {
      "inputs": [],
      "name": "DEFAULT_ADMIN_ROLE",
      "outputs": [
        {
          "internalType": "bytes32",
          "name": "",
          "type": "bytes32"
        }
      ],
      "stateMutability": "view",
      "type": "function"
    },
    {
      "inputs": [],
      "name": "MINTER_ROLE",
      "outputs": [
        {
          "internalType": "bytes32",
          "name": "",
          "type": "bytes32"
        }
      ],
      "stateMutability": "view",
      "type": "function"
    },
    {
      "inputs": [
        {
          "internalType": "address",
          "name": "to",
          "type": "address"
        },
        {
          "internalType": "uint256",
          "name": "tokenId",
          "type": "uint256"
        }
      ],
      "name": "approve",
      "outputs": [],
      "stateMutability": "nonpayable",
      "type": "function"
    },
    {
      "inputs": [
        {
          "internalType": "address",
          "name": "owner",
          "type": "address"
        }
      ],
      "name": "balanceOf",
      "outputs": [
        {
          "internalType": "uint256",
          "name": "",
          "type": "uint256"
        }
      ],
      "stateMutability": "view",
      "type": "function"
    },
    {
      "inputs": [
        {
          "internalType": "uint256",
          "name": "tokenId",
          "type": "uint256"
        }
      ],
      "name": "getApproved",
      "outputs": [
        {
          "internalType": "address",
          "name": "",
          "type": "address"
        }
      ],
      "stateMutability": "view",
      "type": "function"
    },
    {
      "inputs": [
        {
          "internalType": "bytes32",
          "name": "role",
          "type": "bytes32"
        }
      ],
      "name": "getRoleAdmin",
      "outputs": [
        {
          "internalType": "bytes32",
          "name": "",
          "type": "bytes32"
        }
      ],
      "stateMutability": "view",
      "type": "function"
    },
    {
      "inputs": [
        {
          "internalType": "bytes32",
          "name": "role",
          "type": "bytes32"
        },
        {
          "internalType": "address",
          "name": "account",
          "type": "address"
        }
      ],
      "name": "grantRole",
      "outputs": [],
      "stateMutability": "nonpayable",
      "type": "function"
    },
    {
      "inputs": [
        {
          "internalType": "bytes32",
          "name": "role",
          "type": "bytes32"
        },
        {
          "internalType": "address",
          "name": "account",
          "type": "address"
        }
      ],
      "name": "hasRole",
      "outputs": [
        {
          "internalType": "bool",
          "name": "",
          "type": "bool"
        }
      ],
      "stateMutability": "view",
      "type": "function"
    },
    {
      "inputs": [
        {
          "internalType": "address",
          "name": "owner",
          "type": "address"
        },
        {
          "internalType": "address",
          "name": "operator",
          "type": "address"
        }
      ],
      "name": "isApprovedForAll",
      "outputs": [
        {
          "internalType": "bool",
          "name": "",
          "type": "bool"
        }
      ],
      "stateMutability": "view",
      "type": "function"
    },
    {
      "inputs": [],
      "name": "name",
      "outputs": [
        {
          "internalType": "string",
          "name": "",
          "type": "string"
        }
      ],
      "stateMutability": "view",
      "type": "function"
    },
    {
      "inputs": [
        {
          "internalType": "uint256",
          "name": "tokenId",
          "type": "uint256"
        }
      ],
      "name": "ownerOf",
      "outputs": [
        {
          "internalType": "address",
          "name": "",
          "type": "address"
        }
      ],
      "stateMutability": "view",
      "type": "function"
    },
    {
      "inputs": [
        {
          "internalType": "address",
          "name": "account",
          "type": "address"
        },
        {
          "internalType": "uint256",
          "name": "tokenId",
          "type": "uint256"
        },
        {
          "internalType": "bytes",
          "name": "signature",
          "type": "bytes"
        }
      ],
      "name": "redeem",
      "outputs": [],
      "stateMutability": "nonpayable",
      "type": "function"
    },
    {
      "inputs": [
        {
          "internalType": "bytes32",
          "name": "role",
          "type": "bytes32"
        },
        {
          "internalType": "address",
          "name": "account",
          "type": "address"
        }
      ],
      "name": "renounceRole",
      "outputs": [],
      "stateMutability": "nonpayable",
      "type": "function"
    },
    {
      "inputs": [
        {
          "internalType": "bytes32",
          "name": "role",
          "type": "bytes32"
        },
        {
          "internalType": "address",
          "name": "account",
          "type": "address"
        }
      ],
      "name": "revokeRole",
      "outputs": [],
      "stateMutability": "nonpayable",
      "type": "function"
    },
    {
      "inputs": [
        {
          "internalType": "address",
          "name": "from",
          "type": "address"
        },
        {
          "internalType": "address",
          "name": "to",
          "type": "address"
        },
        {
          "internalType": "uint256",
          "name": "tokenId",
          "type": "uint256"
        }
      ],
      "name": "safeTransferFrom",
      "outputs": [],
      "stateMutability": "nonpayable",
      "type": "function"
    },
    {
      "inputs": [
        {
          "internalType": "address",
          "name": "from",
          "type": "address"
        },
        {
          "internalType": "address",
          "name": "to",
          "type": "address"
        },
        {
          "internalType": "uint256",
          "name": "tokenId",
          "type": "uint256"
        },
        {
          "internalType": "bytes",
          "name": "_data",
          "type": "bytes"
        }
      ],
      "name": "safeTransferFrom",
      "outputs": [],
      "stateMutability": "nonpayable",
      "type": "function"
    },
    {
      "inputs": [
        {
          "internalType": "address",
          "name": "operator",
          "type": "address"
        },
        {
          "internalType": "bool",
          "name": "approved",
          "type": "bool"
        }
      ],
      "name": "setApprovalForAll",
      "outputs": [],
      "stateMutability": "nonpayable",
      "type": "function"
    },
    {
      "inputs": [
        {
          "internalType": "bytes4",
          "name": "interfaceId",
          "type": "bytes4"
        }
      ],
      "name": "supportsInterface",
      "outputs": [
        {
          "internalType": "bool",
          "name": "",
          "type": "bool"
        }
      ],
      "stateMutability": "view",
      "type": "function"
    },
    {
      "inputs": [],
      "name": "symbol",
      "outputs": [
        {
          "internalType": "string",
          "name": "",
          "type": "string"
        }
      ],
      "stateMutability": "view",
      "type": "function"
    },
    {
      "inputs": [
        {
          "internalType": "uint256",
          "name": "tokenId",
          "type": "uint256"
        }
      ],
      "name": "tokenURI",
      "outputs": [
        {
          "internalType": "string",
          "name": "",
          "type": "string"
        }
      ],
      "stateMutability": "view",
      "type": "function"
    },
    {
      "inputs": [
        {
          "internalType": "address",
          "name": "from",
          "type": "address"
        },
        {
          "internalType": "address",
          "name": "to",
          "type": "address"
        },
        {
          "internalType": "uint256",
          "name": "tokenId",
          "type": "uint256"
        }
      ],
      "name": "transferFrom",
      "outputs": [],
      "stateMutability": "nonpayable",
      "type": "function"
    }
  ],
  "bytecode": "0x6101406040523480156200001257600080fd5b50604051620047523803806200475283398181016040528101906200003891906200045f565b816040518060400160405280600581526020017f312e302e3000000000000000000000000000000000000000000000000000000081525083838160009080519060200190620000899291906200033d565b508060019080519060200190620000a29291906200033d565b50505060008280519060200120905060008280519060200120905060007f8b73c3c69bb8fe3d512ecc4cf759cc79239f7b179b0ffacaa9a75d522b39400f90508260e081815250508161010081815250504660a081815250506200010e8184846200018660201b60201c565b608081815250503073ffffffffffffffffffffffffffffffffffffffff1660c08173ffffffffffffffffffffffffffffffffffffffff1660601b8152505080610120818152505050505050506200017e6000801b62000172620001c260201b60201c565b620001ca60201b60201c565b50506200071a565b60008383834630604051602001620001a395949392919062000505565b6040516020818303038152906040528051906020012090509392505050565b600033905090565b620001dc8282620001e060201b60201c565b5050565b620001f28282620002d260201b60201c565b620002ce5760016006600084815260200190815260200160002060000160008373ffffffffffffffffffffffffffffffffffffffff1673ffffffffffffffffffffffffffffffffffffffff16815260200190815260200160002060006101000a81548160ff02191690831515021790555062000273620001c260201b60201c565b73ffffffffffffffffffffffffffffffffffffffff168173ffffffffffffffffffffffffffffffffffffffff16837f2f8788117e7eff1d82e926ec794901d17c78024a50270940304540a733656f0d60405160405180910390a45b5050565b60006006600084815260200190815260200160002060000160008373ffffffffffffffffffffffffffffffffffffffff1673ffffffffffffffffffffffffffffffffffffffff16815260200190815260200160002060009054906101000a900460ff16905092915050565b8280546200034b906200063f565b90600052602060002090601f0160209004810192826200036f5760008555620003bb565b82601f106200038a57805160ff1916838001178555620003bb565b82800160010185558215620003bb579182015b82811115620003ba5782518255916020019190600101906200039d565b5b509050620003ca9190620003ce565b5090565b5b80821115620003e9576000816000905550600101620003cf565b5090565b600062000404620003fe846200058b565b62000562565b9050828152602081018484840111156200041d57600080fd5b6200042a84828562000609565b509392505050565b600082601f8301126200044457600080fd5b815162000456848260208601620003ed565b91505092915050565b600080604083850312156200047357600080fd5b600083015167ffffffffffffffff8111156200048e57600080fd5b6200049c8582860162000432565b925050602083015167ffffffffffffffff811115620004ba57600080fd5b620004c88582860162000432565b9150509250929050565b620004dd81620005c1565b82525050565b620004ee81620005d5565b82525050565b620004ff81620005ff565b82525050565b600060a0820190506200051c6000830188620004e3565b6200052b6020830187620004e3565b6200053a6040830186620004e3565b620005496060830185620004f4565b620005586080830184620004d2565b9695505050505050565b60006200056e62000581565b90506200057c828262000675565b919050565b6000604051905090565b600067ffffffffffffffff821115620005a957620005a8620006da565b5b620005b48262000709565b9050602081019050919050565b6000620005ce82620005df565b9050919050565b6000819050919050565b600073ffffffffffffffffffffffffffffffffffffffff82169050919050565b6000819050919050565b60005b83811015620006295780820151818401526020810190506200060c565b8381111562000639576000848401525b50505050565b600060028204905060018216806200065857607f821691505b602082108114156200066f576200066e620006ab565b5b50919050565b620006808262000709565b810181811067ffffffffffffffff82111715620006a257620006a1620006da565b5b80604052505050565b7f4e487b7100000000000000000000000000000000000000000000000000000000600052602260045260246000fd5b7f4e487b7100000000000000000000000000000000000000000000000000000000600052604160045260246000fd5b6000601f19601f8301169050919050565b60805160a05160c05160601c60e0516101005161012051613fe56200076d6000396000611f9301526000611fd501526000611fb401526000611ee901526000611f3f01526000611f680152613fe56000f3fe608060405234801561001057600080fd5b50600436106101375760003560e01c80636352211e116100b8578063a22cb4651161007c578063a22cb4651461035e578063b88d4fde1461037a578063c87b56dd14610396578063d5391393146103c6578063d547741f146103e4578063e985e9c51461040057610137565b80636352211e1461029257806370a08231146102c257806391d14854146102f257806395d89b4114610322578063a217fddf1461034057610137565b806323b872dd116100ff57806323b872dd146101f2578063248a9ca31461020e5780632f2ff15d1461023e57806336568abe1461025a57806342842e0e1461027657610137565b806301ffc9a71461013c57806306fdde031461016c578063081812fc1461018a578063095ea7b3146101ba57806310badf4e146101d6575b600080fd5b61015660048036038101906101519190612b51565b610430565b6040516101639190613115565b60405180910390f35b610174610442565b604051610181919061321a565b60405180910390f35b6101a4600480360381019061019f9190612ba3565b6104d4565b6040516101b191906130ae565b60405180910390f35b6101d460048036038101906101cf9190612a44565b610559565b005b6101f060048036038101906101eb9190612a80565b610671565b005b61020c6004803603810190610207919061293e565b610717565b005b61022860048036038101906102239190612aec565b610777565b6040516102359190613130565b60405180910390f35b61025860048036038101906102539190612b15565b610797565b005b610274600480360381019061026f9190612b15565b6107c0565b005b610290600480360381019061028b919061293e565b610843565b005b6102ac60048036038101906102a79190612ba3565b610863565b6040516102b991906130ae565b60405180910390f35b6102dc60048036038101906102d791906128d9565b610915565b6040516102e991906134dc565b60405180910390f35b61030c60048036038101906103079190612b15565b6109cd565b6040516103199190613115565b60405180910390f35b61032a610a38565b604051610337919061321a565b60405180910390f35b610348610aca565b6040516103559190613130565b60405180910390f35b61037860048036038101906103739190612a08565b610ad1565b005b610394600480360381019061038f919061298d565b610ae7565b005b6103b060048036038101906103ab9190612ba3565b610b49565b6040516103bd919061321a565b60405180910390f35b6103ce610bf0565b6040516103db9190613130565b60405180910390f35b6103fe60048036038101906103f99190612b15565b610c14565b005b61041a60048036038101906104159190612902565b610c3d565b6040516104279190613115565b60405180910390f35b600061043b82610cd1565b9050919050565b6060600080546104519061379c565b80601f016020809104026020016040519081016040528092919081815260200182805461047d9061379c565b80156104ca5780601f1061049f576101008083540402835291602001916104ca565b820191906000526020600020905b8154815290600101906020018083116104ad57829003601f168201915b5050505050905090565b60006104df82610d4b565b61051e576040517f08c379a00000000000000000000000000000000000000000000000000000000081526004016105159061343c565b60405180910390fd5b6004600083815260200190815260200160002060009054906101000a900473ffffffffffffffffffffffffffffffffffffffff169050919050565b600061056482610863565b90508073ffffffffffffffffffffffffffffffffffffffff168373ffffffffffffffffffffffffffffffffffffffff1614156105d5576040517f08c379a00000000000000000000000000000000000000000000000000000000081526004016105cc9061347c565b60405180910390fd5b8073ffffffffffffffffffffffffffffffffffffffff166105f4610db7565b73ffffffffffffffffffffffffffffffffffffffff16148061062357506106228161061d610db7565b610c3d565b5b610662576040517f08c379a00000000000000000000000000000000000000000000000000000000081526004016106599061339c565b60405180910390fd5b61066c8383610dbf565b505050565b6106c861067e8585610e78565b83838080601f016020809104026020016040519081016040528093929190818152602001838380828437600081840152601f19601f82011690508083019250505050505050610ed5565b610707576040517f08c379a00000000000000000000000000000000000000000000000000000000081526004016106fe9061333c565b60405180910390fd5b6107118484610f12565b50505050565b610728610722610db7565b82610f30565b610767576040517f08c379a000000000000000000000000000000000000000000000000000000000815260040161075e9061349c565b60405180910390fd5b61077283838361100e565b505050565b600060066000838152602001908152602001600020600101549050919050565b6107a082610777565b6107b1816107ac610db7565b611275565b6107bb8383611312565b505050565b6107c8610db7565b73ffffffffffffffffffffffffffffffffffffffff168173ffffffffffffffffffffffffffffffffffffffff1614610835576040517f08c379a000000000000000000000000000000000000000000000000000000000815260040161082c906134bc565b60405180910390fd5b61083f82826113f3565b5050565b61085e83838360405180602001604052806000815250610ae7565b505050565b6000806002600084815260200190815260200160002060009054906101000a900473ffffffffffffffffffffffffffffffffffffffff169050600073ffffffffffffffffffffffffffffffffffffffff168173ffffffffffffffffffffffffffffffffffffffff16141561090c576040517f08c379a0000000000000000000000000000000000000000000000000000000008152600401610903906133dc565b60405180910390fd5b80915050919050565b60008073ffffffffffffffffffffffffffffffffffffffff168273ffffffffffffffffffffffffffffffffffffffff161415610986576040517f08c379a000000000000000000000000000000000000000000000000000000000815260040161097d906133bc565b60405180910390fd5b600360008373ffffffffffffffffffffffffffffffffffffffff1673ffffffffffffffffffffffffffffffffffffffff168152602001908152602001600020549050919050565b60006006600084815260200190815260200160002060000160008373ffffffffffffffffffffffffffffffffffffffff1673ffffffffffffffffffffffffffffffffffffffff16815260200190815260200160002060009054906101000a900460ff16905092915050565b606060018054610a479061379c565b80601f0160208091040260200160405190810160405280929190818152602001828054610a739061379c565b8015610ac05780601f10610a9557610100808354040283529160200191610ac0565b820191906000526020600020905b815481529060010190602001808311610aa357829003601f168201915b5050505050905090565b6000801b81565b610ae3610adc610db7565b83836114d5565b5050565b610af8610af2610db7565b83610f30565b610b37576040517f08c379a0000000000000000000000000000000000000000000000000000000008152600401610b2e9061349c565b60405180910390fd5b610b4384848484611642565b50505050565b6060610b5482610d4b565b610b93576040517f08c379a0000000000000000000000000000000000000000000000000000000008152600401610b8a9061345c565b60405180910390fd5b6000610b9d61169e565b90506000815111610bbd5760405180602001604052806000815250610be8565b80610bc7846116b5565b604051602001610bd8929190613019565b6040516020818303038152906040525b915050919050565b7f9f2df0fed2c77648de5860a4cc508cd0818c85b8b8a1ab4ceeef8d981c8956a681565b610c1d82610777565b610c2e81610c29610db7565b611275565b610c3883836113f3565b505050565b6000600560008473ffffffffffffffffffffffffffffffffffffffff1673ffffffffffffffffffffffffffffffffffffffff16815260200190815260200160002060008373ffffffffffffffffffffffffffffffffffffffff1673ffffffffffffffffffffffffffffffffffffffff16815260200190815260200160002060009054906101000a900460ff16905092915050565b60007f7965db0b000000000000000000000000000000000000000000000000000000007bffffffffffffffffffffffffffffffffffffffffffffffffffffffff1916827bffffffffffffffffffffffffffffffffffffffffffffffffffffffff19161480610d445750610d4382611862565b5b9050919050565b60008073ffffffffffffffffffffffffffffffffffffffff166002600084815260200190815260200160002060009054906101000a900473ffffffffffffffffffffffffffffffffffffffff1673ffffffffffffffffffffffffffffffffffffffff1614159050919050565b600033905090565b816004600083815260200190815260200160002060006101000a81548173ffffffffffffffffffffffffffffffffffffffff021916908373ffffffffffffffffffffffffffffffffffffffff160217905550808273ffffffffffffffffffffffffffffffffffffffff16610e3283610863565b73ffffffffffffffffffffffffffffffffffffffff167f8c5be1e5ebec7d5bd14f71427d1e84f3dd0314c0f7b2291e5b200ac8c7c3b92560405160405180910390a45050565b6000610ecd7fd2510b574f5316b76c0690d108b48cde7a2a76bf4fc13fae79898e5251d0082e8385604051602001610eb29392919061319e565b60405160208183030381529060405280519060200120611944565b905092915050565b6000610f0a7f9f2df0fed2c77648de5860a4cc508cd0818c85b8b8a1ab4ceeef8d981c8956a6610f05858561195e565b6109cd565b905092915050565b610f2c828260405180602001604052806000815250611985565b5050565b6000610f3b82610d4b565b610f7a576040517f08c379a0000000000000000000000000000000000000000000000000000000008152600401610f719061337c565b60405180910390fd5b6000610f8583610863565b90508073ffffffffffffffffffffffffffffffffffffffff168473ffffffffffffffffffffffffffffffffffffffff161480610ff457508373ffffffffffffffffffffffffffffffffffffffff16610fdc846104d4565b73ffffffffffffffffffffffffffffffffffffffff16145b8061100557506110048185610c3d565b5b91505092915050565b8273ffffffffffffffffffffffffffffffffffffffff1661102e82610863565b73ffffffffffffffffffffffffffffffffffffffff1614611084576040517f08c379a000000000000000000000000000000000000000000000000000000000815260040161107b906132bc565b60405180910390fd5b600073ffffffffffffffffffffffffffffffffffffffff168273ffffffffffffffffffffffffffffffffffffffff1614156110f4576040517f08c379a00000000000000000000000000000000000000000000000000000000081526004016110eb906132fc565b60405180910390fd5b6110ff8383836119e0565b61110a600082610dbf565b6001600360008573ffffffffffffffffffffffffffffffffffffffff1673ffffffffffffffffffffffffffffffffffffffff168152602001908152602001600020600082825461115a9190613671565b925050819055506001600360008473ffffffffffffffffffffffffffffffffffffffff1673ffffffffffffffffffffffffffffffffffffffff16815260200190815260200160002060008282546111b19190613590565b92505081905550816002600083815260200190815260200160002060006101000a81548173ffffffffffffffffffffffffffffffffffffffff021916908373ffffffffffffffffffffffffffffffffffffffff160217905550808273ffffffffffffffffffffffffffffffffffffffff168473ffffffffffffffffffffffffffffffffffffffff167fddf252ad1be2c89b69c2b068fc378daa952ba7f163c4a11628f55a4df523b3ef60405160405180910390a46112708383836119e5565b505050565b61127f82826109cd565b61130e576112a48173ffffffffffffffffffffffffffffffffffffffff1660146119ea565b6112b28360001c60206119ea565b6040516020016112c3929190613074565b6040516020818303038152906040526040517f08c379a0000000000000000000000000000000000000000000000000000000008152600401611305919061321a565b60405180910390fd5b5050565b61131c82826109cd565b6113ef5760016006600084815260200190815260200160002060000160008373ffffffffffffffffffffffffffffffffffffffff1673ffffffffffffffffffffffffffffffffffffffff16815260200190815260200160002060006101000a81548160ff021916908315150217905550611394610db7565b73ffffffffffffffffffffffffffffffffffffffff168173ffffffffffffffffffffffffffffffffffffffff16837f2f8788117e7eff1d82e926ec794901d17c78024a50270940304540a733656f0d60405160405180910390a45b5050565b6113fd82826109cd565b156114d15760006006600084815260200190815260200160002060000160008373ffffffffffffffffffffffffffffffffffffffff1673ffffffffffffffffffffffffffffffffffffffff16815260200190815260200160002060006101000a81548160ff021916908315150217905550611476610db7565b73ffffffffffffffffffffffffffffffffffffffff168173ffffffffffffffffffffffffffffffffffffffff16837ff6391f5c32d9c69d2a47ea670b442974b53935d1edc7fd64eb21e047a839171b60405160405180910390a45b5050565b8173ffffffffffffffffffffffffffffffffffffffff168373ffffffffffffffffffffffffffffffffffffffff161415611544576040517f08c379a000000000000000000000000000000000000000000000000000000000815260040161153b9061331c565b60405180910390fd5b80600560008573ffffffffffffffffffffffffffffffffffffffff1673ffffffffffffffffffffffffffffffffffffffff16815260200190815260200160002060008473ffffffffffffffffffffffffffffffffffffffff1673ffffffffffffffffffffffffffffffffffffffff16815260200190815260200160002060006101000a81548160ff0219169083151502179055508173ffffffffffffffffffffffffffffffffffffffff168373ffffffffffffffffffffffffffffffffffffffff167f17307eab39ab6107e8899845ad3d59bd9653f200f220920489ca2b5937696c31836040516116359190613115565b60405180910390a3505050565b61164d84848461100e565b61165984848484611ce4565b611698576040517f08c379a000000000000000000000000000000000000000000000000000000000815260040161168f9061329c565b60405180910390fd5b50505050565b606060405180602001604052806000815250905090565b606060008214156116fd576040518060400160405280600181526020017f3000000000000000000000000000000000000000000000000000000000000000815250905061185d565b600082905060005b6000821461172f578080611718906137ff565b915050600a8261172891906135e6565b9150611705565b60008167ffffffffffffffff811115611771577f4e487b7100000000000000000000000000000000000000000000000000000000600052604160045260246000fd5b6040519080825280601f01601f1916602001820160405280156117a35781602001600182028036833780820191505090505b5090505b60008514611856576001826117bc9190613671565b9150600a856117cb9190613852565b60306117d79190613590565b60f81b818381518110611813577f4e487b7100000000000000000000000000000000000000000000000000000000600052603260045260246000fd5b60200101907effffffffffffffffffffffffffffffffffffffffffffffffffffffffffffff1916908160001a905350600a8561184f91906135e6565b94506117a7565b8093505050505b919050565b60007f80ac58cd000000000000000000000000000000000000000000000000000000007bffffffffffffffffffffffffffffffffffffffffffffffffffffffff1916827bffffffffffffffffffffffffffffffffffffffffffffffffffffffff1916148061192d57507f5b5e139f000000000000000000000000000000000000000000000000000000007bffffffffffffffffffffffffffffffffffffffffffffffffffffffff1916827bffffffffffffffffffffffffffffffffffffffffffffffffffffffff1916145b8061193d575061193c82611e7b565b5b9050919050565b6000611957611951611ee5565b83611fff565b9050919050565b600080600061196d8585612032565b9150915061197a816120b5565b819250505092915050565b61198f8383612406565b61199c6000848484611ce4565b6119db576040517f08c379a00000000000000000000000000000000000000000000000000000000081526004016119d29061329c565b60405180910390fd5b505050565b505050565b505050565b6060600060028360026119fd9190613617565b611a079190613590565b67ffffffffffffffff811115611a46577f4e487b7100000000000000000000000000000000000000000000000000000000600052604160045260246000fd5b6040519080825280601f01601f191660200182016040528015611a785781602001600182028036833780820191505090505b5090507f300000000000000000000000000000000000000000000000000000000000000081600081518110611ad6577f4e487b7100000000000000000000000000000000000000000000000000000000600052603260045260246000fd5b60200101907effffffffffffffffffffffffffffffffffffffffffffffffffffffffffffff1916908160001a9053507f780000000000000000000000000000000000000000000000000000000000000081600181518110611b60577f4e487b7100000000000000000000000000000000000000000000000000000000600052603260045260246000fd5b60200101907effffffffffffffffffffffffffffffffffffffffffffffffffffffffffffff1916908160001a90535060006001846002611ba09190613617565b611baa9190613590565b90505b6001811115611c96577f3031323334353637383961626364656600000000000000000000000000000000600f861660108110611c12577f4e487b7100000000000000000000000000000000000000000000000000000000600052603260045260246000fd5b1a60f81b828281518110611c4f577f4e487b7100000000000000000000000000000000000000000000000000000000600052603260045260246000fd5b60200101907effffffffffffffffffffffffffffffffffffffffffffffffffffffffffffff1916908160001a905350600485901c945080611c8f90613772565b9050611bad565b5060008414611cda576040517f08c379a0000000000000000000000000000000000000000000000000000000008152600401611cd19061325c565b60405180910390fd5b8091505092915050565b6000611d058473ffffffffffffffffffffffffffffffffffffffff166125e0565b15611e6e578373ffffffffffffffffffffffffffffffffffffffff1663150b7a02611d2e610db7565b8786866040518563ffffffff1660e01b8152600401611d5094939291906130c9565b602060405180830381600087803b158015611d6a57600080fd5b505af1925050508015611d9b57506040513d601f19601f82011682018060405250810190611d989190612b7a565b60015b611e1e573d8060008114611dcb576040519150601f19603f3d011682016040523d82523d6000602084013e611dd0565b606091505b50600081511415611e16576040517f08c379a0000000000000000000000000000000000000000000000000000000008152600401611e0d9061329c565b60405180910390fd5b805181602001fd5b63150b7a0260e01b7bffffffffffffffffffffffffffffffffffffffffffffffffffffffff1916817bffffffffffffffffffffffffffffffffffffffffffffffffffffffff191614915050611e73565b600190505b949350505050565b60007f01ffc9a7000000000000000000000000000000000000000000000000000000007bffffffffffffffffffffffffffffffffffffffffffffffffffffffff1916827bffffffffffffffffffffffffffffffffffffffffffffffffffffffff1916149050919050565b60007f000000000000000000000000000000000000000000000000000000000000000073ffffffffffffffffffffffffffffffffffffffff163073ffffffffffffffffffffffffffffffffffffffff16148015611f6157507f000000000000000000000000000000000000000000000000000000000000000046145b15611f8e577f00000000000000000000000000000000000000000000000000000000000000009050611ffc565b611ff97f00000000000000000000000000000000000000000000000000000000000000007f00000000000000000000000000000000000000000000000000000000000000007f0000000000000000000000000000000000000000000000000000000000000000612603565b90505b90565b6000828260405160200161201492919061303d565b60405160208183030381529060405280519060200120905092915050565b6000806041835114156120745760008060006020860151925060408601519150606086015160001a90506120688782858561263d565b945094505050506120ae565b6040835114156120a557600080602085015191506040850151905061209a86838361274a565b9350935050506120ae565b60006002915091505b9250929050565b600060048111156120ef577f4e487b7100000000000000000000000000000000000000000000000000000000600052602160045260246000fd5b816004811115612128577f4e487b7100000000000000000000000000000000000000000000000000000000600052602160045260246000fd5b141561213357612403565b6001600481111561216d577f4e487b7100000000000000000000000000000000000000000000000000000000600052602160045260246000fd5b8160048111156121a6577f4e487b7100000000000000000000000000000000000000000000000000000000600052602160045260246000fd5b14156121e7576040517f08c379a00000000000000000000000000000000000000000000000000000000081526004016121de9061323c565b60405180910390fd5b60026004811115612221577f4e487b7100000000000000000000000000000000000000000000000000000000600052602160045260246000fd5b81600481111561225a577f4e487b7100000000000000000000000000000000000000000000000000000000600052602160045260246000fd5b141561229b576040517f08c379a00000000000000000000000000000000000000000000000000000000081526004016122929061327c565b60405180910390fd5b600360048111156122d5577f4e487b7100000000000000000000000000000000000000000000000000000000600052602160045260246000fd5b81600481111561230e577f4e487b7100000000000000000000000000000000000000000000000000000000600052602160045260246000fd5b141561234f576040517f08c379a00000000000000000000000000000000000000000000000000000000081526004016123469061335c565b60405180910390fd5b600480811115612388577f4e487b7100000000000000000000000000000000000000000000000000000000600052602160045260246000fd5b8160048111156123c1577f4e487b7100000000000000000000000000000000000000000000000000000000600052602160045260246000fd5b1415612402576040517f08c379a00000000000000000000000000000000000000000000000000000000081526004016123f9906133fc565b60405180910390fd5b5b50565b600073ffffffffffffffffffffffffffffffffffffffff168273ffffffffffffffffffffffffffffffffffffffff161415612476576040517f08c379a000000000000000000000000000000000000000000000000000000000815260040161246d9061341c565b60405180910390fd5b61247f81610d4b565b156124bf576040517f08c379a00000000000000000000000000000000000000000000000000000000081526004016124b6906132dc565b60405180910390fd5b6124cb600083836119e0565b6001600360008473ffffffffffffffffffffffffffffffffffffffff1673ffffffffffffffffffffffffffffffffffffffff168152602001908152602001600020600082825461251b9190613590565b92505081905550816002600083815260200190815260200160002060006101000a81548173ffffffffffffffffffffffffffffffffffffffff021916908373ffffffffffffffffffffffffffffffffffffffff160217905550808273ffffffffffffffffffffffffffffffffffffffff16600073ffffffffffffffffffffffffffffffffffffffff167fddf252ad1be2c89b69c2b068fc378daa952ba7f163c4a11628f55a4df523b3ef60405160405180910390a46125dc600083836119e5565b5050565b6000808273ffffffffffffffffffffffffffffffffffffffff163b119050919050565b6000838383463060405160200161261e95949392919061314b565b6040516020818303038152906040528051906020012090509392505050565b6000807f7fffffffffffffffffffffffffffffff5d576e7357a4501ddfe92f46681b20a08360001c1115612678576000600391509150612741565b601b8560ff16141580156126905750601c8560ff1614155b156126a2576000600491509150612741565b6000600187878787604051600081526020016040526040516126c794939291906131d5565b6020604051602081039080840390855afa1580156126e9573d6000803e3d6000fd5b505050602060405103519050600073ffffffffffffffffffffffffffffffffffffffff168173ffffffffffffffffffffffffffffffffffffffff16141561273857600060019250925050612741565b80600092509250505b94509492505050565b60008060007f7fffffffffffffffffffffffffffffffffffffffffffffffffffffffffffffff60001b841690506000601b60ff8660001c901c61278d9190613590565b905061279b8782888561263d565b935093505050935093915050565b60006127bc6127b78461351c565b6134f7565b9050828152602081018484840111156127d457600080fd5b6127df848285613730565b509392505050565b6000813590506127f681613f3c565b92915050565b60008135905061280b81613f53565b92915050565b60008135905061282081613f6a565b92915050565b60008135905061283581613f81565b92915050565b60008151905061284a81613f81565b92915050565b60008083601f84011261286257600080fd5b8235905067ffffffffffffffff81111561287b57600080fd5b60208301915083600182028301111561289357600080fd5b9250929050565b600082601f8301126128ab57600080fd5b81356128bb8482602086016127a9565b91505092915050565b6000813590506128d381613f98565b92915050565b6000602082840312156128eb57600080fd5b60006128f9848285016127e7565b91505092915050565b6000806040838503121561291557600080fd5b6000612923858286016127e7565b9250506020612934858286016127e7565b9150509250929050565b60008060006060848603121561295357600080fd5b6000612961868287016127e7565b9350506020612972868287016127e7565b9250506040612983868287016128c4565b9150509250925092565b600080600080608085870312156129a357600080fd5b60006129b1878288016127e7565b94505060206129c2878288016127e7565b93505060406129d3878288016128c4565b925050606085013567ffffffffffffffff8111156129f057600080fd5b6129fc8782880161289a565b91505092959194509250565b60008060408385031215612a1b57600080fd5b6000612a29858286016127e7565b9250506020612a3a858286016127fc565b9150509250929050565b60008060408385031215612a5757600080fd5b6000612a65858286016127e7565b9250506020612a76858286016128c4565b9150509250929050565b60008060008060608587031215612a9657600080fd5b6000612aa4878288016127e7565b9450506020612ab5878288016128c4565b935050604085013567ffffffffffffffff811115612ad257600080fd5b612ade87828801612850565b925092505092959194509250565b600060208284031215612afe57600080fd5b6000612b0c84828501612811565b91505092915050565b60008060408385031215612b2857600080fd5b6000612b3685828601612811565b9250506020612b47858286016127e7565b9150509250929050565b600060208284031215612b6357600080fd5b6000612b7184828501612826565b91505092915050565b600060208284031215612b8c57600080fd5b6000612b9a8482850161283b565b91505092915050565b600060208284031215612bb557600080fd5b6000612bc3848285016128c4565b91505092915050565b612bd5816136a5565b82525050565b612be4816136b7565b82525050565b612bf3816136c3565b82525050565b612c0a612c05826136c3565b613848565b82525050565b6000612c1b8261354d565b612c258185613563565b9350612c3581856020860161373f565b612c3e8161393f565b840191505092915050565b6000612c5482613558565b612c5e8185613574565b9350612c6e81856020860161373f565b612c778161393f565b840191505092915050565b6000612c8d82613558565b612c978185613585565b9350612ca781856020860161373f565b80840191505092915050565b6000612cc0601883613574565b9150612ccb82613950565b602082019050919050565b6000612ce3602083613574565b9150612cee82613979565b602082019050919050565b6000612d06601f83613574565b9150612d11826139a2565b602082019050919050565b6000612d29603283613574565b9150612d34826139cb565b604082019050919050565b6000612d4c602583613574565b9150612d5782613a1a565b604082019050919050565b6000612d6f601c83613574565b9150612d7a82613a69565b602082019050919050565b6000612d92600283613585565b9150612d9d82613a92565b600282019050919050565b6000612db5602483613574565b9150612dc082613abb565b604082019050919050565b6000612dd8601983613574565b9150612de382613b0a565b602082019050919050565b6000612dfb601183613574565b9150612e0682613b33565b602082019050919050565b6000612e1e602283613574565b9150612e2982613b5c565b604082019050919050565b6000612e41602c83613574565b9150612e4c82613bab565b604082019050919050565b6000612e64603883613574565b9150612e6f82613bfa565b604082019050919050565b6000612e87602a83613574565b9150612e9282613c49565b604082019050919050565b6000612eaa602983613574565b9150612eb582613c98565b604082019050919050565b6000612ecd602283613574565b9150612ed882613ce7565b604082019050919050565b6000612ef0602083613574565b9150612efb82613d36565b602082019050919050565b6000612f13602c83613574565b9150612f1e82613d5f565b604082019050919050565b6000612f36602f83613574565b9150612f4182613dae565b604082019050919050565b6000612f59602183613574565b9150612f6482613dfd565b604082019050919050565b6000612f7c603183613574565b9150612f8782613e4c565b604082019050919050565b6000612f9f601783613585565b9150612faa82613e9b565b601782019050919050565b6000612fc2601183613585565b9150612fcd82613ec4565b601182019050919050565b6000612fe5602f83613574565b9150612ff082613eed565b604082019050919050565b61300481613719565b82525050565b61301381613723565b82525050565b60006130258285612c82565b91506130318284612c82565b91508190509392505050565b600061304882612d85565b91506130548285612bf9565b6020820191506130648284612bf9565b6020820191508190509392505050565b600061307f82612f92565b915061308b8285612c82565b915061309682612fb5565b91506130a28284612c82565b91508190509392505050565b60006020820190506130c36000830184612bcc565b92915050565b60006080820190506130de6000830187612bcc565b6130eb6020830186612bcc565b6130f86040830185612ffb565b818103606083015261310a8184612c10565b905095945050505050565b600060208201905061312a6000830184612bdb565b92915050565b60006020820190506131456000830184612bea565b92915050565b600060a0820190506131606000830188612bea565b61316d6020830187612bea565b61317a6040830186612bea565b6131876060830185612ffb565b6131946080830184612bcc565b9695505050505050565b60006060820190506131b36000830186612bea565b6131c06020830185612ffb565b6131cd6040830184612bcc565b949350505050565b60006080820190506131ea6000830187612bea565b6131f7602083018661300a565b6132046040830185612bea565b6132116060830184612bea565b95945050505050565b600060208201905081810360008301526132348184612c49565b905092915050565b6000602082019050818103600083015261325581612cb3565b9050919050565b6000602082019050818103600083015261327581612cd6565b9050919050565b6000602082019050818103600083015261329581612cf9565b9050919050565b600060208201905081810360008301526132b581612d1c565b9050919050565b600060208201905081810360008301526132d581612d3f565b9050919050565b600060208201905081810360008301526132f581612d62565b9050919050565b6000602082019050818103600083015261331581612da8565b9050919050565b6000602082019050818103600083015261333581612dcb565b9050919050565b6000602082019050818103600083015261335581612dee565b9050919050565b6000602082019050818103600083015261337581612e11565b9050919050565b6000602082019050818103600083015261339581612e34565b9050919050565b600060208201905081810360008301526133b581612e57565b9050919050565b600060208201905081810360008301526133d581612e7a565b9050919050565b600060208201905081810360008301526133f581612e9d565b9050919050565b6000602082019050818103600083015261341581612ec0565b9050919050565b6000602082019050818103600083015261343581612ee3565b9050919050565b6000602082019050818103600083015261345581612f06565b9050919050565b6000602082019050818103600083015261347581612f29565b9050919050565b6000602082019050818103600083015261349581612f4c565b9050919050565b600060208201905081810360008301526134b581612f6f565b9050919050565b600060208201905081810360008301526134d581612fd8565b9050919050565b60006020820190506134f16000830184612ffb565b92915050565b6000613501613512565b905061350d82826137ce565b919050565b6000604051905090565b600067ffffffffffffffff82111561353757613536613910565b5b6135408261393f565b9050602081019050919050565b600081519050919050565b600081519050919050565b600082825260208201905092915050565b600082825260208201905092915050565b600081905092915050565b600061359b82613719565b91506135a683613719565b9250827fffffffffffffffffffffffffffffffffffffffffffffffffffffffffffffffff038211156135db576135da613883565b5b828201905092915050565b60006135f182613719565b91506135fc83613719565b92508261360c5761360b6138b2565b5b828204905092915050565b600061362282613719565b915061362d83613719565b9250817fffffffffffffffffffffffffffffffffffffffffffffffffffffffffffffffff048311821515161561366657613665613883565b5b828202905092915050565b600061367c82613719565b915061368783613719565b92508282101561369a57613699613883565b5b828203905092915050565b60006136b0826136f9565b9050919050565b60008115159050919050565b6000819050919050565b60007fffffffff0000000000000000000000000000000000000000000000000000000082169050919050565b600073ffffffffffffffffffffffffffffffffffffffff82169050919050565b6000819050919050565b600060ff82169050919050565b82818337600083830152505050565b60005b8381101561375d578082015181840152602081019050613742565b8381111561376c576000848401525b50505050565b600061377d82613719565b9150600082141561379157613790613883565b5b600182039050919050565b600060028204905060018216806137b457607f821691505b602082108114156137c8576137c76138e1565b5b50919050565b6137d78261393f565b810181811067ffffffffffffffff821117156137f6576137f5613910565b5b80604052505050565b600061380a82613719565b91507fffffffffffffffffffffffffffffffffffffffffffffffffffffffffffffffff82141561383d5761383c613883565b5b600182019050919050565b6000819050919050565b600061385d82613719565b915061386883613719565b925082613878576138776138b2565b5b828206905092915050565b7f4e487b7100000000000000000000000000000000000000000000000000000000600052601160045260246000fd5b7f4e487b7100000000000000000000000000000000000000000000000000000000600052601260045260246000fd5b7f4e487b7100000000000000000000000000000000000000000000000000000000600052602260045260246000fd5b7f4e487b7100000000000000000000000000000000000000000000000000000000600052604160045260246000fd5b6000601f19601f8301169050919050565b7f45434453413a20696e76616c6964207369676e61747572650000000000000000600082015250565b7f537472696e67733a20686578206c656e67746820696e73756666696369656e74600082015250565b7f45434453413a20696e76616c6964207369676e6174757265206c656e67746800600082015250565b7f4552433732313a207472616e7366657220746f206e6f6e20455243373231526560008201527f63656976657220696d706c656d656e7465720000000000000000000000000000602082015250565b7f4552433732313a207472616e736665722066726f6d20696e636f72726563742060008201527f6f776e6572000000000000000000000000000000000000000000000000000000602082015250565b7f4552433732313a20746f6b656e20616c7265616479206d696e74656400000000600082015250565b7f1901000000000000000000000000000000000000000000000000000000000000600082015250565b7f4552433732313a207472616e7366657220746f20746865207a65726f2061646460008201527f7265737300000000000000000000000000000000000000000000000000000000602082015250565b7f4552433732313a20617070726f766520746f2063616c6c657200000000000000600082015250565b7f496e76616c6964207369676e6174757265000000000000000000000000000000600082015250565b7f45434453413a20696e76616c6964207369676e6174757265202773272076616c60008201527f7565000000000000000000000000000000000000000000000000000000000000602082015250565b7f4552433732313a206f70657261746f7220717565727920666f72206e6f6e657860008201527f697374656e7420746f6b656e0000000000000000000000000000000000000000602082015250565b7f4552433732313a20617070726f76652063616c6c6572206973206e6f74206f7760008201527f6e6572206e6f7220617070726f76656420666f7220616c6c0000000000000000602082015250565b7f4552433732313a2062616c616e636520717565727920666f7220746865207a6560008201527f726f206164647265737300000000000000000000000000000000000000000000602082015250565b7f4552433732313a206f776e657220717565727920666f72206e6f6e657869737460008201527f656e7420746f6b656e0000000000000000000000000000000000000000000000602082015250565b7f45434453413a20696e76616c6964207369676e6174757265202776272076616c60008201527f7565000000000000000000000000000000000000000000000000000000000000602082015250565b7f4552433732313a206d696e7420746f20746865207a65726f2061646472657373600082015250565b7f4552433732313a20617070726f76656420717565727920666f72206e6f6e657860008201527f697374656e7420746f6b656e0000000000000000000000000000000000000000602082015250565b7f4552433732314d657461646174613a2055524920717565727920666f72206e6f60008201527f6e6578697374656e7420746f6b656e0000000000000000000000000000000000602082015250565b7f4552433732313a20617070726f76616c20746f2063757272656e74206f776e6560008201527f7200000000000000000000000000000000000000000000000000000000000000602082015250565b7f4552433732313a207472616e736665722063616c6c6572206973206e6f74206f60008201527f776e6572206e6f7220617070726f766564000000000000000000000000000000602082015250565b7f416363657373436f6e74726f6c3a206163636f756e7420000000000000000000600082015250565b7f206973206d697373696e6720726f6c6520000000000000000000000000000000600082015250565b7f416363657373436f6e74726f6c3a2063616e206f6e6c792072656e6f756e636560008201527f20726f6c657320666f722073656c660000000000000000000000000000000000602082015250565b613f45816136a5565b8114613f5057600080fd5b50565b613f5c816136b7565b8114613f6757600080fd5b50565b613f73816136c3565b8114613f7e57600080fd5b50565b613f8a816136cd565b8114613f9557600080fd5b50565b613fa181613719565b8114613fac57600080fd5b5056fea2646970667358221220187487263708abf95f41d7d1c4f55f96ab12c0a59af7e145207a8763c34c39ed64736f6c63430008040033",
  "linkReferences": {},
  "deployedLinkReferences": {}
}