{
  "_format": "hh-sol-artifact-1",
  "contractName": "SmartWallet",
  "sourceName": "contracts/SmartWallet.sol",
  "abi": [
    {
      "inputs": [
        {
          "internalType": "address",
          "name": "initialOwner",
          "type": "address"
        }
      ],
      "stateMutability": "nonpayable",
      "type": "constructor"
    },
    {
      "anonymous": false,
      "inputs": [
        {
          "indexed": true,
          "internalType": "address",
          "name": "previousOwner",
          "type": "address"
        },
        {
          "indexed": true,
          "internalType": "address",
          "name": "newOwner",
          "type": "address"
        }
      ],
      "name": "OwnershipTransferred",
      "type": "event"
    },
    {
      "inputs": [
        {
          "internalType": "address",
          "name": "target",
          "type": "address"
        },
        {
          "internalType": "uint256",
          "name": "value",
          "type": "uint256"
        },
        {
          "internalType": "bytes",
          "name": "data",
          "type": "bytes"
        }
      ],
      "name": "execute",
      "outputs": [
        {
          "internalType": "bytes",
          "name": "",
          "type": "bytes"
        }
      ],
      "stateMutability": "nonpayable",
      "type": "function"
    },
    {
      "inputs": [
        {
          "internalType": "bytes32",
          "name": "hash",
          "type": "bytes32"
        },
        {
          "internalType": "bytes",
          "name": "signature",
          "type": "bytes"
        }
      ],
      "name": "isValidSignature",
      "outputs": [
        {
          "internalType": "bytes4",
          "name": "magicValue",
          "type": "bytes4"
        }
      ],
      "stateMutability": "view",
      "type": "function"
    },
    {
      "inputs": [],
      "name": "owner",
      "outputs": [
        {
          "internalType": "address",
          "name": "",
          "type": "address"
        }
      ],
      "stateMutability": "view",
      "type": "function"
    },
    {
      "inputs": [],
      "name": "renounceOwnership",
      "outputs": [],
      "stateMutability": "nonpayable",
      "type": "function"
    },
    {
      "inputs": [
        {
          "internalType": "address",
          "name": "newOwner",
          "type": "address"
        }
      ],
      "name": "transferOwnership",
      "outputs": [],
      "stateMutability": "nonpayable",
      "type": "function"
    }
  ],
  "bytecode": "0x60806040523480156200001157600080fd5b506040516200170f3803806200170f833981810160405281019062000037919062000291565b620000576200004b6200006f60201b60201c565b6200007760201b60201c565b62000068816200013b60201b60201c565b5062000426565b600033905090565b60008060009054906101000a900473ffffffffffffffffffffffffffffffffffffffff169050816000806101000a81548173ffffffffffffffffffffffffffffffffffffffff021916908373ffffffffffffffffffffffffffffffffffffffff1602179055508173ffffffffffffffffffffffffffffffffffffffff168173ffffffffffffffffffffffffffffffffffffffff167f8be0079c531659141344cd1fd0a4f28419497f9722a3daafe3b4186f6b6457e060405160405180910390a35050565b6200014b6200006f60201b60201c565b73ffffffffffffffffffffffffffffffffffffffff16620001716200025160201b60201c565b73ffffffffffffffffffffffffffffffffffffffff1614620001ca576040517f08c379a0000000000000000000000000000000000000000000000000000000008152600401620001c1906200032d565b60405180910390fd5b600073ffffffffffffffffffffffffffffffffffffffff168173ffffffffffffffffffffffffffffffffffffffff1614156200023d576040517f08c379a000000000000000000000000000000000000000000000000000000000815260040162000234906200030b565b60405180910390fd5b6200024e816200007760201b60201c565b50565b60008060009054906101000a900473ffffffffffffffffffffffffffffffffffffffff16905090565b6000815190506200028b816200040c565b92915050565b600060208284031215620002a457600080fd5b6000620002b4848285016200027a565b91505092915050565b6000620002cc6026836200034f565b9150620002d98262000394565b604082019050919050565b6000620002f36020836200034f565b91506200030082620003e3565b602082019050919050565b600060208201905081810360008301526200032681620002bd565b9050919050565b600060208201905081810360008301526200034881620002e4565b9050919050565b600082825260208201905092915050565b60006200036d8262000374565b9050919050565b600073ffffffffffffffffffffffffffffffffffffffff82169050919050565b7f4f776e61626c653a206e6577206f776e657220697320746865207a65726f206160008201527f6464726573730000000000000000000000000000000000000000000000000000602082015250565b7f4f776e61626c653a2063616c6c6572206973206e6f7420746865206f776e6572600082015250565b620004178162000360565b81146200042357600080fd5b50565b6112d980620004366000396000f3fe608060405234801561001057600080fd5b50600436106100575760003560e01c80631626ba7e1461005c578063715018a61461008c5780638da5cb5b14610096578063b61d27f6146100b4578063f2fde38b146100e4575b600080fd5b61007660048036038101906100719190610b71565b610100565b6040516100839190610db4565b60405180910390f35b61009461015a565b005b61009e6101e2565b6040516100ab9190610d54565b60405180910390f35b6100ce60048036038101906100c99190610b0a565b61020b565b6040516100db9190610dcf565b60405180910390f35b6100fe60048036038101906100f99190610ae1565b61030f565b005b600061010c8383610407565b73ffffffffffffffffffffffffffffffffffffffff1661012a6101e2565b73ffffffffffffffffffffffffffffffffffffffff161461014a57600080fd5b631626ba7e60e01b905092915050565b61016261042e565b73ffffffffffffffffffffffffffffffffffffffff166101806101e2565b73ffffffffffffffffffffffffffffffffffffffff16146101d6576040517f08c379a00000000000000000000000000000000000000000000000000000000081526004016101cd90610e91565b60405180910390fd5b6101e06000610436565b565b60008060009054906101000a900473ffffffffffffffffffffffffffffffffffffffff16905090565b606061021561042e565b73ffffffffffffffffffffffffffffffffffffffff166102336101e2565b73ffffffffffffffffffffffffffffffffffffffff1614610289576040517f08c379a000000000000000000000000000000000000000000000000000000000815260040161028090610e91565b60405180910390fd5b6000808573ffffffffffffffffffffffffffffffffffffffff1685856040516102b29190610d3d565b60006040518083038185875af1925050503d80600081146102ef576040519150601f19603f3d011682016040523d82523d6000602084013e6102f4565b606091505b50915091508161030357600080fd5b80925050509392505050565b61031761042e565b73ffffffffffffffffffffffffffffffffffffffff166103356101e2565b73ffffffffffffffffffffffffffffffffffffffff161461038b576040517f08c379a000000000000000000000000000000000000000000000000000000000815260040161038290610e91565b60405180910390fd5b600073ffffffffffffffffffffffffffffffffffffffff168173ffffffffffffffffffffffffffffffffffffffff1614156103fb576040517f08c379a00000000000000000000000000000000000000000000000000000000081526004016103f290610e31565b60405180910390fd5b61040481610436565b50565b600080600061041685856104fa565b915091506104238161057d565b819250505092915050565b600033905090565b60008060009054906101000a900473ffffffffffffffffffffffffffffffffffffffff169050816000806101000a81548173ffffffffffffffffffffffffffffffffffffffff021916908373ffffffffffffffffffffffffffffffffffffffff1602179055508173ffffffffffffffffffffffffffffffffffffffff168173ffffffffffffffffffffffffffffffffffffffff167f8be0079c531659141344cd1fd0a4f28419497f9722a3daafe3b4186f6b6457e060405160405180910390a35050565b60008060418351141561053c5760008060006020860151925060408601519150606086015160001a9050610530878285856108ce565b94509450505050610576565b60408351141561056d5760008060208501519150604085015190506105628683836109db565b935093505050610576565b60006002915091505b9250929050565b600060048111156105b7577f4e487b7100000000000000000000000000000000000000000000000000000000600052602160045260246000fd5b8160048111156105f0577f4e487b7100000000000000000000000000000000000000000000000000000000600052602160045260246000fd5b14156105fb576108cb565b60016004811115610635577f4e487b7100000000000000000000000000000000000000000000000000000000600052602160045260246000fd5b81600481111561066e577f4e487b7100000000000000000000000000000000000000000000000000000000600052602160045260246000fd5b14156106af576040517f08c379a00000000000000000000000000000000000000000000000000000000081526004016106a690610df1565b60405180910390fd5b600260048111156106e9577f4e487b7100000000000000000000000000000000000000000000000000000000600052602160045260246000fd5b816004811115610722577f4e487b7100000000000000000000000000000000000000000000000000000000600052602160045260246000fd5b1415610763576040517f08c379a000000000000000000000000000000000000000000000000000000000815260040161075a90610e11565b60405180910390fd5b6003600481111561079d577f4e487b7100000000000000000000000000000000000000000000000000000000600052602160045260246000fd5b8160048111156107d6577f4e487b7100000000000000000000000000000000000000000000000000000000600052602160045260246000fd5b1415610817576040517f08c379a000000000000000000000000000000000000000000000000000000000815260040161080e90610e51565b60405180910390fd5b600480811115610850577f4e487b7100000000000000000000000000000000000000000000000000000000600052602160045260246000fd5b816004811115610889577f4e487b7100000000000000000000000000000000000000000000000000000000600052602160045260246000fd5b14156108ca576040517f08c379a00000000000000000000000000000000000000000000000000000000081526004016108c190610e71565b60405180910390fd5b5b50565b6000807f7fffffffffffffffffffffffffffffff5d576e7357a4501ddfe92f46681b20a08360001c11156109095760006003915091506109d2565b601b8560ff16141580156109215750601c8560ff1614155b156109335760006004915091506109d2565b6000600187878787604051600081526020016040526040516109589493929190610d6f565b6020604051602081039080840390855afa15801561097a573d6000803e3d6000fd5b505050602060405103519050600073ffffffffffffffffffffffffffffffffffffffff168173ffffffffffffffffffffffffffffffffffffffff1614156109c9576000600192509250506109d2565b80600092509250505b94509492505050565b60008060007f7fffffffffffffffffffffffffffffffffffffffffffffffffffffffffffffff60001b841690506000601b60ff8660001c901c610a1e9190610f3f565b9050610a2c878288856108ce565b935093505050935093915050565b6000610a4d610a4884610ed6565b610eb1565b905082815260208101848484011115610a6557600080fd5b610a70848285611014565b509392505050565b600081359050610a878161125e565b92915050565b600081359050610a9c81611275565b92915050565b600082601f830112610ab357600080fd5b8135610ac3848260208601610a3a565b91505092915050565b600081359050610adb8161128c565b92915050565b600060208284031215610af357600080fd5b6000610b0184828501610a78565b91505092915050565b600080600060608486031215610b1f57600080fd5b6000610b2d86828701610a78565b9350506020610b3e86828701610acc565b925050604084013567ffffffffffffffff811115610b5b57600080fd5b610b6786828701610aa2565b9150509250925092565b60008060408385031215610b8457600080fd5b6000610b9285828601610a8d565b925050602083013567ffffffffffffffff811115610baf57600080fd5b610bbb85828601610aa2565b9150509250929050565b610bce81610f95565b82525050565b610bdd81610fa7565b82525050565b610bec81610fb1565b82525050565b6000610bfd82610f07565b610c078185610f12565b9350610c17818560208601611023565b610c20816110e5565b840191505092915050565b6000610c3682610f07565b610c408185610f23565b9350610c50818560208601611023565b80840191505092915050565b6000610c69601883610f2e565b9150610c74826110f6565b602082019050919050565b6000610c8c601f83610f2e565b9150610c978261111f565b602082019050919050565b6000610caf602683610f2e565b9150610cba82611148565b604082019050919050565b6000610cd2602283610f2e565b9150610cdd82611197565b604082019050919050565b6000610cf5602283610f2e565b9150610d00826111e6565b604082019050919050565b6000610d18602083610f2e565b9150610d2382611235565b602082019050919050565b610d3781611007565b82525050565b6000610d498284610c2b565b915081905092915050565b6000602082019050610d696000830184610bc5565b92915050565b6000608082019050610d846000830187610bd4565b610d916020830186610d2e565b610d9e6040830185610bd4565b610dab6060830184610bd4565b95945050505050565b6000602082019050610dc96000830184610be3565b92915050565b60006020820190508181036000830152610de98184610bf2565b905092915050565b60006020820190508181036000830152610e0a81610c5c565b9050919050565b60006020820190508181036000830152610e2a81610c7f565b9050919050565b60006020820190508181036000830152610e4a81610ca2565b9050919050565b60006020820190508181036000830152610e6a81610cc5565b9050919050565b60006020820190508181036000830152610e8a81610ce8565b9050919050565b60006020820190508181036000830152610eaa81610d0b565b9050919050565b6000610ebb610ecc565b9050610ec78282611056565b919050565b6000604051905090565b600067ffffffffffffffff821115610ef157610ef06110b6565b5b610efa826110e5565b9050602081019050919050565b600081519050919050565b600082825260208201905092915050565b600081905092915050565b600082825260208201905092915050565b6000610f4a82610ffd565b9150610f5583610ffd565b9250827fffffffffffffffffffffffffffffffffffffffffffffffffffffffffffffffff03821115610f8a57610f89611087565b5b828201905092915050565b6000610fa082610fdd565b9050919050565b6000819050919050565b60007fffffffff0000000000000000000000000000000000000000000000000000000082169050919050565b600073ffffffffffffffffffffffffffffffffffffffff82169050919050565b6000819050919050565b600060ff82169050919050565b82818337600083830152505050565b60005b83811015611041578082015181840152602081019050611026565b83811115611050576000848401525b50505050565b61105f826110e5565b810181811067ffffffffffffffff8211171561107e5761107d6110b6565b5b80604052505050565b7f4e487b7100000000000000000000000000000000000000000000000000000000600052601160045260246000fd5b7f4e487b7100000000000000000000000000000000000000000000000000000000600052604160045260246000fd5b6000601f19601f8301169050919050565b7f45434453413a20696e76616c6964207369676e61747572650000000000000000600082015250565b7f45434453413a20696e76616c6964207369676e6174757265206c656e67746800600082015250565b7f4f776e61626c653a206e6577206f776e657220697320746865207a65726f206160008201527f6464726573730000000000000000000000000000000000000000000000000000602082015250565b7f45434453413a20696e76616c6964207369676e6174757265202773272076616c60008201527f7565000000000000000000000000000000000000000000000000000000000000602082015250565b7f45434453413a20696e76616c6964207369676e6174757265202776272076616c60008201527f7565000000000000000000000000000000000000000000000000000000000000602082015250565b7f4f776e61626c653a2063616c6c6572206973206e6f7420746865206f776e6572600082015250565b61126781610f95565b811461127257600080fd5b50565b61127e81610fa7565b811461128957600080fd5b50565b61129581610ffd565b81146112a057600080fd5b5056fea264697066735822122076fc52dba9a7a05488a7bc548c1b42430f4006392b7853dd7d3e4ea600cc14ac64736f6c63430008040033",
  "linkReferences": {},
  "deployedLinkReferences": {}
}