{
  "_format": "hh-sol-artifact-1",
  "contractName": "ERC721Basic",
  "sourceName": "contracts/ERC721Basic.sol",
  "abi": [
    {
      "inputs": [
        {
          "internalType": "string",
          "name": "name",
          "type": "string"
        },
        {
          "internalType": "string",
          "name": "symbol",
          "type": "string"
        }
      ],
      "stateMutability": "nonpayable",
      "type": "constructor"
    },
    {
      "anonymous": false,
      "inputs": [
        {
          "indexed": true,
          "internalType": "address",
          "name": "owner",
          "type": "address"
        },
        {
          "indexed": true,
          "internalType": "address",
          "name": "approved",
          "type": "address"
        },
        {
          "indexed": true,
          "internalType": "uint256",
          "name": "tokenId",
          "type": "uint256"
        }
      ],
      "name": "Approval",
      "type": "event"
    },
    {
      "anonymous": false,
      "inputs": [
        {
          "indexed": true,
          "internalType": "address",
          "name": "owner",
          "type": "address"
        },
        {
          "indexed": true,
          "internalType": "address",
          "name": "operator",
          "type": "address"
        },
        {
          "indexed": false,
          "internalType": "bool",
          "name": "approved",
          "type": "bool"
        }
      ],
      "name": "ApprovalForAll",
      "type": "event"
    },
    {
      "anonymous": false,
      "inputs": [
        {
          "indexed": true,
          "internalType": "bytes32",
          "name": "role",
          "type": "bytes32"
        },
        {
          "indexed": true,
          "internalType": "bytes32",
          "name": "previousAdminRole",
          "type": "bytes32"
        },
        {
          "indexed": true,
          "internalType": "bytes32",
          "name": "newAdminRole",
          "type": "bytes32"
        }
      ],
      "name": "RoleAdminChanged",
      "type": "event"
    },
    {
      "anonymous": false,
      "inputs": [
        {
          "indexed": true,
          "internalType": "bytes32",
          "name": "role",
          "type": "bytes32"
        },
        {
          "indexed": true,
          "internalType": "address",
          "name": "account",
          "type": "address"
        },
        {
          "indexed": true,
          "internalType": "address",
          "name": "sender",
          "type": "address"
        }
      ],
      "name": "RoleGranted",
      "type": "event"
    },
    {
      "anonymous": false,
      "inputs": [
        {
          "indexed": true,
          "internalType": "bytes32",
          "name": "role",
          "type": "bytes32"
        },
        {
          "indexed": true,
          "internalType": "address",
          "name": "account",
          "type": "address"
        },
        {
          "indexed": true,
          "internalType": "address",
          "name": "sender",
          "type": "address"
        }
      ],
      "name": "RoleRevoked",
      "type": "event"
    },
    {
      "anonymous": false,
      "inputs": [
        {
          "indexed": true,
          "internalType": "address",
          "name": "from",
          "type": "address"
        },
        {
          "indexed": true,
          "internalType": "address",
          "name": "to",
          "type": "address"
        },
        {
          "indexed": true,
          "internalType": "uint256",
          "name": "tokenId",
          "type": "uint256"
        }
      ],
      "name": "Transfer",
      "type": "event"
    },
    {
      "inputs": [],
      "name": "DEFAULT_ADMIN_ROLE",
      "outputs": [
        {
          "internalType": "bytes32",
          "name": "",
          "type": "bytes32"
        }
      ],
      "stateMutability": "view",
      "type": "function"
    },
    {
      "inputs": [],
      "name": "MINTER_ROLE",
      "outputs": [
        {
          "internalType": "bytes32",
          "name": "",
          "type": "bytes32"
        }
      ],
      "stateMutability": "view",
      "type": "function"
    },
    {
      "inputs": [
        {
          "internalType": "address",
          "name": "to",
          "type": "address"
        },
        {
          "internalType": "uint256",
          "name": "tokenId",
          "type": "uint256"
        }
      ],
      "name": "approve",
      "outputs": [],
      "stateMutability": "nonpayable",
      "type": "function"
    },
    {
      "inputs": [
        {
          "internalType": "address",
          "name": "owner",
          "type": "address"
        }
      ],
      "name": "balanceOf",
      "outputs": [
        {
          "internalType": "uint256",
          "name": "",
          "type": "uint256"
        }
      ],
      "stateMutability": "view",
      "type": "function"
    },
    {
      "inputs": [
        {
          "internalType": "uint256",
          "name": "tokenId",
          "type": "uint256"
        }
      ],
      "name": "getApproved",
      "outputs": [
        {
          "internalType": "address",
          "name": "",
          "type": "address"
        }
      ],
      "stateMutability": "view",
      "type": "function"
    },
    {
      "inputs": [
        {
          "internalType": "bytes32",
          "name": "role",
          "type": "bytes32"
        }
      ],
      "name": "getRoleAdmin",
      "outputs": [
        {
          "internalType": "bytes32",
          "name": "",
          "type": "bytes32"
        }
      ],
      "stateMutability": "view",
      "type": "function"
    },
    {
      "inputs": [
        {
          "internalType": "bytes32",
          "name": "role",
          "type": "bytes32"
        },
        {
          "internalType": "address",
          "name": "account",
          "type": "address"
        }
      ],
      "name": "grantRole",
      "outputs": [],
      "stateMutability": "nonpayable",
      "type": "function"
    },
    {
      "inputs": [
        {
          "internalType": "bytes32",
          "name": "role",
          "type": "bytes32"
        },
        {
          "internalType": "address",
          "name": "account",
          "type": "address"
        }
      ],
      "name": "hasRole",
      "outputs": [
        {
          "internalType": "bool",
          "name": "",
          "type": "bool"
        }
      ],
      "stateMutability": "view",
      "type": "function"
    },
    {
      "inputs": [
        {
          "internalType": "address",
          "name": "owner",
          "type": "address"
        },
        {
          "internalType": "address",
          "name": "operator",
          "type": "address"
        }
      ],
      "name": "isApprovedForAll",
      "outputs": [
        {
          "internalType": "bool",
          "name": "",
          "type": "bool"
        }
      ],
      "stateMutability": "view",
      "type": "function"
    },
    {
      "inputs": [
        {
          "internalType": "address",
          "name": "account",
          "type": "address"
        },
        {
          "internalType": "uint256",
          "name": "tokenId",
          "type": "uint256"
        }
      ],
      "name": "mint",
      "outputs": [],
      "stateMutability": "nonpayable",
      "type": "function"
    },
    {
      "inputs": [],
      "name": "name",
      "outputs": [
        {
          "internalType": "string",
          "name": "",
          "type": "string"
        }
      ],
      "stateMutability": "view",
      "type": "function"
    },
    {
      "inputs": [
        {
          "internalType": "uint256",
          "name": "tokenId",
          "type": "uint256"
        }
      ],
      "name": "ownerOf",
      "outputs": [
        {
          "internalType": "address",
          "name": "",
          "type": "address"
        }
      ],
      "stateMutability": "view",
      "type": "function"
    },
    {
      "inputs": [
        {
          "internalType": "bytes32",
          "name": "role",
          "type": "bytes32"
        },
        {
          "internalType": "address",
          "name": "account",
          "type": "address"
        }
      ],
      "name": "renounceRole",
      "outputs": [],
      "stateMutability": "nonpayable",
      "type": "function"
    },
    {
      "inputs": [
        {
          "internalType": "bytes32",
          "name": "role",
          "type": "bytes32"
        },
        {
          "internalType": "address",
          "name": "account",
          "type": "address"
        }
      ],
      "name": "revokeRole",
      "outputs": [],
      "stateMutability": "nonpayable",
      "type": "function"
    },
    {
      "inputs": [
        {
          "internalType": "address",
          "name": "from",
          "type": "address"
        },
        {
          "internalType": "address",
          "name": "to",
          "type": "address"
        },
        {
          "internalType": "uint256",
          "name": "tokenId",
          "type": "uint256"
        }
      ],
      "name": "safeTransferFrom",
      "outputs": [],
      "stateMutability": "nonpayable",
      "type": "function"
    },
    {
      "inputs": [
        {
          "internalType": "address",
          "name": "from",
          "type": "address"
        },
        {
          "internalType": "address",
          "name": "to",
          "type": "address"
        },
        {
          "internalType": "uint256",
          "name": "tokenId",
          "type": "uint256"
        },
        {
          "internalType": "bytes",
          "name": "_data",
          "type": "bytes"
        }
      ],
      "name": "safeTransferFrom",
      "outputs": [],
      "stateMutability": "nonpayable",
      "type": "function"
    },
    {
      "inputs": [
        {
          "internalType": "address",
          "name": "operator",
          "type": "address"
        },
        {
          "internalType": "bool",
          "name": "approved",
          "type": "bool"
        }
      ],
      "name": "setApprovalForAll",
      "outputs": [],
      "stateMutability": "nonpayable",
      "type": "function"
    },
    {
      "inputs": [
        {
          "internalType": "bytes4",
          "name": "interfaceId",
          "type": "bytes4"
        }
      ],
      "name": "supportsInterface",
      "outputs": [
        {
          "internalType": "bool",
          "name": "",
          "type": "bool"
        }
      ],
      "stateMutability": "view",
      "type": "function"
    },
    {
      "inputs": [],
      "name": "symbol",
      "outputs": [
        {
          "internalType": "string",
          "name": "",
          "type": "string"
        }
      ],
      "stateMutability": "view",
      "type": "function"
    },
    {
      "inputs": [
        {
          "internalType": "uint256",
          "name": "tokenId",
          "type": "uint256"
        }
      ],
      "name": "tokenURI",
      "outputs": [
        {
          "internalType": "string",
          "name": "",
          "type": "string"
        }
      ],
      "stateMutability": "view",
      "type": "function"
    },
    {
      "inputs": [
        {
          "internalType": "address",
          "name": "from",
          "type": "address"
        },
        {
          "internalType": "address",
          "name": "to",
          "type": "address"
        },
        {
          "internalType": "uint256",
          "name": "tokenId",
          "type": "uint256"
        }
      ],
      "name": "transferFrom",
      "outputs": [],
      "stateMutability": "nonpayable",
      "type": "function"
    }
  ],
  "bytecode": "0x60806040523480156200001157600080fd5b506040516200385a3803806200385a833981810160405281019062000037919062000336565b818181600090805190602001906200005192919062000214565b5080600190805190602001906200006a92919062000214565b505050620000916000801b620000856200009960201b60201c565b620000a160201b60201c565b505062000519565b600033905090565b620000b38282620000b760201b60201c565b5050565b620000c98282620001a960201b60201c565b620001a55760016006600084815260200190815260200160002060000160008373ffffffffffffffffffffffffffffffffffffffff1673ffffffffffffffffffffffffffffffffffffffff16815260200190815260200160002060006101000a81548160ff0219169083151502179055506200014a6200009960201b60201c565b73ffffffffffffffffffffffffffffffffffffffff168173ffffffffffffffffffffffffffffffffffffffff16837f2f8788117e7eff1d82e926ec794901d17c78024a50270940304540a733656f0d60405160405180910390a45b5050565b60006006600084815260200190815260200160002060000160008373ffffffffffffffffffffffffffffffffffffffff1673ffffffffffffffffffffffffffffffffffffffff16815260200190815260200160002060009054906101000a900460ff16905092915050565b82805462000222906200043e565b90600052602060002090601f01602090048101928262000246576000855562000292565b82601f106200026157805160ff191683800117855562000292565b8280016001018555821562000292579182015b828111156200029157825182559160200191906001019062000274565b5b509050620002a19190620002a5565b5090565b5b80821115620002c0576000816000905550600101620002a6565b5090565b6000620002db620002d584620003d2565b620003a9565b905082815260208101848484011115620002f457600080fd5b6200030184828562000408565b509392505050565b600082601f8301126200031b57600080fd5b81516200032d848260208601620002c4565b91505092915050565b600080604083850312156200034a57600080fd5b600083015167ffffffffffffffff8111156200036557600080fd5b620003738582860162000309565b925050602083015167ffffffffffffffff8111156200039157600080fd5b6200039f8582860162000309565b9150509250929050565b6000620003b5620003c8565b9050620003c3828262000474565b919050565b6000604051905090565b600067ffffffffffffffff821115620003f057620003ef620004d9565b5b620003fb8262000508565b9050602081019050919050565b60005b83811015620004285780820151818401526020810190506200040b565b8381111562000438576000848401525b50505050565b600060028204905060018216806200045757607f821691505b602082108114156200046e576200046d620004aa565b5b50919050565b6200047f8262000508565b810181811067ffffffffffffffff82111715620004a157620004a0620004d9565b5b80604052505050565b7f4e487b7100000000000000000000000000000000000000000000000000000000600052602260045260246000fd5b7f4e487b7100000000000000000000000000000000000000000000000000000000600052604160045260246000fd5b6000601f19601f8301169050919050565b61333180620005296000396000f3fe608060405234801561001057600080fd5b50600436106101375760003560e01c80636352211e116100b8578063a22cb4651161007c578063a22cb4651461035e578063b88d4fde1461037a578063c87b56dd14610396578063d5391393146103c6578063d547741f146103e4578063e985e9c51461040057610137565b80636352211e1461029257806370a08231146102c257806391d14854146102f257806395d89b4114610322578063a217fddf1461034057610137565b8063248a9ca3116100ff578063248a9ca3146101f25780632f2ff15d1461022257806336568abe1461023e57806340c10f191461025a57806342842e0e1461027657610137565b806301ffc9a71461013c57806306fdde031461016c578063081812fc1461018a578063095ea7b3146101ba57806323b872dd146101d6575b600080fd5b61015660048036038101906101519190612294565b610430565b6040516101639190612729565b60405180910390f35b610174610442565b604051610181919061275f565b60405180910390f35b6101a4600480360381019061019f91906122e6565b6104d4565b6040516101b191906126c2565b60405180910390f35b6101d460048036038101906101cf91906121f3565b610559565b005b6101f060048036038101906101eb91906120ed565b610671565b005b61020c6004803603810190610207919061222f565b6106d1565b6040516102199190612744565b60405180910390f35b61023c60048036038101906102379190612258565b6106f1565b005b61025860048036038101906102539190612258565b61071a565b005b610274600480360381019061026f91906121f3565b61079d565b005b610290600480360381019061028b91906120ed565b6107de565b005b6102ac60048036038101906102a791906122e6565b6107fe565b6040516102b991906126c2565b60405180910390f35b6102dc60048036038101906102d79190612088565b6108b0565b6040516102e99190612981565b60405180910390f35b61030c60048036038101906103079190612258565b610968565b6040516103199190612729565b60405180910390f35b61032a6109d3565b604051610337919061275f565b60405180910390f35b610348610a65565b6040516103559190612744565b60405180910390f35b610378600480360381019061037391906121b7565b610a6c565b005b610394600480360381019061038f919061213c565b610a82565b005b6103b060048036038101906103ab91906122e6565b610ae4565b6040516103bd919061275f565b60405180910390f35b6103ce610b8b565b6040516103db9190612744565b60405180910390f35b6103fe60048036038101906103f99190612258565b610baf565b005b61041a600480360381019061041591906120b1565b610bd8565b6040516104279190612729565b60405180910390f35b600061043b82610c6c565b9050919050565b60606000805461045190612c34565b80601f016020809104026020016040519081016040528092919081815260200182805461047d90612c34565b80156104ca5780601f1061049f576101008083540402835291602001916104ca565b820191906000526020600020905b8154815290600101906020018083116104ad57829003601f168201915b5050505050905090565b60006104df82610ce6565b61051e576040517f08c379a0000000000000000000000000000000000000000000000000000000008152600401610515906128e1565b60405180910390fd5b6004600083815260200190815260200160002060009054906101000a900473ffffffffffffffffffffffffffffffffffffffff169050919050565b6000610564826107fe565b90508073ffffffffffffffffffffffffffffffffffffffff168373ffffffffffffffffffffffffffffffffffffffff1614156105d5576040517f08c379a00000000000000000000000000000000000000000000000000000000081526004016105cc90612921565b60405180910390fd5b8073ffffffffffffffffffffffffffffffffffffffff166105f4610d52565b73ffffffffffffffffffffffffffffffffffffffff16148061062357506106228161061d610d52565b610bd8565b5b610662576040517f08c379a000000000000000000000000000000000000000000000000000000000815260040161065990612861565b60405180910390fd5b61066c8383610d5a565b505050565b61068261067c610d52565b82610e13565b6106c1576040517f08c379a00000000000000000000000000000000000000000000000000000000081526004016106b890612941565b60405180910390fd5b6106cc838383610ef1565b505050565b600060066000838152602001908152602001600020600101549050919050565b6106fa826106d1565b61070b81610706610d52565b611158565b61071583836111f5565b505050565b610722610d52565b73ffffffffffffffffffffffffffffffffffffffff168173ffffffffffffffffffffffffffffffffffffffff161461078f576040517f08c379a000000000000000000000000000000000000000000000000000000000815260040161078690612961565b60405180910390fd5b61079982826112d6565b5050565b7f9f2df0fed2c77648de5860a4cc508cd0818c85b8b8a1ab4ceeef8d981c8956a66107cf816107ca610d52565b611158565b6107d983836113b8565b505050565b6107f983838360405180602001604052806000815250610a82565b505050565b6000806002600084815260200190815260200160002060009054906101000a900473ffffffffffffffffffffffffffffffffffffffff169050600073ffffffffffffffffffffffffffffffffffffffff168173ffffffffffffffffffffffffffffffffffffffff1614156108a7576040517f08c379a000000000000000000000000000000000000000000000000000000000815260040161089e906128a1565b60405180910390fd5b80915050919050565b60008073ffffffffffffffffffffffffffffffffffffffff168273ffffffffffffffffffffffffffffffffffffffff161415610921576040517f08c379a000000000000000000000000000000000000000000000000000000000815260040161091890612881565b60405180910390fd5b600360008373ffffffffffffffffffffffffffffffffffffffff1673ffffffffffffffffffffffffffffffffffffffff168152602001908152602001600020549050919050565b60006006600084815260200190815260200160002060000160008373ffffffffffffffffffffffffffffffffffffffff1673ffffffffffffffffffffffffffffffffffffffff16815260200190815260200160002060009054906101000a900460ff16905092915050565b6060600180546109e290612c34565b80601f0160208091040260200160405190810160405280929190818152602001828054610a0e90612c34565b8015610a5b5780601f10610a3057610100808354040283529160200191610a5b565b820191906000526020600020905b815481529060010190602001808311610a3e57829003601f168201915b5050505050905090565b6000801b81565b610a7e610a77610d52565b83836113d6565b5050565b610a93610a8d610d52565b83610e13565b610ad2576040517f08c379a0000000000000000000000000000000000000000000000000000000008152600401610ac990612941565b60405180910390fd5b610ade84848484611543565b50505050565b6060610aef82610ce6565b610b2e576040517f08c379a0000000000000000000000000000000000000000000000000000000008152600401610b2590612901565b60405180910390fd5b6000610b3861159f565b90506000815111610b585760405180602001604052806000815250610b83565b80610b62846115b6565b604051602001610b73929190612664565b6040516020818303038152906040525b915050919050565b7f9f2df0fed2c77648de5860a4cc508cd0818c85b8b8a1ab4ceeef8d981c8956a681565b610bb8826106d1565b610bc981610bc4610d52565b611158565b610bd383836112d6565b505050565b6000600560008473ffffffffffffffffffffffffffffffffffffffff1673ffffffffffffffffffffffffffffffffffffffff16815260200190815260200160002060008373ffffffffffffffffffffffffffffffffffffffff1673ffffffffffffffffffffffffffffffffffffffff16815260200190815260200160002060009054906101000a900460ff16905092915050565b60007f7965db0b000000000000000000000000000000000000000000000000000000007bffffffffffffffffffffffffffffffffffffffffffffffffffffffff1916827bffffffffffffffffffffffffffffffffffffffffffffffffffffffff19161480610cdf5750610cde82611763565b5b9050919050565b60008073ffffffffffffffffffffffffffffffffffffffff166002600084815260200190815260200160002060009054906101000a900473ffffffffffffffffffffffffffffffffffffffff1673ffffffffffffffffffffffffffffffffffffffff1614159050919050565b600033905090565b816004600083815260200190815260200160002060006101000a81548173ffffffffffffffffffffffffffffffffffffffff021916908373ffffffffffffffffffffffffffffffffffffffff160217905550808273ffffffffffffffffffffffffffffffffffffffff16610dcd836107fe565b73ffffffffffffffffffffffffffffffffffffffff167f8c5be1e5ebec7d5bd14f71427d1e84f3dd0314c0f7b2291e5b200ac8c7c3b92560405160405180910390a45050565b6000610e1e82610ce6565b610e5d576040517f08c379a0000000000000000000000000000000000000000000000000000000008152600401610e5490612841565b60405180910390fd5b6000610e68836107fe565b90508073ffffffffffffffffffffffffffffffffffffffff168473ffffffffffffffffffffffffffffffffffffffff161480610ed757508373ffffffffffffffffffffffffffffffffffffffff16610ebf846104d4565b73ffffffffffffffffffffffffffffffffffffffff16145b80610ee85750610ee78185610bd8565b5b91505092915050565b8273ffffffffffffffffffffffffffffffffffffffff16610f11826107fe565b73ffffffffffffffffffffffffffffffffffffffff1614610f67576040517f08c379a0000000000000000000000000000000000000000000000000000000008152600401610f5e906127c1565b60405180910390fd5b600073ffffffffffffffffffffffffffffffffffffffff168273ffffffffffffffffffffffffffffffffffffffff161415610fd7576040517f08c379a0000000000000000000000000000000000000000000000000000000008152600401610fce90612801565b60405180910390fd5b610fe2838383611845565b610fed600082610d5a565b6001600360008573ffffffffffffffffffffffffffffffffffffffff1673ffffffffffffffffffffffffffffffffffffffff168152602001908152602001600020600082825461103d9190612b16565b925050819055506001600360008473ffffffffffffffffffffffffffffffffffffffff1673ffffffffffffffffffffffffffffffffffffffff16815260200190815260200160002060008282546110949190612a35565b92505081905550816002600083815260200190815260200160002060006101000a81548173ffffffffffffffffffffffffffffffffffffffff021916908373ffffffffffffffffffffffffffffffffffffffff160217905550808273ffffffffffffffffffffffffffffffffffffffff168473ffffffffffffffffffffffffffffffffffffffff167fddf252ad1be2c89b69c2b068fc378daa952ba7f163c4a11628f55a4df523b3ef60405160405180910390a461115383838361184a565b505050565b6111628282610968565b6111f1576111878173ffffffffffffffffffffffffffffffffffffffff16601461184f565b6111958360001c602061184f565b6040516020016111a6929190612688565b6040516020818303038152906040526040517f08c379a00000000000000000000000000000000000000000000000000000000081526004016111e8919061275f565b60405180910390fd5b5050565b6111ff8282610968565b6112d25760016006600084815260200190815260200160002060000160008373ffffffffffffffffffffffffffffffffffffffff1673ffffffffffffffffffffffffffffffffffffffff16815260200190815260200160002060006101000a81548160ff021916908315150217905550611277610d52565b73ffffffffffffffffffffffffffffffffffffffff168173ffffffffffffffffffffffffffffffffffffffff16837f2f8788117e7eff1d82e926ec794901d17c78024a50270940304540a733656f0d60405160405180910390a45b5050565b6112e08282610968565b156113b45760006006600084815260200190815260200160002060000160008373ffffffffffffffffffffffffffffffffffffffff1673ffffffffffffffffffffffffffffffffffffffff16815260200190815260200160002060006101000a81548160ff021916908315150217905550611359610d52565b73ffffffffffffffffffffffffffffffffffffffff168173ffffffffffffffffffffffffffffffffffffffff16837ff6391f5c32d9c69d2a47ea670b442974b53935d1edc7fd64eb21e047a839171b60405160405180910390a45b5050565b6113d2828260405180602001604052806000815250611b49565b5050565b8173ffffffffffffffffffffffffffffffffffffffff168373ffffffffffffffffffffffffffffffffffffffff161415611445576040517f08c379a000000000000000000000000000000000000000000000000000000000815260040161143c90612821565b60405180910390fd5b80600560008573ffffffffffffffffffffffffffffffffffffffff1673ffffffffffffffffffffffffffffffffffffffff16815260200190815260200160002060008473ffffffffffffffffffffffffffffffffffffffff1673ffffffffffffffffffffffffffffffffffffffff16815260200190815260200160002060006101000a81548160ff0219169083151502179055508173ffffffffffffffffffffffffffffffffffffffff168373ffffffffffffffffffffffffffffffffffffffff167f17307eab39ab6107e8899845ad3d59bd9653f200f220920489ca2b5937696c31836040516115369190612729565b60405180910390a3505050565b61154e848484610ef1565b61155a84848484611ba4565b611599576040517f08c379a0000000000000000000000000000000000000000000000000000000008152600401611590906127a1565b60405180910390fd5b50505050565b606060405180602001604052806000815250905090565b606060008214156115fe576040518060400160405280600181526020017f3000000000000000000000000000000000000000000000000000000000000000815250905061175e565b600082905060005b6000821461163057808061161990612c97565b915050600a826116299190612a8b565b9150611606565b60008167ffffffffffffffff811115611672577f4e487b7100000000000000000000000000000000000000000000000000000000600052604160045260246000fd5b6040519080825280601f01601f1916602001820160405280156116a45781602001600182028036833780820191505090505b5090505b60008514611757576001826116bd9190612b16565b9150600a856116cc9190612ce0565b60306116d89190612a35565b60f81b818381518110611714577f4e487b7100000000000000000000000000000000000000000000000000000000600052603260045260246000fd5b60200101907effffffffffffffffffffffffffffffffffffffffffffffffffffffffffffff1916908160001a905350600a856117509190612a8b565b94506116a8565b8093505050505b919050565b60007f80ac58cd000000000000000000000000000000000000000000000000000000007bffffffffffffffffffffffffffffffffffffffffffffffffffffffff1916827bffffffffffffffffffffffffffffffffffffffffffffffffffffffff1916148061182e57507f5b5e139f000000000000000000000000000000000000000000000000000000007bffffffffffffffffffffffffffffffffffffffffffffffffffffffff1916827bffffffffffffffffffffffffffffffffffffffffffffffffffffffff1916145b8061183e575061183d82611d3b565b5b9050919050565b505050565b505050565b6060600060028360026118629190612abc565b61186c9190612a35565b67ffffffffffffffff8111156118ab577f4e487b7100000000000000000000000000000000000000000000000000000000600052604160045260246000fd5b6040519080825280601f01601f1916602001820160405280156118dd5781602001600182028036833780820191505090505b5090507f30000000000000000000000000000000000000000000000000000000000000008160008151811061193b577f4e487b7100000000000000000000000000000000000000000000000000000000600052603260045260246000fd5b60200101907effffffffffffffffffffffffffffffffffffffffffffffffffffffffffffff1916908160001a9053507f7800000000000000000000000000000000000000000000000000000000000000816001815181106119c5577f4e487b7100000000000000000000000000000000000000000000000000000000600052603260045260246000fd5b60200101907effffffffffffffffffffffffffffffffffffffffffffffffffffffffffffff1916908160001a90535060006001846002611a059190612abc565b611a0f9190612a35565b90505b6001811115611afb577f3031323334353637383961626364656600000000000000000000000000000000600f861660108110611a77577f4e487b7100000000000000000000000000000000000000000000000000000000600052603260045260246000fd5b1a60f81b828281518110611ab4577f4e487b7100000000000000000000000000000000000000000000000000000000600052603260045260246000fd5b60200101907effffffffffffffffffffffffffffffffffffffffffffffffffffffffffffff1916908160001a905350600485901c945080611af490612c0a565b9050611a12565b5060008414611b3f576040517f08c379a0000000000000000000000000000000000000000000000000000000008152600401611b3690612781565b60405180910390fd5b8091505092915050565b611b538383611da5565b611b606000848484611ba4565b611b9f576040517f08c379a0000000000000000000000000000000000000000000000000000000008152600401611b96906127a1565b60405180910390fd5b505050565b6000611bc58473ffffffffffffffffffffffffffffffffffffffff16611f7f565b15611d2e578373ffffffffffffffffffffffffffffffffffffffff1663150b7a02611bee610d52565b8786866040518563ffffffff1660e01b8152600401611c1094939291906126dd565b602060405180830381600087803b158015611c2a57600080fd5b505af1925050508015611c5b57506040513d601f19601f82011682018060405250810190611c5891906122bd565b60015b611cde573d8060008114611c8b576040519150601f19603f3d011682016040523d82523d6000602084013e611c90565b606091505b50600081511415611cd6576040517f08c379a0000000000000000000000000000000000000000000000000000000008152600401611ccd906127a1565b60405180910390fd5b805181602001fd5b63150b7a0260e01b7bffffffffffffffffffffffffffffffffffffffffffffffffffffffff1916817bffffffffffffffffffffffffffffffffffffffffffffffffffffffff191614915050611d33565b600190505b949350505050565b60007f01ffc9a7000000000000000000000000000000000000000000000000000000007bffffffffffffffffffffffffffffffffffffffffffffffffffffffff1916827bffffffffffffffffffffffffffffffffffffffffffffffffffffffff1916149050919050565b600073ffffffffffffffffffffffffffffffffffffffff168273ffffffffffffffffffffffffffffffffffffffff161415611e15576040517f08c379a0000000000000000000000000000000000000000000000000000000008152600401611e0c906128c1565b60405180910390fd5b611e1e81610ce6565b15611e5e576040517f08c379a0000000000000000000000000000000000000000000000000000000008152600401611e55906127e1565b60405180910390fd5b611e6a60008383611845565b6001600360008473ffffffffffffffffffffffffffffffffffffffff1673ffffffffffffffffffffffffffffffffffffffff1681526020019081526020016000206000828254611eba9190612a35565b92505081905550816002600083815260200190815260200160002060006101000a81548173ffffffffffffffffffffffffffffffffffffffff021916908373ffffffffffffffffffffffffffffffffffffffff160217905550808273ffffffffffffffffffffffffffffffffffffffff16600073ffffffffffffffffffffffffffffffffffffffff167fddf252ad1be2c89b69c2b068fc378daa952ba7f163c4a11628f55a4df523b3ef60405160405180910390a4611f7b6000838361184a565b5050565b6000808273ffffffffffffffffffffffffffffffffffffffff163b119050919050565b6000611fb5611fb0846129c1565b61299c565b905082815260208101848484011115611fcd57600080fd5b611fd8848285612bc8565b509392505050565b600081359050611fef81613288565b92915050565b6000813590506120048161329f565b92915050565b600081359050612019816132b6565b92915050565b60008135905061202e816132cd565b92915050565b600081519050612043816132cd565b92915050565b600082601f83011261205a57600080fd5b813561206a848260208601611fa2565b91505092915050565b600081359050612082816132e4565b92915050565b60006020828403121561209a57600080fd5b60006120a884828501611fe0565b91505092915050565b600080604083850312156120c457600080fd5b60006120d285828601611fe0565b92505060206120e385828601611fe0565b9150509250929050565b60008060006060848603121561210257600080fd5b600061211086828701611fe0565b935050602061212186828701611fe0565b925050604061213286828701612073565b9150509250925092565b6000806000806080858703121561215257600080fd5b600061216087828801611fe0565b945050602061217187828801611fe0565b935050604061218287828801612073565b925050606085013567ffffffffffffffff81111561219f57600080fd5b6121ab87828801612049565b91505092959194509250565b600080604083850312156121ca57600080fd5b60006121d885828601611fe0565b92505060206121e985828601611ff5565b9150509250929050565b6000806040838503121561220657600080fd5b600061221485828601611fe0565b925050602061222585828601612073565b9150509250929050565b60006020828403121561224157600080fd5b600061224f8482850161200a565b91505092915050565b6000806040838503121561226b57600080fd5b60006122798582860161200a565b925050602061228a85828601611fe0565b9150509250929050565b6000602082840312156122a657600080fd5b60006122b48482850161201f565b91505092915050565b6000602082840312156122cf57600080fd5b60006122dd84828501612034565b91505092915050565b6000602082840312156122f857600080fd5b600061230684828501612073565b91505092915050565b61231881612b4a565b82525050565b61232781612b5c565b82525050565b61233681612b68565b82525050565b6000612347826129f2565b6123518185612a08565b9350612361818560208601612bd7565b61236a81612dcd565b840191505092915050565b6000612380826129fd565b61238a8185612a19565b935061239a818560208601612bd7565b6123a381612dcd565b840191505092915050565b60006123b9826129fd565b6123c38185612a2a565b93506123d3818560208601612bd7565b80840191505092915050565b60006123ec602083612a19565b91506123f782612dde565b602082019050919050565b600061240f603283612a19565b915061241a82612e07565b604082019050919050565b6000612432602583612a19565b915061243d82612e56565b604082019050919050565b6000612455601c83612a19565b915061246082612ea5565b602082019050919050565b6000612478602483612a19565b915061248382612ece565b604082019050919050565b600061249b601983612a19565b91506124a682612f1d565b602082019050919050565b60006124be602c83612a19565b91506124c982612f46565b604082019050919050565b60006124e1603883612a19565b91506124ec82612f95565b604082019050919050565b6000612504602a83612a19565b915061250f82612fe4565b604082019050919050565b6000612527602983612a19565b915061253282613033565b604082019050919050565b600061254a602083612a19565b915061255582613082565b602082019050919050565b600061256d602c83612a19565b9150612578826130ab565b604082019050919050565b6000612590602f83612a19565b915061259b826130fa565b604082019050919050565b60006125b3602183612a19565b91506125be82613149565b604082019050919050565b60006125d6603183612a19565b91506125e182613198565b604082019050919050565b60006125f9601783612a2a565b9150612604826131e7565b601782019050919050565b600061261c601183612a2a565b915061262782613210565b601182019050919050565b600061263f602f83612a19565b915061264a82613239565b604082019050919050565b61265e81612bbe565b82525050565b600061267082856123ae565b915061267c82846123ae565b91508190509392505050565b6000612693826125ec565b915061269f82856123ae565b91506126aa8261260f565b91506126b682846123ae565b91508190509392505050565b60006020820190506126d7600083018461230f565b92915050565b60006080820190506126f2600083018761230f565b6126ff602083018661230f565b61270c6040830185612655565b818103606083015261271e818461233c565b905095945050505050565b600060208201905061273e600083018461231e565b92915050565b6000602082019050612759600083018461232d565b92915050565b600060208201905081810360008301526127798184612375565b905092915050565b6000602082019050818103600083015261279a816123df565b9050919050565b600060208201905081810360008301526127ba81612402565b9050919050565b600060208201905081810360008301526127da81612425565b9050919050565b600060208201905081810360008301526127fa81612448565b9050919050565b6000602082019050818103600083015261281a8161246b565b9050919050565b6000602082019050818103600083015261283a8161248e565b9050919050565b6000602082019050818103600083015261285a816124b1565b9050919050565b6000602082019050818103600083015261287a816124d4565b9050919050565b6000602082019050818103600083015261289a816124f7565b9050919050565b600060208201905081810360008301526128ba8161251a565b9050919050565b600060208201905081810360008301526128da8161253d565b9050919050565b600060208201905081810360008301526128fa81612560565b9050919050565b6000602082019050818103600083015261291a81612583565b9050919050565b6000602082019050818103600083015261293a816125a6565b9050919050565b6000602082019050818103600083015261295a816125c9565b9050919050565b6000602082019050818103600083015261297a81612632565b9050919050565b60006020820190506129966000830184612655565b92915050565b60006129a66129b7565b90506129b28282612c66565b919050565b6000604051905090565b600067ffffffffffffffff8211156129dc576129db612d9e565b5b6129e582612dcd565b9050602081019050919050565b600081519050919050565b600081519050919050565b600082825260208201905092915050565b600082825260208201905092915050565b600081905092915050565b6000612a4082612bbe565b9150612a4b83612bbe565b9250827fffffffffffffffffffffffffffffffffffffffffffffffffffffffffffffffff03821115612a8057612a7f612d11565b5b828201905092915050565b6000612a9682612bbe565b9150612aa183612bbe565b925082612ab157612ab0612d40565b5b828204905092915050565b6000612ac782612bbe565b9150612ad283612bbe565b9250817fffffffffffffffffffffffffffffffffffffffffffffffffffffffffffffffff0483118215151615612b0b57612b0a612d11565b5b828202905092915050565b6000612b2182612bbe565b9150612b2c83612bbe565b925082821015612b3f57612b3e612d11565b5b828203905092915050565b6000612b5582612b9e565b9050919050565b60008115159050919050565b6000819050919050565b60007fffffffff0000000000000000000000000000000000000000000000000000000082169050919050565b600073ffffffffffffffffffffffffffffffffffffffff82169050919050565b6000819050919050565b82818337600083830152505050565b60005b83811015612bf5578082015181840152602081019050612bda565b83811115612c04576000848401525b50505050565b6000612c1582612bbe565b91506000821415612c2957612c28612d11565b5b600182039050919050565b60006002820490506001821680612c4c57607f821691505b60208210811415612c6057612c5f612d6f565b5b50919050565b612c6f82612dcd565b810181811067ffffffffffffffff82111715612c8e57612c8d612d9e565b5b80604052505050565b6000612ca282612bbe565b91507fffffffffffffffffffffffffffffffffffffffffffffffffffffffffffffffff821415612cd557612cd4612d11565b5b600182019050919050565b6000612ceb82612bbe565b9150612cf683612bbe565b925082612d0657612d05612d40565b5b828206905092915050565b7f4e487b7100000000000000000000000000000000000000000000000000000000600052601160045260246000fd5b7f4e487b7100000000000000000000000000000000000000000000000000000000600052601260045260246000fd5b7f4e487b7100000000000000000000000000000000000000000000000000000000600052602260045260246000fd5b7f4e487b7100000000000000000000000000000000000000000000000000000000600052604160045260246000fd5b6000601f19601f8301169050919050565b7f537472696e67733a20686578206c656e67746820696e73756666696369656e74600082015250565b7f4552433732313a207472616e7366657220746f206e6f6e20455243373231526560008201527f63656976657220696d706c656d656e7465720000000000000000000000000000602082015250565b7f4552433732313a207472616e736665722066726f6d20696e636f72726563742060008201527f6f776e6572000000000000000000000000000000000000000000000000000000602082015250565b7f4552433732313a20746f6b656e20616c7265616479206d696e74656400000000600082015250565b7f4552433732313a207472616e7366657220746f20746865207a65726f2061646460008201527f7265737300000000000000000000000000000000000000000000000000000000602082015250565b7f4552433732313a20617070726f766520746f2063616c6c657200000000000000600082015250565b7f4552433732313a206f70657261746f7220717565727920666f72206e6f6e657860008201527f697374656e7420746f6b656e0000000000000000000000000000000000000000602082015250565b7f4552433732313a20617070726f76652063616c6c6572206973206e6f74206f7760008201527f6e6572206e6f7220617070726f76656420666f7220616c6c0000000000000000602082015250565b7f4552433732313a2062616c616e636520717565727920666f7220746865207a6560008201527f726f206164647265737300000000000000000000000000000000000000000000602082015250565b7f4552433732313a206f776e657220717565727920666f72206e6f6e657869737460008201527f656e7420746f6b656e0000000000000000000000000000000000000000000000602082015250565b7f4552433732313a206d696e7420746f20746865207a65726f2061646472657373600082015250565b7f4552433732313a20617070726f76656420717565727920666f72206e6f6e657860008201527f697374656e7420746f6b656e0000000000000000000000000000000000000000602082015250565b7f4552433732314d657461646174613a2055524920717565727920666f72206e6f60008201527f6e6578697374656e7420746f6b656e0000000000000000000000000000000000602082015250565b7f4552433732313a20617070726f76616c20746f2063757272656e74206f776e6560008201527f7200000000000000000000000000000000000000000000000000000000000000602082015250565b7f4552433732313a207472616e736665722063616c6c6572206973206e6f74206f60008201527f776e6572206e6f7220617070726f766564000000000000000000000000000000602082015250565b7f416363657373436f6e74726f6c3a206163636f756e7420000000000000000000600082015250565b7f206973206d697373696e6720726f6c6520000000000000000000000000000000600082015250565b7f416363657373436f6e74726f6c3a2063616e206f6e6c792072656e6f756e636560008201527f20726f6c657320666f722073656c660000000000000000000000000000000000602082015250565b61329181612b4a565b811461329c57600080fd5b50565b6132a881612b5c565b81146132b357600080fd5b50565b6132bf81612b68565b81146132ca57600080fd5b50565b6132d681612b72565b81146132e157600080fd5b50565b6132ed81612bbe565b81146132f857600080fd5b5056fea26469706673582212200bd187c87976bf2a07b92db638ded4cb6f376dfebc2c2d2da41e726a4c51cd4064736f6c63430008040033",
  "linkReferences": {},
  "deployedLinkReferences": {}
}