{
  "_format": "hh-sol-artifact-1",
  "contractName": "ERC721LazyMintWith712SignatureChecker",
  "sourceName": "contracts/ERC721LazyMintWith712SignatureChecker.sol",
  "abi": [
    {
      "inputs": [
        {
          "internalType": "string",
          "name": "name",
          "type": "string"
        },
        {
          "internalType": "string",
          "name": "symbol",
          "type": "string"
        }
      ],
      "stateMutability": "nonpayable",
      "type": "constructor"
    },
    {
      "anonymous": false,
      "inputs": [
        {
          "indexed": true,
          "internalType": "address",
          "name": "owner",
          "type": "address"
        },
        {
          "indexed": true,
          "internalType": "address",
          "name": "approved",
          "type": "address"
        },
        {
          "indexed": true,
          "internalType": "uint256",
          "name": "tokenId",
          "type": "uint256"
        }
      ],
      "name": "Approval",
      "type": "event"
    },
    {
      "anonymous": false,
      "inputs": [
        {
          "indexed": true,
          "internalType": "address",
          "name": "owner",
          "type": "address"
        },
        {
          "indexed": true,
          "internalType": "address",
          "name": "operator",
          "type": "address"
        },
        {
          "indexed": false,
          "internalType": "bool",
          "name": "approved",
          "type": "bool"
        }
      ],
      "name": "ApprovalForAll",
      "type": "event"
    },
    {
      "anonymous": false,
      "inputs": [
        {
          "indexed": true,
          "internalType": "bytes32",
          "name": "role",
          "type": "bytes32"
        },
        {
          "indexed": true,
          "internalType": "bytes32",
          "name": "previousAdminRole",
          "type": "bytes32"
        },
        {
          "indexed": true,
          "internalType": "bytes32",
          "name": "newAdminRole",
          "type": "bytes32"
        }
      ],
      "name": "RoleAdminChanged",
      "type": "event"
    },
    {
      "anonymous": false,
      "inputs": [
        {
          "indexed": true,
          "internalType": "bytes32",
          "name": "role",
          "type": "bytes32"
        },
        {
          "indexed": true,
          "internalType": "address",
          "name": "account",
          "type": "address"
        },
        {
          "indexed": true,
          "internalType": "address",
          "name": "sender",
          "type": "address"
        }
      ],
      "name": "RoleGranted",
      "type": "event"
    },
    {
      "anonymous": false,
      "inputs": [
        {
          "indexed": true,
          "internalType": "bytes32",
          "name": "role",
          "type": "bytes32"
        },
        {
          "indexed": true,
          "internalType": "address",
          "name": "account",
          "type": "address"
        },
        {
          "indexed": true,
          "internalType": "address",
          "name": "sender",
          "type": "address"
        }
      ],
      "name": "RoleRevoked",
      "type": "event"
    },
    {
      "anonymous": false,
      "inputs": [
        {
          "indexed": true,
          "internalType": "address",
          "name": "from",
          "type": "address"
        },
        {
          "indexed": true,
          "internalType": "address",
          "name": "to",
          "type": "address"
        },
        {
          "indexed": true,
          "internalType": "uint256",
          "name": "tokenId",
          "type": "uint256"
        }
      ],
      "name": "Transfer",
      "type": "event"
    },
    {
      "inputs": [],
      "name": "DEFAULT_ADMIN_ROLE",
      "outputs": [
        {
          "internalType": "bytes32",
          "name": "",
          "type": "bytes32"
        }
      ],
      "stateMutability": "view",
      "type": "function"
    },
    {
      "inputs": [],
      "name": "MINTER_ROLE",
      "outputs": [
        {
          "internalType": "bytes32",
          "name": "",
          "type": "bytes32"
        }
      ],
      "stateMutability": "view",
      "type": "function"
    },
    {
      "inputs": [
        {
          "internalType": "address",
          "name": "to",
          "type": "address"
        },
        {
          "internalType": "uint256",
          "name": "tokenId",
          "type": "uint256"
        }
      ],
      "name": "approve",
      "outputs": [],
      "stateMutability": "nonpayable",
      "type": "function"
    },
    {
      "inputs": [
        {
          "internalType": "address",
          "name": "owner",
          "type": "address"
        }
      ],
      "name": "balanceOf",
      "outputs": [
        {
          "internalType": "uint256",
          "name": "",
          "type": "uint256"
        }
      ],
      "stateMutability": "view",
      "type": "function"
    },
    {
      "inputs": [
        {
          "internalType": "uint256",
          "name": "tokenId",
          "type": "uint256"
        }
      ],
      "name": "getApproved",
      "outputs": [
        {
          "internalType": "address",
          "name": "",
          "type": "address"
        }
      ],
      "stateMutability": "view",
      "type": "function"
    },
    {
      "inputs": [
        {
          "internalType": "bytes32",
          "name": "role",
          "type": "bytes32"
        }
      ],
      "name": "getRoleAdmin",
      "outputs": [
        {
          "internalType": "bytes32",
          "name": "",
          "type": "bytes32"
        }
      ],
      "stateMutability": "view",
      "type": "function"
    },
    {
      "inputs": [
        {
          "internalType": "bytes32",
          "name": "role",
          "type": "bytes32"
        },
        {
          "internalType": "address",
          "name": "account",
          "type": "address"
        }
      ],
      "name": "grantRole",
      "outputs": [],
      "stateMutability": "nonpayable",
      "type": "function"
    },
    {
      "inputs": [
        {
          "internalType": "bytes32",
          "name": "role",
          "type": "bytes32"
        },
        {
          "internalType": "address",
          "name": "account",
          "type": "address"
        }
      ],
      "name": "hasRole",
      "outputs": [
        {
          "internalType": "bool",
          "name": "",
          "type": "bool"
        }
      ],
      "stateMutability": "view",
      "type": "function"
    },
    {
      "inputs": [
        {
          "internalType": "address",
          "name": "owner",
          "type": "address"
        },
        {
          "internalType": "address",
          "name": "operator",
          "type": "address"
        }
      ],
      "name": "isApprovedForAll",
      "outputs": [
        {
          "internalType": "bool",
          "name": "",
          "type": "bool"
        }
      ],
      "stateMutability": "view",
      "type": "function"
    },
    {
      "inputs": [],
      "name": "name",
      "outputs": [
        {
          "internalType": "string",
          "name": "",
          "type": "string"
        }
      ],
      "stateMutability": "view",
      "type": "function"
    },
    {
      "inputs": [
        {
          "internalType": "uint256",
          "name": "tokenId",
          "type": "uint256"
        }
      ],
      "name": "ownerOf",
      "outputs": [
        {
          "internalType": "address",
          "name": "",
          "type": "address"
        }
      ],
      "stateMutability": "view",
      "type": "function"
    },
    {
      "inputs": [
        {
          "internalType": "address",
          "name": "account",
          "type": "address"
        },
        {
          "internalType": "uint256",
          "name": "tokenId",
          "type": "uint256"
        },
        {
          "internalType": "address",
          "name": "signer",
          "type": "address"
        },
        {
          "internalType": "bytes",
          "name": "signature",
          "type": "bytes"
        }
      ],
      "name": "redeem",
      "outputs": [],
      "stateMutability": "nonpayable",
      "type": "function"
    },
    {
      "inputs": [
        {
          "internalType": "bytes32",
          "name": "role",
          "type": "bytes32"
        },
        {
          "internalType": "address",
          "name": "account",
          "type": "address"
        }
      ],
      "name": "renounceRole",
      "outputs": [],
      "stateMutability": "nonpayable",
      "type": "function"
    },
    {
      "inputs": [
        {
          "internalType": "bytes32",
          "name": "role",
          "type": "bytes32"
        },
        {
          "internalType": "address",
          "name": "account",
          "type": "address"
        }
      ],
      "name": "revokeRole",
      "outputs": [],
      "stateMutability": "nonpayable",
      "type": "function"
    },
    {
      "inputs": [
        {
          "internalType": "address",
          "name": "from",
          "type": "address"
        },
        {
          "internalType": "address",
          "name": "to",
          "type": "address"
        },
        {
          "internalType": "uint256",
          "name": "tokenId",
          "type": "uint256"
        }
      ],
      "name": "safeTransferFrom",
      "outputs": [],
      "stateMutability": "nonpayable",
      "type": "function"
    },
    {
      "inputs": [
        {
          "internalType": "address",
          "name": "from",
          "type": "address"
        },
        {
          "internalType": "address",
          "name": "to",
          "type": "address"
        },
        {
          "internalType": "uint256",
          "name": "tokenId",
          "type": "uint256"
        },
        {
          "internalType": "bytes",
          "name": "_data",
          "type": "bytes"
        }
      ],
      "name": "safeTransferFrom",
      "outputs": [],
      "stateMutability": "nonpayable",
      "type": "function"
    },
    {
      "inputs": [
        {
          "internalType": "address",
          "name": "operator",
          "type": "address"
        },
        {
          "internalType": "bool",
          "name": "approved",
          "type": "bool"
        }
      ],
      "name": "setApprovalForAll",
      "outputs": [],
      "stateMutability": "nonpayable",
      "type": "function"
    },
    {
      "inputs": [
        {
          "internalType": "bytes4",
          "name": "interfaceId",
          "type": "bytes4"
        }
      ],
      "name": "supportsInterface",
      "outputs": [
        {
          "internalType": "bool",
          "name": "",
          "type": "bool"
        }
      ],
      "stateMutability": "view",
      "type": "function"
    },
    {
      "inputs": [],
      "name": "symbol",
      "outputs": [
        {
          "internalType": "string",
          "name": "",
          "type": "string"
        }
      ],
      "stateMutability": "view",
      "type": "function"
    },
    {
      "inputs": [
        {
          "internalType": "uint256",
          "name": "tokenId",
          "type": "uint256"
        }
      ],
      "name": "tokenURI",
      "outputs": [
        {
          "internalType": "string",
          "name": "",
          "type": "string"
        }
      ],
      "stateMutability": "view",
      "type": "function"
    },
    {
      "inputs": [
        {
          "internalType": "address",
          "name": "from",
          "type": "address"
        },
        {
          "internalType": "address",
          "name": "to",
          "type": "address"
        },
        {
          "internalType": "uint256",
          "name": "tokenId",
          "type": "uint256"
        }
      ],
      "name": "transferFrom",
      "outputs": [],
      "stateMutability": "nonpayable",
      "type": "function"
    }
  ],
  "bytecode": "0x6101406040523480156200001257600080fd5b50604051620044b3380380620044b383398181016040528101906200003891906200045f565b816040518060400160405280600581526020017f312e302e3000000000000000000000000000000000000000000000000000000081525083838160009080519060200190620000899291906200033d565b508060019080519060200190620000a29291906200033d565b50505060008280519060200120905060008280519060200120905060007f8b73c3c69bb8fe3d512ecc4cf759cc79239f7b179b0ffacaa9a75d522b39400f90508260e081815250508161010081815250504660a081815250506200010e8184846200018660201b60201c565b608081815250503073ffffffffffffffffffffffffffffffffffffffff1660c08173ffffffffffffffffffffffffffffffffffffffff1660601b8152505080610120818152505050505050506200017e6000801b62000172620001c260201b60201c565b620001ca60201b60201c565b50506200071a565b60008383834630604051602001620001a395949392919062000505565b6040516020818303038152906040528051906020012090509392505050565b600033905090565b620001dc8282620001e060201b60201c565b5050565b620001f28282620002d260201b60201c565b620002ce5760016006600084815260200190815260200160002060000160008373ffffffffffffffffffffffffffffffffffffffff1673ffffffffffffffffffffffffffffffffffffffff16815260200190815260200160002060006101000a81548160ff02191690831515021790555062000273620001c260201b60201c565b73ffffffffffffffffffffffffffffffffffffffff168173ffffffffffffffffffffffffffffffffffffffff16837f2f8788117e7eff1d82e926ec794901d17c78024a50270940304540a733656f0d60405160405180910390a45b5050565b60006006600084815260200190815260200160002060000160008373ffffffffffffffffffffffffffffffffffffffff1673ffffffffffffffffffffffffffffffffffffffff16815260200190815260200160002060009054906101000a900460ff16905092915050565b8280546200034b906200063f565b90600052602060002090601f0160209004810192826200036f5760008555620003bb565b82601f106200038a57805160ff1916838001178555620003bb565b82800160010185558215620003bb579182015b82811115620003ba5782518255916020019190600101906200039d565b5b509050620003ca9190620003ce565b5090565b5b80821115620003e9576000816000905550600101620003cf565b5090565b600062000404620003fe846200058b565b62000562565b9050828152602081018484840111156200041d57600080fd5b6200042a84828562000609565b509392505050565b600082601f8301126200044457600080fd5b815162000456848260208601620003ed565b91505092915050565b600080604083850312156200047357600080fd5b600083015167ffffffffffffffff8111156200048e57600080fd5b6200049c8582860162000432565b925050602083015167ffffffffffffffff811115620004ba57600080fd5b620004c88582860162000432565b9150509250929050565b620004dd81620005c1565b82525050565b620004ee81620005d5565b82525050565b620004ff81620005ff565b82525050565b600060a0820190506200051c6000830188620004e3565b6200052b6020830187620004e3565b6200053a6040830186620004e3565b620005496060830185620004f4565b620005586080830184620004d2565b9695505050505050565b60006200056e62000581565b90506200057c828262000675565b919050565b6000604051905090565b600067ffffffffffffffff821115620005a957620005a8620006da565b5b620005b48262000709565b9050602081019050919050565b6000620005ce82620005df565b9050919050565b6000819050919050565b600073ffffffffffffffffffffffffffffffffffffffff82169050919050565b6000819050919050565b60005b83811015620006295780820151818401526020810190506200060c565b8381111562000639576000848401525b50505050565b600060028204905060018216806200065857607f821691505b602082108114156200066f576200066e620006ab565b5b50919050565b620006808262000709565b810181811067ffffffffffffffff82111715620006a257620006a1620006da565b5b80604052505050565b7f4e487b7100000000000000000000000000000000000000000000000000000000600052602260045260246000fd5b7f4e487b7100000000000000000000000000000000000000000000000000000000600052604160045260246000fd5b6000601f19601f8301169050919050565b60805160a05160c05160601c60e0516101005161012051613d466200076d60003960006121cd0152600061220f015260006121ee0152600061212301526000612179015260006121a20152613d466000f3fe608060405234801561001057600080fd5b50600436106101375760003560e01c806370a08231116100b8578063b88d4fde1161007c578063b88d4fde1461035e578063c87b56dd1461037a578063d5391393146103aa578063d547741f146103c8578063e26a9420146103e4578063e985e9c51461040057610137565b806370a08231146102a657806391d14854146102d657806395d89b4114610306578063a217fddf14610324578063a22cb4651461034257610137565b8063248a9ca3116100ff578063248a9ca3146101f25780632f2ff15d1461022257806336568abe1461023e57806342842e0e1461025a5780636352211e1461027657610137565b806301ffc9a71461013c57806306fdde031461016c578063081812fc1461018a578063095ea7b3146101ba57806323b872dd146101d6575b600080fd5b61015660048036038101906101519190612a2b565b610430565b6040516101639190612fab565b60405180910390f35b610174610442565b60405161018191906130e0565b60405180910390f35b6101a4600480360381019061019f9190612a7d565b6104d4565b6040516101b19190612f44565b60405180910390f35b6101d460048036038101906101cf919061290a565b610559565b005b6101f060048036038101906101eb9190612804565b610671565b005b61020c600480360381019061020791906129c6565b6106d1565b6040516102199190612fc6565b60405180910390f35b61023c600480360381019061023791906129ef565b6106f1565b005b610258600480360381019061025391906129ef565b61071a565b005b610274600480360381019061026f9190612804565b61079d565b005b610290600480360381019061028b9190612a7d565b6107bd565b60405161029d9190612f44565b60405180910390f35b6102c060048036038101906102bb919061279f565b61086f565b6040516102cd9190613322565b60405180910390f35b6102f060048036038101906102eb91906129ef565b610927565b6040516102fd9190612fab565b60405180910390f35b61030e610992565b60405161031b91906130e0565b60405180910390f35b61032c610a24565b6040516103399190612fc6565b60405180910390f35b61035c600480360381019061035791906128ce565b610a2b565b005b61037860048036038101906103739190612853565b610a41565b005b610394600480360381019061038f9190612a7d565b610aa3565b6040516103a191906130e0565b60405180910390f35b6103b2610b4a565b6040516103bf9190612fc6565b60405180910390f35b6103e260048036038101906103dd91906129ef565b610b6e565b005b6103fe60048036038101906103f99190612946565b610b97565b005b61041a600480360381019061041591906127c8565b610c3f565b6040516104279190612fab565b60405180910390f35b600061043b82610cd3565b9050919050565b606060008054610451906135ed565b80601f016020809104026020016040519081016040528092919081815260200182805461047d906135ed565b80156104ca5780601f1061049f576101008083540402835291602001916104ca565b820191906000526020600020905b8154815290600101906020018083116104ad57829003601f168201915b5050505050905090565b60006104df82610d4d565b61051e576040517f08c379a000000000000000000000000000000000000000000000000000000000815260040161051590613282565b60405180910390fd5b6004600083815260200190815260200160002060009054906101000a900473ffffffffffffffffffffffffffffffffffffffff169050919050565b6000610564826107bd565b90508073ffffffffffffffffffffffffffffffffffffffff168373ffffffffffffffffffffffffffffffffffffffff1614156105d5576040517f08c379a00000000000000000000000000000000000000000000000000000000081526004016105cc906132c2565b60405180910390fd5b8073ffffffffffffffffffffffffffffffffffffffff166105f4610db9565b73ffffffffffffffffffffffffffffffffffffffff16148061062357506106228161061d610db9565b610c3f565b5b610662576040517f08c379a000000000000000000000000000000000000000000000000000000000815260040161065990613202565b60405180910390fd5b61066c8383610dc1565b505050565b61068261067c610db9565b82610e7a565b6106c1576040517f08c379a00000000000000000000000000000000000000000000000000000000081526004016106b8906132e2565b60405180910390fd5b6106cc838383610f58565b505050565b600060066000838152602001908152602001600020600101549050919050565b6106fa826106d1565b61070b81610706610db9565b6111bf565b610715838361125c565b505050565b610722610db9565b73ffffffffffffffffffffffffffffffffffffffff168173ffffffffffffffffffffffffffffffffffffffff161461078f576040517f08c379a000000000000000000000000000000000000000000000000000000000815260040161078690613302565b60405180910390fd5b610799828261133d565b5050565b6107b883838360405180602001604052806000815250610a41565b505050565b6000806002600084815260200190815260200160002060009054906101000a900473ffffffffffffffffffffffffffffffffffffffff169050600073ffffffffffffffffffffffffffffffffffffffff168173ffffffffffffffffffffffffffffffffffffffff161415610866576040517f08c379a000000000000000000000000000000000000000000000000000000000815260040161085d90613242565b60405180910390fd5b80915050919050565b60008073ffffffffffffffffffffffffffffffffffffffff168273ffffffffffffffffffffffffffffffffffffffff1614156108e0576040517f08c379a00000000000000000000000000000000000000000000000000000000081526004016108d790613222565b60405180910390fd5b600360008373ffffffffffffffffffffffffffffffffffffffff1673ffffffffffffffffffffffffffffffffffffffff168152602001908152602001600020549050919050565b60006006600084815260200190815260200160002060000160008373ffffffffffffffffffffffffffffffffffffffff1673ffffffffffffffffffffffffffffffffffffffff16815260200190815260200160002060009054906101000a900460ff16905092915050565b6060600180546109a1906135ed565b80601f01602080910402602001604051908101604052809291908181526020018280546109cd906135ed565b8015610a1a5780601f106109ef57610100808354040283529160200191610a1a565b820191906000526020600020905b8154815290600101906020018083116109fd57829003601f168201915b5050505050905090565b6000801b81565b610a3d610a36610db9565b838361141f565b5050565b610a52610a4c610db9565b83610e7a565b610a91576040517f08c379a0000000000000000000000000000000000000000000000000000000008152600401610a88906132e2565b60405180910390fd5b610a9d8484848461158c565b50505050565b6060610aae82610d4d565b610aed576040517f08c379a0000000000000000000000000000000000000000000000000000000008152600401610ae4906132a2565b60405180910390fd5b6000610af76115e8565b90506000815111610b175760405180602001604052806000815250610b42565b80610b21846115ff565b604051602001610b32929190612eaf565b6040516020818303038152906040525b915050919050565b7f9f2df0fed2c77648de5860a4cc508cd0818c85b8b8a1ab4ceeef8d981c8956a681565b610b77826106d1565b610b8881610b83610db9565b6111bf565b610b92838361133d565b505050565b610bef83610ba587876117ac565b84848080601f016020809104026020016040519081016040528093929190818152602001838380828437600081840152601f19601f82011690508083019250505050505050611809565b610c2e576040517f08c379a0000000000000000000000000000000000000000000000000000000008152600401610c25906131c2565b60405180910390fd5b610c388585611851565b5050505050565b6000600560008473ffffffffffffffffffffffffffffffffffffffff1673ffffffffffffffffffffffffffffffffffffffff16815260200190815260200160002060008373ffffffffffffffffffffffffffffffffffffffff1673ffffffffffffffffffffffffffffffffffffffff16815260200190815260200160002060009054906101000a900460ff16905092915050565b60007f7965db0b000000000000000000000000000000000000000000000000000000007bffffffffffffffffffffffffffffffffffffffffffffffffffffffff1916827bffffffffffffffffffffffffffffffffffffffffffffffffffffffff19161480610d465750610d458261186f565b5b9050919050565b60008073ffffffffffffffffffffffffffffffffffffffff166002600084815260200190815260200160002060009054906101000a900473ffffffffffffffffffffffffffffffffffffffff1673ffffffffffffffffffffffffffffffffffffffff1614159050919050565b600033905090565b816004600083815260200190815260200160002060006101000a81548173ffffffffffffffffffffffffffffffffffffffff021916908373ffffffffffffffffffffffffffffffffffffffff160217905550808273ffffffffffffffffffffffffffffffffffffffff16610e34836107bd565b73ffffffffffffffffffffffffffffffffffffffff167f8c5be1e5ebec7d5bd14f71427d1e84f3dd0314c0f7b2291e5b200ac8c7c3b92560405160405180910390a45050565b6000610e8582610d4d565b610ec4576040517f08c379a0000000000000000000000000000000000000000000000000000000008152600401610ebb906131e2565b60405180910390fd5b6000610ecf836107bd565b90508073ffffffffffffffffffffffffffffffffffffffff168473ffffffffffffffffffffffffffffffffffffffff161480610f3e57508373ffffffffffffffffffffffffffffffffffffffff16610f26846104d4565b73ffffffffffffffffffffffffffffffffffffffff16145b80610f4f5750610f4e8185610c3f565b5b91505092915050565b8273ffffffffffffffffffffffffffffffffffffffff16610f78826107bd565b73ffffffffffffffffffffffffffffffffffffffff1614610fce576040517f08c379a0000000000000000000000000000000000000000000000000000000008152600401610fc590613142565b60405180910390fd5b600073ffffffffffffffffffffffffffffffffffffffff168273ffffffffffffffffffffffffffffffffffffffff16141561103e576040517f08c379a000000000000000000000000000000000000000000000000000000000815260040161103590613182565b60405180910390fd5b611049838383611951565b611054600082610dc1565b6001600360008573ffffffffffffffffffffffffffffffffffffffff1673ffffffffffffffffffffffffffffffffffffffff16815260200190815260200160002060008282546110a491906134c2565b925050819055506001600360008473ffffffffffffffffffffffffffffffffffffffff1673ffffffffffffffffffffffffffffffffffffffff16815260200190815260200160002060008282546110fb91906133e1565b92505081905550816002600083815260200190815260200160002060006101000a81548173ffffffffffffffffffffffffffffffffffffffff021916908373ffffffffffffffffffffffffffffffffffffffff160217905550808273ffffffffffffffffffffffffffffffffffffffff168473ffffffffffffffffffffffffffffffffffffffff167fddf252ad1be2c89b69c2b068fc378daa952ba7f163c4a11628f55a4df523b3ef60405160405180910390a46111ba838383611956565b505050565b6111c98282610927565b611258576111ee8173ffffffffffffffffffffffffffffffffffffffff16601461195b565b6111fc8360001c602061195b565b60405160200161120d929190612f0a565b6040516020818303038152906040526040517f08c379a000000000000000000000000000000000000000000000000000000000815260040161124f91906130e0565b60405180910390fd5b5050565b6112668282610927565b6113395760016006600084815260200190815260200160002060000160008373ffffffffffffffffffffffffffffffffffffffff1673ffffffffffffffffffffffffffffffffffffffff16815260200190815260200160002060006101000a81548160ff0219169083151502179055506112de610db9565b73ffffffffffffffffffffffffffffffffffffffff168173ffffffffffffffffffffffffffffffffffffffff16837f2f8788117e7eff1d82e926ec794901d17c78024a50270940304540a733656f0d60405160405180910390a45b5050565b6113478282610927565b1561141b5760006006600084815260200190815260200160002060000160008373ffffffffffffffffffffffffffffffffffffffff1673ffffffffffffffffffffffffffffffffffffffff16815260200190815260200160002060006101000a81548160ff0219169083151502179055506113c0610db9565b73ffffffffffffffffffffffffffffffffffffffff168173ffffffffffffffffffffffffffffffffffffffff16837ff6391f5c32d9c69d2a47ea670b442974b53935d1edc7fd64eb21e047a839171b60405160405180910390a45b5050565b8173ffffffffffffffffffffffffffffffffffffffff168373ffffffffffffffffffffffffffffffffffffffff16141561148e576040517f08c379a0000000000000000000000000000000000000000000000000000000008152600401611485906131a2565b60405180910390fd5b80600560008573ffffffffffffffffffffffffffffffffffffffff1673ffffffffffffffffffffffffffffffffffffffff16815260200190815260200160002060008473ffffffffffffffffffffffffffffffffffffffff1673ffffffffffffffffffffffffffffffffffffffff16815260200190815260200160002060006101000a81548160ff0219169083151502179055508173ffffffffffffffffffffffffffffffffffffffff168373ffffffffffffffffffffffffffffffffffffffff167f17307eab39ab6107e8899845ad3d59bd9653f200f220920489ca2b5937696c318360405161157f9190612fab565b60405180910390a3505050565b611597848484610f58565b6115a384848484611c55565b6115e2576040517f08c379a00000000000000000000000000000000000000000000000000000000081526004016115d990613122565b60405180910390fd5b50505050565b606060405180602001604052806000815250905090565b60606000821415611647576040518060400160405280600181526020017f300000000000000000000000000000000000000000000000000000000000000081525090506117a7565b600082905060005b6000821461167957808061166290613650565b915050600a826116729190613437565b915061164f565b60008167ffffffffffffffff8111156116bb577f4e487b7100000000000000000000000000000000000000000000000000000000600052604160045260246000fd5b6040519080825280601f01601f1916602001820160405280156116ed5781602001600182028036833780820191505090505b5090505b600085146117a05760018261170691906134c2565b9150600a8561171591906136a3565b603061172191906133e1565b60f81b81838151811061175d577f4e487b7100000000000000000000000000000000000000000000000000000000600052603260045260246000fd5b60200101907effffffffffffffffffffffffffffffffffffffffffffffffffffffffffffff1916908160001a905350600a856117999190613437565b94506116f1565b8093505050505b919050565b60006118017fd2510b574f5316b76c0690d108b48cde7a2a76bf4fc13fae79898e5251d0082e83856040516020016117e693929190613064565b60405160208183030381529060405280519060200120611dec565b905092915050565b60006118357f9f2df0fed2c77648de5860a4cc508cd0818c85b8b8a1ab4ceeef8d981c8956a685610927565b80156118485750611847848484611e06565b5b90509392505050565b61186b828260405180602001604052806000815250612037565b5050565b60007f80ac58cd000000000000000000000000000000000000000000000000000000007bffffffffffffffffffffffffffffffffffffffffffffffffffffffff1916827bffffffffffffffffffffffffffffffffffffffffffffffffffffffff1916148061193a57507f5b5e139f000000000000000000000000000000000000000000000000000000007bffffffffffffffffffffffffffffffffffffffffffffffffffffffff1916827bffffffffffffffffffffffffffffffffffffffffffffffffffffffff1916145b8061194a575061194982612092565b5b9050919050565b505050565b505050565b60606000600283600261196e9190613468565b61197891906133e1565b67ffffffffffffffff8111156119b7577f4e487b7100000000000000000000000000000000000000000000000000000000600052604160045260246000fd5b6040519080825280601f01601f1916602001820160405280156119e95781602001600182028036833780820191505090505b5090507f300000000000000000000000000000000000000000000000000000000000000081600081518110611a47577f4e487b7100000000000000000000000000000000000000000000000000000000600052603260045260246000fd5b60200101907effffffffffffffffffffffffffffffffffffffffffffffffffffffffffffff1916908160001a9053507f780000000000000000000000000000000000000000000000000000000000000081600181518110611ad1577f4e487b7100000000000000000000000000000000000000000000000000000000600052603260045260246000fd5b60200101907effffffffffffffffffffffffffffffffffffffffffffffffffffffffffffff1916908160001a90535060006001846002611b119190613468565b611b1b91906133e1565b90505b6001811115611c07577f3031323334353637383961626364656600000000000000000000000000000000600f861660108110611b83577f4e487b7100000000000000000000000000000000000000000000000000000000600052603260045260246000fd5b1a60f81b828281518110611bc0577f4e487b7100000000000000000000000000000000000000000000000000000000600052603260045260246000fd5b60200101907effffffffffffffffffffffffffffffffffffffffffffffffffffffffffffff1916908160001a905350600485901c945080611c00906135c3565b9050611b1e565b5060008414611c4b576040517f08c379a0000000000000000000000000000000000000000000000000000000008152600401611c4290613102565b60405180910390fd5b8091505092915050565b6000611c768473ffffffffffffffffffffffffffffffffffffffff166120fc565b15611ddf578373ffffffffffffffffffffffffffffffffffffffff1663150b7a02611c9f610db9565b8786866040518563ffffffff1660e01b8152600401611cc19493929190612f5f565b602060405180830381600087803b158015611cdb57600080fd5b505af1925050508015611d0c57506040513d601f19601f82011682018060405250810190611d099190612a54565b60015b611d8f573d8060008114611d3c576040519150601f19603f3d011682016040523d82523d6000602084013e611d41565b606091505b50600081511415611d87576040517f08c379a0000000000000000000000000000000000000000000000000000000008152600401611d7e90613122565b60405180910390fd5b805181602001fd5b63150b7a0260e01b7bffffffffffffffffffffffffffffffffffffffffffffffffffffffff1916817bffffffffffffffffffffffffffffffffffffffffffffffffffffffff191614915050611de4565b600190505b949350505050565b6000611dff611df961211f565b83612239565b9050919050565b6000806000611e15858561226c565b9150915060006004811115611e53577f4e487b7100000000000000000000000000000000000000000000000000000000600052602160045260246000fd5b816004811115611e8c577f4e487b7100000000000000000000000000000000000000000000000000000000600052602160045260246000fd5b148015611ec457508573ffffffffffffffffffffffffffffffffffffffff168273ffffffffffffffffffffffffffffffffffffffff16145b15611ed457600192505050612030565b6000808773ffffffffffffffffffffffffffffffffffffffff16631626ba7e60e01b8888604051602401611f09929190613034565b604051602081830303815290604052907bffffffffffffffffffffffffffffffffffffffffffffffffffffffff19166020820180517bffffffffffffffffffffffffffffffffffffffffffffffffffffffff8381831617835250505050604051611f739190612e98565b600060405180830381855afa9150503d8060008114611fae576040519150601f19603f3d011682016040523d82523d6000602084013e611fb3565b606091505b5091509150818015611fc6575060208151145b80156120295750631626ba7e60e01b7bffffffffffffffffffffffffffffffffffffffffffffffffffffffff1916818060200190518101906120089190612a54565b7bffffffffffffffffffffffffffffffffffffffffffffffffffffffff1916145b9450505050505b9392505050565b61204183836122ef565b61204e6000848484611c55565b61208d576040517f08c379a000000000000000000000000000000000000000000000000000000000815260040161208490613122565b60405180910390fd5b505050565b60007f01ffc9a7000000000000000000000000000000000000000000000000000000007bffffffffffffffffffffffffffffffffffffffffffffffffffffffff1916827bffffffffffffffffffffffffffffffffffffffffffffffffffffffff1916149050919050565b6000808273ffffffffffffffffffffffffffffffffffffffff163b119050919050565b60007f000000000000000000000000000000000000000000000000000000000000000073ffffffffffffffffffffffffffffffffffffffff163073ffffffffffffffffffffffffffffffffffffffff1614801561219b57507f000000000000000000000000000000000000000000000000000000000000000046145b156121c8577f00000000000000000000000000000000000000000000000000000000000000009050612236565b6122337f00000000000000000000000000000000000000000000000000000000000000007f00000000000000000000000000000000000000000000000000000000000000007f00000000000000000000000000000000000000000000000000000000000000006124c9565b90505b90565b6000828260405160200161224e929190612ed3565b60405160208183030381529060405280519060200120905092915050565b6000806041835114156122ae5760008060006020860151925060408601519150606086015160001a90506122a287828585612503565b945094505050506122e8565b6040835114156122df5760008060208501519150604085015190506122d4868383612610565b9350935050506122e8565b60006002915091505b9250929050565b600073ffffffffffffffffffffffffffffffffffffffff168273ffffffffffffffffffffffffffffffffffffffff16141561235f576040517f08c379a000000000000000000000000000000000000000000000000000000000815260040161235690613262565b60405180910390fd5b61236881610d4d565b156123a8576040517f08c379a000000000000000000000000000000000000000000000000000000000815260040161239f90613162565b60405180910390fd5b6123b460008383611951565b6001600360008473ffffffffffffffffffffffffffffffffffffffff1673ffffffffffffffffffffffffffffffffffffffff168152602001908152602001600020600082825461240491906133e1565b92505081905550816002600083815260200190815260200160002060006101000a81548173ffffffffffffffffffffffffffffffffffffffff021916908373ffffffffffffffffffffffffffffffffffffffff160217905550808273ffffffffffffffffffffffffffffffffffffffff16600073ffffffffffffffffffffffffffffffffffffffff167fddf252ad1be2c89b69c2b068fc378daa952ba7f163c4a11628f55a4df523b3ef60405160405180910390a46124c560008383611956565b5050565b600083838346306040516020016124e4959493929190612fe1565b6040516020818303038152906040528051906020012090509392505050565b6000807f7fffffffffffffffffffffffffffffff5d576e7357a4501ddfe92f46681b20a08360001c111561253e576000600391509150612607565b601b8560ff16141580156125565750601c8560ff1614155b15612568576000600491509150612607565b60006001878787876040516000815260200160405260405161258d949392919061309b565b6020604051602081039080840390855afa1580156125af573d6000803e3d6000fd5b505050602060405103519050600073ffffffffffffffffffffffffffffffffffffffff168173ffffffffffffffffffffffffffffffffffffffff1614156125fe57600060019250925050612607565b80600092509250505b94509492505050565b60008060007f7fffffffffffffffffffffffffffffffffffffffffffffffffffffffffffffff60001b841690506000601b60ff8660001c901c61265391906133e1565b905061266187828885612503565b935093505050935093915050565b600061268261267d84613362565b61333d565b90508281526020810184848401111561269a57600080fd5b6126a5848285613581565b509392505050565b6000813590506126bc81613c9d565b92915050565b6000813590506126d181613cb4565b92915050565b6000813590506126e681613ccb565b92915050565b6000813590506126fb81613ce2565b92915050565b60008151905061271081613ce2565b92915050565b60008083601f84011261272857600080fd5b8235905067ffffffffffffffff81111561274157600080fd5b60208301915083600182028301111561275957600080fd5b9250929050565b600082601f83011261277157600080fd5b813561278184826020860161266f565b91505092915050565b60008135905061279981613cf9565b92915050565b6000602082840312156127b157600080fd5b60006127bf848285016126ad565b91505092915050565b600080604083850312156127db57600080fd5b60006127e9858286016126ad565b92505060206127fa858286016126ad565b9150509250929050565b60008060006060848603121561281957600080fd5b6000612827868287016126ad565b9350506020612838868287016126ad565b92505060406128498682870161278a565b9150509250925092565b6000806000806080858703121561286957600080fd5b6000612877878288016126ad565b9450506020612888878288016126ad565b93505060406128998782880161278a565b925050606085013567ffffffffffffffff8111156128b657600080fd5b6128c287828801612760565b91505092959194509250565b600080604083850312156128e157600080fd5b60006128ef858286016126ad565b9250506020612900858286016126c2565b9150509250929050565b6000806040838503121561291d57600080fd5b600061292b858286016126ad565b925050602061293c8582860161278a565b9150509250929050565b60008060008060006080868803121561295e57600080fd5b600061296c888289016126ad565b955050602061297d8882890161278a565b945050604061298e888289016126ad565b935050606086013567ffffffffffffffff8111156129ab57600080fd5b6129b788828901612716565b92509250509295509295909350565b6000602082840312156129d857600080fd5b60006129e6848285016126d7565b91505092915050565b60008060408385031215612a0257600080fd5b6000612a10858286016126d7565b9250506020612a21858286016126ad565b9150509250929050565b600060208284031215612a3d57600080fd5b6000612a4b848285016126ec565b91505092915050565b600060208284031215612a6657600080fd5b6000612a7484828501612701565b91505092915050565b600060208284031215612a8f57600080fd5b6000612a9d8482850161278a565b91505092915050565b612aaf816134f6565b82525050565b612abe81613508565b82525050565b612acd81613514565b82525050565b612ae4612adf82613514565b613699565b82525050565b6000612af582613393565b612aff81856133a9565b9350612b0f818560208601613590565b612b1881613790565b840191505092915050565b6000612b2e82613393565b612b3881856133ba565b9350612b48818560208601613590565b80840191505092915050565b6000612b5f8261339e565b612b6981856133c5565b9350612b79818560208601613590565b612b8281613790565b840191505092915050565b6000612b988261339e565b612ba281856133d6565b9350612bb2818560208601613590565b80840191505092915050565b6000612bcb6020836133c5565b9150612bd6826137a1565b602082019050919050565b6000612bee6032836133c5565b9150612bf9826137ca565b604082019050919050565b6000612c116025836133c5565b9150612c1c82613819565b604082019050919050565b6000612c34601c836133c5565b9150612c3f82613868565b602082019050919050565b6000612c576002836133d6565b9150612c6282613891565b600282019050919050565b6000612c7a6024836133c5565b9150612c85826138ba565b604082019050919050565b6000612c9d6019836133c5565b9150612ca882613909565b602082019050919050565b6000612cc06011836133c5565b9150612ccb82613932565b602082019050919050565b6000612ce3602c836133c5565b9150612cee8261395b565b604082019050919050565b6000612d066038836133c5565b9150612d11826139aa565b604082019050919050565b6000612d29602a836133c5565b9150612d34826139f9565b604082019050919050565b6000612d4c6029836133c5565b9150612d5782613a48565b604082019050919050565b6000612d6f6020836133c5565b9150612d7a82613a97565b602082019050919050565b6000612d92602c836133c5565b9150612d9d82613ac0565b604082019050919050565b6000612db5602f836133c5565b9150612dc082613b0f565b604082019050919050565b6000612dd86021836133c5565b9150612de382613b5e565b604082019050919050565b6000612dfb6031836133c5565b9150612e0682613bad565b604082019050919050565b6000612e1e6017836133d6565b9150612e2982613bfc565b601782019050919050565b6000612e416011836133d6565b9150612e4c82613c25565b601182019050919050565b6000612e64602f836133c5565b9150612e6f82613c4e565b604082019050919050565b612e838161356a565b82525050565b612e9281613574565b82525050565b6000612ea48284612b23565b915081905092915050565b6000612ebb8285612b8d565b9150612ec78284612b8d565b91508190509392505050565b6000612ede82612c4a565b9150612eea8285612ad3565b602082019150612efa8284612ad3565b6020820191508190509392505050565b6000612f1582612e11565b9150612f218285612b8d565b9150612f2c82612e34565b9150612f388284612b8d565b91508190509392505050565b6000602082019050612f596000830184612aa6565b92915050565b6000608082019050612f746000830187612aa6565b612f816020830186612aa6565b612f8e6040830185612e7a565b8181036060830152612fa08184612aea565b905095945050505050565b6000602082019050612fc06000830184612ab5565b92915050565b6000602082019050612fdb6000830184612ac4565b92915050565b600060a082019050612ff66000830188612ac4565b6130036020830187612ac4565b6130106040830186612ac4565b61301d6060830185612e7a565b61302a6080830184612aa6565b9695505050505050565b60006040820190506130496000830185612ac4565b818103602083015261305b8184612aea565b90509392505050565b60006060820190506130796000830186612ac4565b6130866020830185612e7a565b6130936040830184612aa6565b949350505050565b60006080820190506130b06000830187612ac4565b6130bd6020830186612e89565b6130ca6040830185612ac4565b6130d76060830184612ac4565b95945050505050565b600060208201905081810360008301526130fa8184612b54565b905092915050565b6000602082019050818103600083015261311b81612bbe565b9050919050565b6000602082019050818103600083015261313b81612be1565b9050919050565b6000602082019050818103600083015261315b81612c04565b9050919050565b6000602082019050818103600083015261317b81612c27565b9050919050565b6000602082019050818103600083015261319b81612c6d565b9050919050565b600060208201905081810360008301526131bb81612c90565b9050919050565b600060208201905081810360008301526131db81612cb3565b9050919050565b600060208201905081810360008301526131fb81612cd6565b9050919050565b6000602082019050818103600083015261321b81612cf9565b9050919050565b6000602082019050818103600083015261323b81612d1c565b9050919050565b6000602082019050818103600083015261325b81612d3f565b9050919050565b6000602082019050818103600083015261327b81612d62565b9050919050565b6000602082019050818103600083015261329b81612d85565b9050919050565b600060208201905081810360008301526132bb81612da8565b9050919050565b600060208201905081810360008301526132db81612dcb565b9050919050565b600060208201905081810360008301526132fb81612dee565b9050919050565b6000602082019050818103600083015261331b81612e57565b9050919050565b60006020820190506133376000830184612e7a565b92915050565b6000613347613358565b9050613353828261361f565b919050565b6000604051905090565b600067ffffffffffffffff82111561337d5761337c613761565b5b61338682613790565b9050602081019050919050565b600081519050919050565b600081519050919050565b600082825260208201905092915050565b600081905092915050565b600082825260208201905092915050565b600081905092915050565b60006133ec8261356a565b91506133f78361356a565b9250827fffffffffffffffffffffffffffffffffffffffffffffffffffffffffffffffff0382111561342c5761342b6136d4565b5b828201905092915050565b60006134428261356a565b915061344d8361356a565b92508261345d5761345c613703565b5b828204905092915050565b60006134738261356a565b915061347e8361356a565b9250817fffffffffffffffffffffffffffffffffffffffffffffffffffffffffffffffff04831182151516156134b7576134b66136d4565b5b828202905092915050565b60006134cd8261356a565b91506134d88361356a565b9250828210156134eb576134ea6136d4565b5b828203905092915050565b60006135018261354a565b9050919050565b60008115159050919050565b6000819050919050565b60007fffffffff0000000000000000000000000000000000000000000000000000000082169050919050565b600073ffffffffffffffffffffffffffffffffffffffff82169050919050565b6000819050919050565b600060ff82169050919050565b82818337600083830152505050565b60005b838110156135ae578082015181840152602081019050613593565b838111156135bd576000848401525b50505050565b60006135ce8261356a565b915060008214156135e2576135e16136d4565b5b600182039050919050565b6000600282049050600182168061360557607f821691505b6020821081141561361957613618613732565b5b50919050565b61362882613790565b810181811067ffffffffffffffff8211171561364757613646613761565b5b80604052505050565b600061365b8261356a565b91507fffffffffffffffffffffffffffffffffffffffffffffffffffffffffffffffff82141561368e5761368d6136d4565b5b600182019050919050565b6000819050919050565b60006136ae8261356a565b91506136b98361356a565b9250826136c9576136c8613703565b5b828206905092915050565b7f4e487b7100000000000000000000000000000000000000000000000000000000600052601160045260246000fd5b7f4e487b7100000000000000000000000000000000000000000000000000000000600052601260045260246000fd5b7f4e487b7100000000000000000000000000000000000000000000000000000000600052602260045260246000fd5b7f4e487b7100000000000000000000000000000000000000000000000000000000600052604160045260246000fd5b6000601f19601f8301169050919050565b7f537472696e67733a20686578206c656e67746820696e73756666696369656e74600082015250565b7f4552433732313a207472616e7366657220746f206e6f6e20455243373231526560008201527f63656976657220696d706c656d656e7465720000000000000000000000000000602082015250565b7f4552433732313a207472616e736665722066726f6d20696e636f72726563742060008201527f6f776e6572000000000000000000000000000000000000000000000000000000602082015250565b7f4552433732313a20746f6b656e20616c7265616479206d696e74656400000000600082015250565b7f1901000000000000000000000000000000000000000000000000000000000000600082015250565b7f4552433732313a207472616e7366657220746f20746865207a65726f2061646460008201527f7265737300000000000000000000000000000000000000000000000000000000602082015250565b7f4552433732313a20617070726f766520746f2063616c6c657200000000000000600082015250565b7f496e76616c6964207369676e6174757265000000000000000000000000000000600082015250565b7f4552433732313a206f70657261746f7220717565727920666f72206e6f6e657860008201527f697374656e7420746f6b656e0000000000000000000000000000000000000000602082015250565b7f4552433732313a20617070726f76652063616c6c6572206973206e6f74206f7760008201527f6e6572206e6f7220617070726f76656420666f7220616c6c0000000000000000602082015250565b7f4552433732313a2062616c616e636520717565727920666f7220746865207a6560008201527f726f206164647265737300000000000000000000000000000000000000000000602082015250565b7f4552433732313a206f776e657220717565727920666f72206e6f6e657869737460008201527f656e7420746f6b656e0000000000000000000000000000000000000000000000602082015250565b7f4552433732313a206d696e7420746f20746865207a65726f2061646472657373600082015250565b7f4552433732313a20617070726f76656420717565727920666f72206e6f6e657860008201527f697374656e7420746f6b656e0000000000000000000000000000000000000000602082015250565b7f4552433732314d657461646174613a2055524920717565727920666f72206e6f60008201527f6e6578697374656e7420746f6b656e0000000000000000000000000000000000602082015250565b7f4552433732313a20617070726f76616c20746f2063757272656e74206f776e6560008201527f7200000000000000000000000000000000000000000000000000000000000000602082015250565b7f4552433732313a207472616e736665722063616c6c6572206973206e6f74206f60008201527f776e6572206e6f7220617070726f766564000000000000000000000000000000602082015250565b7f416363657373436f6e74726f6c3a206163636f756e7420000000000000000000600082015250565b7f206973206d697373696e6720726f6c6520000000000000000000000000000000600082015250565b7f416363657373436f6e74726f6c3a2063616e206f6e6c792072656e6f756e636560008201527f20726f6c657320666f722073656c660000000000000000000000000000000000602082015250565b613ca6816134f6565b8114613cb157600080fd5b50565b613cbd81613508565b8114613cc857600080fd5b50565b613cd481613514565b8114613cdf57600080fd5b50565b613ceb8161351e565b8114613cf657600080fd5b50565b613d028161356a565b8114613d0d57600080fd5b5056fea26469706673582212201c06f0f5e272cea62deba5894d9eb4fb53ff89479bfba8e127eed968027b9ae864736f6c63430008040033",
  "linkReferences": {},
  "deployedLinkReferences": {}
}