{
  "_format": "hh-sol-artifact-1",
  "contractName": "ERC721MerkleDrop",
  "sourceName": "contracts/ERC721MerkleDrop.sol",
  "abi": [
    {
      "inputs": [
        {
          "internalType": "string",
          "name": "name",
          "type": "string"
        },
        {
          "internalType": "string",
          "name": "symbol",
          "type": "string"
        },
        {
          "internalType": "bytes32",
          "name": "merkleroot",
          "type": "bytes32"
        }
      ],
      "stateMutability": "nonpayable",
      "type": "constructor"
    },
    {
      "anonymous": false,
      "inputs": [
        {
          "indexed": true,
          "internalType": "address",
          "name": "owner",
          "type": "address"
        },
        {
          "indexed": true,
          "internalType": "address",
          "name": "approved",
          "type": "address"
        },
        {
          "indexed": true,
          "internalType": "uint256",
          "name": "tokenId",
          "type": "uint256"
        }
      ],
      "name": "Approval",
      "type": "event"
    },
    {
      "anonymous": false,
      "inputs": [
        {
          "indexed": true,
          "internalType": "address",
          "name": "owner",
          "type": "address"
        },
        {
          "indexed": true,
          "internalType": "address",
          "name": "operator",
          "type": "address"
        },
        {
          "indexed": false,
          "internalType": "bool",
          "name": "approved",
          "type": "bool"
        }
      ],
      "name": "ApprovalForAll",
      "type": "event"
    },
    {
      "anonymous": false,
      "inputs": [
        {
          "indexed": true,
          "internalType": "address",
          "name": "from",
          "type": "address"
        },
        {
          "indexed": true,
          "internalType": "address",
          "name": "to",
          "type": "address"
        },
        {
          "indexed": true,
          "internalType": "uint256",
          "name": "tokenId",
          "type": "uint256"
        }
      ],
      "name": "Transfer",
      "type": "event"
    },
    {
      "inputs": [
        {
          "internalType": "address",
          "name": "to",
          "type": "address"
        },
        {
          "internalType": "uint256",
          "name": "tokenId",
          "type": "uint256"
        }
      ],
      "name": "approve",
      "outputs": [],
      "stateMutability": "nonpayable",
      "type": "function"
    },
    {
      "inputs": [
        {
          "internalType": "address",
          "name": "owner",
          "type": "address"
        }
      ],
      "name": "balanceOf",
      "outputs": [
        {
          "internalType": "uint256",
          "name": "",
          "type": "uint256"
        }
      ],
      "stateMutability": "view",
      "type": "function"
    },
    {
      "inputs": [
        {
          "internalType": "uint256",
          "name": "tokenId",
          "type": "uint256"
        }
      ],
      "name": "getApproved",
      "outputs": [
        {
          "internalType": "address",
          "name": "",
          "type": "address"
        }
      ],
      "stateMutability": "view",
      "type": "function"
    },
    {
      "inputs": [
        {
          "internalType": "address",
          "name": "owner",
          "type": "address"
        },
        {
          "internalType": "address",
          "name": "operator",
          "type": "address"
        }
      ],
      "name": "isApprovedForAll",
      "outputs": [
        {
          "internalType": "bool",
          "name": "",
          "type": "bool"
        }
      ],
      "stateMutability": "view",
      "type": "function"
    },
    {
      "inputs": [],
      "name": "name",
      "outputs": [
        {
          "internalType": "string",
          "name": "",
          "type": "string"
        }
      ],
      "stateMutability": "view",
      "type": "function"
    },
    {
      "inputs": [
        {
          "internalType": "uint256",
          "name": "tokenId",
          "type": "uint256"
        }
      ],
      "name": "ownerOf",
      "outputs": [
        {
          "internalType": "address",
          "name": "",
          "type": "address"
        }
      ],
      "stateMutability": "view",
      "type": "function"
    },
    {
      "inputs": [
        {
          "internalType": "address",
          "name": "account",
          "type": "address"
        },
        {
          "internalType": "uint256",
          "name": "tokenId",
          "type": "uint256"
        },
        {
          "internalType": "bytes32[]",
          "name": "proof",
          "type": "bytes32[]"
        }
      ],
      "name": "redeem",
      "outputs": [],
      "stateMutability": "nonpayable",
      "type": "function"
    },
    {
      "inputs": [],
      "name": "root",
      "outputs": [
        {
          "internalType": "bytes32",
          "name": "",
          "type": "bytes32"
        }
      ],
      "stateMutability": "view",
      "type": "function"
    },
    {
      "inputs": [
        {
          "internalType": "address",
          "name": "from",
          "type": "address"
        },
        {
          "internalType": "address",
          "name": "to",
          "type": "address"
        },
        {
          "internalType": "uint256",
          "name": "tokenId",
          "type": "uint256"
        }
      ],
      "name": "safeTransferFrom",
      "outputs": [],
      "stateMutability": "nonpayable",
      "type": "function"
    },
    {
      "inputs": [
        {
          "internalType": "address",
          "name": "from",
          "type": "address"
        },
        {
          "internalType": "address",
          "name": "to",
          "type": "address"
        },
        {
          "internalType": "uint256",
          "name": "tokenId",
          "type": "uint256"
        },
        {
          "internalType": "bytes",
          "name": "_data",
          "type": "bytes"
        }
      ],
      "name": "safeTransferFrom",
      "outputs": [],
      "stateMutability": "nonpayable",
      "type": "function"
    },
    {
      "inputs": [
        {
          "internalType": "address",
          "name": "operator",
          "type": "address"
        },
        {
          "internalType": "bool",
          "name": "approved",
          "type": "bool"
        }
      ],
      "name": "setApprovalForAll",
      "outputs": [],
      "stateMutability": "nonpayable",
      "type": "function"
    },
    {
      "inputs": [
        {
          "internalType": "bytes4",
          "name": "interfaceId",
          "type": "bytes4"
        }
      ],
      "name": "supportsInterface",
      "outputs": [
        {
          "internalType": "bool",
          "name": "",
          "type": "bool"
        }
      ],
      "stateMutability": "view",
      "type": "function"
    },
    {
      "inputs": [],
      "name": "symbol",
      "outputs": [
        {
          "internalType": "string",
          "name": "",
          "type": "string"
        }
      ],
      "stateMutability": "view",
      "type": "function"
    },
    {
      "inputs": [
        {
          "internalType": "uint256",
          "name": "tokenId",
          "type": "uint256"
        }
      ],
      "name": "tokenURI",
      "outputs": [
        {
          "internalType": "string",
          "name": "",
          "type": "string"
        }
      ],
      "stateMutability": "view",
      "type": "function"
    },
    {
      "inputs": [
        {
          "internalType": "address",
          "name": "from",
          "type": "address"
        },
        {
          "internalType": "address",
          "name": "to",
          "type": "address"
        },
        {
          "internalType": "uint256",
          "name": "tokenId",
          "type": "uint256"
        }
      ],
      "name": "transferFrom",
      "outputs": [],
      "stateMutability": "nonpayable",
      "type": "function"
    }
  ],
  "bytecode": "0x60a06040523480156200001157600080fd5b5060405162002f2b38038062002f2b8339818101604052810190620000379190620001b7565b82828160009080519060200190620000519291906200007e565b5080600190805190602001906200006a9291906200007e565b5050508060808181525050505050620003d3565b8280546200008c90620002de565b90600052602060002090601f016020900481019282620000b05760008555620000fc565b82601f10620000cb57805160ff1916838001178555620000fc565b82800160010185558215620000fc579182015b82811115620000fb578251825591602001919060010190620000de565b5b5090506200010b91906200010f565b5090565b5b808211156200012a57600081600090555060010162000110565b5090565b6000620001456200013f8462000268565b6200023f565b9050828152602081018484840111156200015e57600080fd5b6200016b848285620002a8565b509392505050565b6000815190506200018481620003b9565b92915050565b600082601f8301126200019c57600080fd5b8151620001ae8482602086016200012e565b91505092915050565b600080600060608486031215620001cd57600080fd5b600084015167ffffffffffffffff811115620001e857600080fd5b620001f6868287016200018a565b935050602084015167ffffffffffffffff8111156200021457600080fd5b62000222868287016200018a565b9250506040620002358682870162000173565b9150509250925092565b60006200024b6200025e565b905062000259828262000314565b919050565b6000604051905090565b600067ffffffffffffffff82111562000286576200028562000379565b5b6200029182620003a8565b9050602081019050919050565b6000819050919050565b60005b83811015620002c8578082015181840152602081019050620002ab565b83811115620002d8576000848401525b50505050565b60006002820490506001821680620002f757607f821691505b602082108114156200030e576200030d6200034a565b5b50919050565b6200031f82620003a8565b810181811067ffffffffffffffff8211171562000341576200034062000379565b5b80604052505050565b7f4e487b7100000000000000000000000000000000000000000000000000000000600052602260045260246000fd5b7f4e487b7100000000000000000000000000000000000000000000000000000000600052604160045260246000fd5b6000601f19601f8301169050919050565b620003c4816200029e565b8114620003d057600080fd5b50565b608051612b35620003f660003960008181610b010152610cf50152612b356000f3fe608060405234801561001057600080fd5b50600436106100f55760003560e01c80636352211e11610097578063b88d4fde11610066578063b88d4fde14610282578063c87b56dd1461029e578063e985e9c5146102ce578063ebf0c717146102fe576100f5565b80636352211e146101e857806370a082311461021857806395d89b4114610248578063a22cb46514610266576100f5565b8063095ea7b3116100d3578063095ea7b31461017857806314132f481461019457806323b872dd146101b057806342842e0e146101cc576100f5565b806301ffc9a7146100fa57806306fdde031461012a578063081812fc14610148575b600080fd5b610114600480360381019061010f9190611c02565b61031c565b604051610121919061204e565b60405180910390f35b6101326103fe565b60405161013f9190612084565b60405180910390f35b610162600480360381019061015d9190611c54565b610490565b60405161016f9190611fe7565b60405180910390f35b610192600480360381019061018d9190611b5a565b610515565b005b6101ae60048036038101906101a99190611b96565b61062d565b005b6101ca60048036038101906101c59190611a54565b6106d0565b005b6101e660048036038101906101e19190611a54565b610730565b005b61020260048036038101906101fd9190611c54565b610750565b60405161020f9190611fe7565b60405180910390f35b610232600480360381019061022d91906119ef565b610802565b60405161023f9190612286565b60405180910390f35b6102506108ba565b60405161025d9190612084565b60405180910390f35b610280600480360381019061027b9190611b1e565b61094c565b005b61029c60048036038101906102979190611aa3565b610962565b005b6102b860048036038101906102b39190611c54565b6109c4565b6040516102c59190612084565b60405180910390f35b6102e860048036038101906102e39190611a18565b610a6b565b6040516102f5919061204e565b60405180910390f35b610306610aff565b6040516103139190612069565b60405180910390f35b60007f80ac58cd000000000000000000000000000000000000000000000000000000007bffffffffffffffffffffffffffffffffffffffffffffffffffffffff1916827bffffffffffffffffffffffffffffffffffffffffffffffffffffffff191614806103e757507f5b5e139f000000000000000000000000000000000000000000000000000000007bffffffffffffffffffffffffffffffffffffffffffffffffffffffff1916827bffffffffffffffffffffffffffffffffffffffffffffffffffffffff1916145b806103f757506103f682610b23565b5b9050919050565b60606000805461040d906124b5565b80601f0160208091040260200160405190810160405280929190818152602001828054610439906124b5565b80156104865780601f1061045b57610100808354040283529160200191610486565b820191906000526020600020905b81548152906001019060200180831161046957829003601f168201915b5050505050905090565b600061049b82610b8d565b6104da576040517f08c379a00000000000000000000000000000000000000000000000000000000081526004016104d1906121e6565b60405180910390fd5b6004600083815260200190815260200160002060009054906101000a900473ffffffffffffffffffffffffffffffffffffffff169050919050565b600061052082610750565b90508073ffffffffffffffffffffffffffffffffffffffff168373ffffffffffffffffffffffffffffffffffffffff161415610591576040517f08c379a000000000000000000000000000000000000000000000000000000000815260040161058890612246565b60405180910390fd5b8073ffffffffffffffffffffffffffffffffffffffff166105b0610bf9565b73ffffffffffffffffffffffffffffffffffffffff1614806105df57506105de816105d9610bf9565b610a6b565b5b61061e576040517f08c379a000000000000000000000000000000000000000000000000000000000815260040161061590612166565b60405180910390fd5b6106288383610c01565b505050565b61068161063a8585610cba565b838380806020026020016040519081016040528093929190818152602001838360200280828437600081840152601f19601f82011690508083019250505050505050610ced565b6106c0576040517f08c379a00000000000000000000000000000000000000000000000000000000081526004016106b790612206565b60405180910390fd5b6106ca8484610d22565b50505050565b6106e16106db610bf9565b82610d40565b610720576040517f08c379a000000000000000000000000000000000000000000000000000000000815260040161071790612266565b60405180910390fd5b61072b838383610e1e565b505050565b61074b83838360405180602001604052806000815250610962565b505050565b6000806002600084815260200190815260200160002060009054906101000a900473ffffffffffffffffffffffffffffffffffffffff169050600073ffffffffffffffffffffffffffffffffffffffff168173ffffffffffffffffffffffffffffffffffffffff1614156107f9576040517f08c379a00000000000000000000000000000000000000000000000000000000081526004016107f0906121a6565b60405180910390fd5b80915050919050565b60008073ffffffffffffffffffffffffffffffffffffffff168273ffffffffffffffffffffffffffffffffffffffff161415610873576040517f08c379a000000000000000000000000000000000000000000000000000000000815260040161086a90612186565b60405180910390fd5b600360008373ffffffffffffffffffffffffffffffffffffffff1673ffffffffffffffffffffffffffffffffffffffff168152602001908152602001600020549050919050565b6060600180546108c9906124b5565b80601f01602080910402602001604051908101604052809291908181526020018280546108f5906124b5565b80156109425780601f1061091757610100808354040283529160200191610942565b820191906000526020600020905b81548152906001019060200180831161092557829003601f168201915b5050505050905090565b61095e610957610bf9565b8383611085565b5050565b61097361096d610bf9565b83610d40565b6109b2576040517f08c379a00000000000000000000000000000000000000000000000000000000081526004016109a990612266565b60405180910390fd5b6109be848484846111f2565b50505050565b60606109cf82610b8d565b610a0e576040517f08c379a0000000000000000000000000000000000000000000000000000000008152600401610a0590612226565b60405180910390fd5b6000610a1861124e565b90506000815111610a385760405180602001604052806000815250610a63565b80610a4284611265565b604051602001610a53929190611f97565b6040516020818303038152906040525b915050919050565b6000600560008473ffffffffffffffffffffffffffffffffffffffff1673ffffffffffffffffffffffffffffffffffffffff16815260200190815260200160002060008373ffffffffffffffffffffffffffffffffffffffff1673ffffffffffffffffffffffffffffffffffffffff16815260200190815260200160002060009054906101000a900460ff16905092915050565b7f000000000000000000000000000000000000000000000000000000000000000081565b60007f01ffc9a7000000000000000000000000000000000000000000000000000000007bffffffffffffffffffffffffffffffffffffffffffffffffffffffff1916827bffffffffffffffffffffffffffffffffffffffffffffffffffffffff1916149050919050565b60008073ffffffffffffffffffffffffffffffffffffffff166002600084815260200190815260200160002060009054906101000a900473ffffffffffffffffffffffffffffffffffffffff1673ffffffffffffffffffffffffffffffffffffffff1614159050919050565b600033905090565b816004600083815260200190815260200160002060006101000a81548173ffffffffffffffffffffffffffffffffffffffff021916908373ffffffffffffffffffffffffffffffffffffffff160217905550808273ffffffffffffffffffffffffffffffffffffffff16610c7483610750565b73ffffffffffffffffffffffffffffffffffffffff167f8c5be1e5ebec7d5bd14f71427d1e84f3dd0314c0f7b2291e5b200ac8c7c3b92560405160405180910390a45050565b60008183604051602001610ccf929190611fbb565b60405160208183030381529060405280519060200120905092915050565b6000610d1a827f000000000000000000000000000000000000000000000000000000000000000085611412565b905092915050565b610d3c828260405180602001604052806000815250611429565b5050565b6000610d4b82610b8d565b610d8a576040517f08c379a0000000000000000000000000000000000000000000000000000000008152600401610d8190612146565b60405180910390fd5b6000610d9583610750565b90508073ffffffffffffffffffffffffffffffffffffffff168473ffffffffffffffffffffffffffffffffffffffff161480610e0457508373ffffffffffffffffffffffffffffffffffffffff16610dec84610490565b73ffffffffffffffffffffffffffffffffffffffff16145b80610e155750610e148185610a6b565b5b91505092915050565b8273ffffffffffffffffffffffffffffffffffffffff16610e3e82610750565b73ffffffffffffffffffffffffffffffffffffffff1614610e94576040517f08c379a0000000000000000000000000000000000000000000000000000000008152600401610e8b906120c6565b60405180910390fd5b600073ffffffffffffffffffffffffffffffffffffffff168273ffffffffffffffffffffffffffffffffffffffff161415610f04576040517f08c379a0000000000000000000000000000000000000000000000000000000008152600401610efb90612106565b60405180910390fd5b610f0f838383611484565b610f1a600082610c01565b6001600360008573ffffffffffffffffffffffffffffffffffffffff1673ffffffffffffffffffffffffffffffffffffffff1681526020019081526020016000206000828254610f6a91906123c1565b925050819055506001600360008473ffffffffffffffffffffffffffffffffffffffff1673ffffffffffffffffffffffffffffffffffffffff1681526020019081526020016000206000828254610fc1919061233a565b92505081905550816002600083815260200190815260200160002060006101000a81548173ffffffffffffffffffffffffffffffffffffffff021916908373ffffffffffffffffffffffffffffffffffffffff160217905550808273ffffffffffffffffffffffffffffffffffffffff168473ffffffffffffffffffffffffffffffffffffffff167fddf252ad1be2c89b69c2b068fc378daa952ba7f163c4a11628f55a4df523b3ef60405160405180910390a4611080838383611489565b505050565b8173ffffffffffffffffffffffffffffffffffffffff168373ffffffffffffffffffffffffffffffffffffffff1614156110f4576040517f08c379a00000000000000000000000000000000000000000000000000000000081526004016110eb90612126565b60405180910390fd5b80600560008573ffffffffffffffffffffffffffffffffffffffff1673ffffffffffffffffffffffffffffffffffffffff16815260200190815260200160002060008473ffffffffffffffffffffffffffffffffffffffff1673ffffffffffffffffffffffffffffffffffffffff16815260200190815260200160002060006101000a81548160ff0219169083151502179055508173ffffffffffffffffffffffffffffffffffffffff168373ffffffffffffffffffffffffffffffffffffffff167f17307eab39ab6107e8899845ad3d59bd9653f200f220920489ca2b5937696c31836040516111e5919061204e565b60405180910390a3505050565b6111fd848484610e1e565b6112098484848461148e565b611248576040517f08c379a000000000000000000000000000000000000000000000000000000000815260040161123f906120a6565b60405180910390fd5b50505050565b606060405180602001604052806000815250905090565b606060008214156112ad576040518060400160405280600181526020017f3000000000000000000000000000000000000000000000000000000000000000815250905061140d565b600082905060005b600082146112df5780806112c890612518565b915050600a826112d89190612390565b91506112b5565b60008167ffffffffffffffff811115611321577f4e487b7100000000000000000000000000000000000000000000000000000000600052604160045260246000fd5b6040519080825280601f01601f1916602001820160405280156113535781602001600182028036833780820191505090505b5090505b600085146114065760018261136c91906123c1565b9150600a8561137b919061258f565b6030611387919061233a565b60f81b8183815181106113c3577f4e487b7100000000000000000000000000000000000000000000000000000000600052603260045260246000fd5b60200101907effffffffffffffffffffffffffffffffffffffffffffffffffffffffffffff1916908160001a905350600a856113ff9190612390565b9450611357565b8093505050505b919050565b60008261141f8584611625565b1490509392505050565b61143383836116c0565b611440600084848461148e565b61147f576040517f08c379a0000000000000000000000000000000000000000000000000000000008152600401611476906120a6565b60405180910390fd5b505050565b505050565b505050565b60006114af8473ffffffffffffffffffffffffffffffffffffffff1661189a565b15611618578373ffffffffffffffffffffffffffffffffffffffff1663150b7a026114d8610bf9565b8786866040518563ffffffff1660e01b81526004016114fa9493929190612002565b602060405180830381600087803b15801561151457600080fd5b505af192505050801561154557506040513d601f19601f820116820180604052508101906115429190611c2b565b60015b6115c8573d8060008114611575576040519150601f19603f3d011682016040523d82523d6000602084013e61157a565b606091505b506000815114156115c0576040517f08c379a00000000000000000000000000000000000000000000000000000000081526004016115b7906120a6565b60405180910390fd5b805181602001fd5b63150b7a0260e01b7bffffffffffffffffffffffffffffffffffffffffffffffffffffffff1916817bffffffffffffffffffffffffffffffffffffffffffffffffffffffff19161491505061161d565b600190505b949350505050565b60008082905060005b84518110156116b5576000858281518110611672577f4e487b7100000000000000000000000000000000000000000000000000000000600052603260045260246000fd5b602002602001015190508083116116945761168d83826118bd565b92506116a1565b61169e81846118bd565b92505b5080806116ad90612518565b91505061162e565b508091505092915050565b600073ffffffffffffffffffffffffffffffffffffffff168273ffffffffffffffffffffffffffffffffffffffff161415611730576040517f08c379a0000000000000000000000000000000000000000000000000000000008152600401611727906121c6565b60405180910390fd5b61173981610b8d565b15611779576040517f08c379a0000000000000000000000000000000000000000000000000000000008152600401611770906120e6565b60405180910390fd5b61178560008383611484565b6001600360008473ffffffffffffffffffffffffffffffffffffffff1673ffffffffffffffffffffffffffffffffffffffff16815260200190815260200160002060008282546117d5919061233a565b92505081905550816002600083815260200190815260200160002060006101000a81548173ffffffffffffffffffffffffffffffffffffffff021916908373ffffffffffffffffffffffffffffffffffffffff160217905550808273ffffffffffffffffffffffffffffffffffffffff16600073ffffffffffffffffffffffffffffffffffffffff167fddf252ad1be2c89b69c2b068fc378daa952ba7f163c4a11628f55a4df523b3ef60405160405180910390a461189660008383611489565b5050565b6000808273ffffffffffffffffffffffffffffffffffffffff163b119050919050565b600082600052816020526040600020905092915050565b60006118e76118e2846122c6565b6122a1565b9050828152602081018484840111156118ff57600080fd5b61190a848285612473565b509392505050565b60008135905061192181612aa3565b92915050565b60008083601f84011261193957600080fd5b8235905067ffffffffffffffff81111561195257600080fd5b60208301915083602082028301111561196a57600080fd5b9250929050565b60008135905061198081612aba565b92915050565b60008135905061199581612ad1565b92915050565b6000815190506119aa81612ad1565b92915050565b600082601f8301126119c157600080fd5b81356119d18482602086016118d4565b91505092915050565b6000813590506119e981612ae8565b92915050565b600060208284031215611a0157600080fd5b6000611a0f84828501611912565b91505092915050565b60008060408385031215611a2b57600080fd5b6000611a3985828601611912565b9250506020611a4a85828601611912565b9150509250929050565b600080600060608486031215611a6957600080fd5b6000611a7786828701611912565b9350506020611a8886828701611912565b9250506040611a99868287016119da565b9150509250925092565b60008060008060808587031215611ab957600080fd5b6000611ac787828801611912565b9450506020611ad887828801611912565b9350506040611ae9878288016119da565b925050606085013567ffffffffffffffff811115611b0657600080fd5b611b12878288016119b0565b91505092959194509250565b60008060408385031215611b3157600080fd5b6000611b3f85828601611912565b9250506020611b5085828601611971565b9150509250929050565b60008060408385031215611b6d57600080fd5b6000611b7b85828601611912565b9250506020611b8c858286016119da565b9150509250929050565b60008060008060608587031215611bac57600080fd5b6000611bba87828801611912565b9450506020611bcb878288016119da565b935050604085013567ffffffffffffffff811115611be857600080fd5b611bf487828801611927565b925092505092959194509250565b600060208284031215611c1457600080fd5b6000611c2284828501611986565b91505092915050565b600060208284031215611c3d57600080fd5b6000611c4b8482850161199b565b91505092915050565b600060208284031215611c6657600080fd5b6000611c74848285016119da565b91505092915050565b611c86816123f5565b82525050565b611c9d611c98826123f5565b612561565b82525050565b611cac81612407565b82525050565b611cbb81612413565b82525050565b6000611ccc826122f7565b611cd6818561230d565b9350611ce6818560208601612482565b611cef8161267c565b840191505092915050565b6000611d0582612302565b611d0f818561231e565b9350611d1f818560208601612482565b611d288161267c565b840191505092915050565b6000611d3e82612302565b611d48818561232f565b9350611d58818560208601612482565b80840191505092915050565b6000611d7160328361231e565b9150611d7c8261269a565b604082019050919050565b6000611d9460258361231e565b9150611d9f826126e9565b604082019050919050565b6000611db7601c8361231e565b9150611dc282612738565b602082019050919050565b6000611dda60248361231e565b9150611de582612761565b604082019050919050565b6000611dfd60198361231e565b9150611e08826127b0565b602082019050919050565b6000611e20602c8361231e565b9150611e2b826127d9565b604082019050919050565b6000611e4360388361231e565b9150611e4e82612828565b604082019050919050565b6000611e66602a8361231e565b9150611e7182612877565b604082019050919050565b6000611e8960298361231e565b9150611e94826128c6565b604082019050919050565b6000611eac60208361231e565b9150611eb782612915565b602082019050919050565b6000611ecf602c8361231e565b9150611eda8261293e565b604082019050919050565b6000611ef260148361231e565b9150611efd8261298d565b602082019050919050565b6000611f15602f8361231e565b9150611f20826129b6565b604082019050919050565b6000611f3860218361231e565b9150611f4382612a05565b604082019050919050565b6000611f5b60318361231e565b9150611f6682612a54565b604082019050919050565b611f7a81612469565b82525050565b611f91611f8c82612469565b612585565b82525050565b6000611fa38285611d33565b9150611faf8284611d33565b91508190509392505050565b6000611fc78285611f80565b602082019150611fd78284611c8c565b6014820191508190509392505050565b6000602082019050611ffc6000830184611c7d565b92915050565b60006080820190506120176000830187611c7d565b6120246020830186611c7d565b6120316040830185611f71565b81810360608301526120438184611cc1565b905095945050505050565b60006020820190506120636000830184611ca3565b92915050565b600060208201905061207e6000830184611cb2565b92915050565b6000602082019050818103600083015261209e8184611cfa565b905092915050565b600060208201905081810360008301526120bf81611d64565b9050919050565b600060208201905081810360008301526120df81611d87565b9050919050565b600060208201905081810360008301526120ff81611daa565b9050919050565b6000602082019050818103600083015261211f81611dcd565b9050919050565b6000602082019050818103600083015261213f81611df0565b9050919050565b6000602082019050818103600083015261215f81611e13565b9050919050565b6000602082019050818103600083015261217f81611e36565b9050919050565b6000602082019050818103600083015261219f81611e59565b9050919050565b600060208201905081810360008301526121bf81611e7c565b9050919050565b600060208201905081810360008301526121df81611e9f565b9050919050565b600060208201905081810360008301526121ff81611ec2565b9050919050565b6000602082019050818103600083015261221f81611ee5565b9050919050565b6000602082019050818103600083015261223f81611f08565b9050919050565b6000602082019050818103600083015261225f81611f2b565b9050919050565b6000602082019050818103600083015261227f81611f4e565b9050919050565b600060208201905061229b6000830184611f71565b92915050565b60006122ab6122bc565b90506122b782826124e7565b919050565b6000604051905090565b600067ffffffffffffffff8211156122e1576122e061264d565b5b6122ea8261267c565b9050602081019050919050565b600081519050919050565b600081519050919050565b600082825260208201905092915050565b600082825260208201905092915050565b600081905092915050565b600061234582612469565b915061235083612469565b9250827fffffffffffffffffffffffffffffffffffffffffffffffffffffffffffffffff03821115612385576123846125c0565b5b828201905092915050565b600061239b82612469565b91506123a683612469565b9250826123b6576123b56125ef565b5b828204905092915050565b60006123cc82612469565b91506123d783612469565b9250828210156123ea576123e96125c0565b5b828203905092915050565b600061240082612449565b9050919050565b60008115159050919050565b6000819050919050565b60007fffffffff0000000000000000000000000000000000000000000000000000000082169050919050565b600073ffffffffffffffffffffffffffffffffffffffff82169050919050565b6000819050919050565b82818337600083830152505050565b60005b838110156124a0578082015181840152602081019050612485565b838111156124af576000848401525b50505050565b600060028204905060018216806124cd57607f821691505b602082108114156124e1576124e061261e565b5b50919050565b6124f08261267c565b810181811067ffffffffffffffff8211171561250f5761250e61264d565b5b80604052505050565b600061252382612469565b91507fffffffffffffffffffffffffffffffffffffffffffffffffffffffffffffffff821415612556576125556125c0565b5b600182019050919050565b600061256c82612573565b9050919050565b600061257e8261268d565b9050919050565b6000819050919050565b600061259a82612469565b91506125a583612469565b9250826125b5576125b46125ef565b5b828206905092915050565b7f4e487b7100000000000000000000000000000000000000000000000000000000600052601160045260246000fd5b7f4e487b7100000000000000000000000000000000000000000000000000000000600052601260045260246000fd5b7f4e487b7100000000000000000000000000000000000000000000000000000000600052602260045260246000fd5b7f4e487b7100000000000000000000000000000000000000000000000000000000600052604160045260246000fd5b6000601f19601f8301169050919050565b60008160601b9050919050565b7f4552433732313a207472616e7366657220746f206e6f6e20455243373231526560008201527f63656976657220696d706c656d656e7465720000000000000000000000000000602082015250565b7f4552433732313a207472616e736665722066726f6d20696e636f72726563742060008201527f6f776e6572000000000000000000000000000000000000000000000000000000602082015250565b7f4552433732313a20746f6b656e20616c7265616479206d696e74656400000000600082015250565b7f4552433732313a207472616e7366657220746f20746865207a65726f2061646460008201527f7265737300000000000000000000000000000000000000000000000000000000602082015250565b7f4552433732313a20617070726f766520746f2063616c6c657200000000000000600082015250565b7f4552433732313a206f70657261746f7220717565727920666f72206e6f6e657860008201527f697374656e7420746f6b656e0000000000000000000000000000000000000000602082015250565b7f4552433732313a20617070726f76652063616c6c6572206973206e6f74206f7760008201527f6e6572206e6f7220617070726f76656420666f7220616c6c0000000000000000602082015250565b7f4552433732313a2062616c616e636520717565727920666f7220746865207a6560008201527f726f206164647265737300000000000000000000000000000000000000000000602082015250565b7f4552433732313a206f776e657220717565727920666f72206e6f6e657869737460008201527f656e7420746f6b656e0000000000000000000000000000000000000000000000602082015250565b7f4552433732313a206d696e7420746f20746865207a65726f2061646472657373600082015250565b7f4552433732313a20617070726f76656420717565727920666f72206e6f6e657860008201527f697374656e7420746f6b656e0000000000000000000000000000000000000000602082015250565b7f496e76616c6964206d65726b6c652070726f6f66000000000000000000000000600082015250565b7f4552433732314d657461646174613a2055524920717565727920666f72206e6f60008201527f6e6578697374656e7420746f6b656e0000000000000000000000000000000000602082015250565b7f4552433732313a20617070726f76616c20746f2063757272656e74206f776e6560008201527f7200000000000000000000000000000000000000000000000000000000000000602082015250565b7f4552433732313a207472616e736665722063616c6c6572206973206e6f74206f60008201527f776e6572206e6f7220617070726f766564000000000000000000000000000000602082015250565b612aac816123f5565b8114612ab757600080fd5b50565b612ac381612407565b8114612ace57600080fd5b50565b612ada8161241d565b8114612ae557600080fd5b50565b612af181612469565b8114612afc57600080fd5b5056fea2646970667358221220a84e03425817784ca242c01d3ebbae8097da53d416400ec1a8e38dd14ba7532564736f6c63430008040033",
  "linkReferences": {},
  "deployedLinkReferences": {}
}